{
	"verifier.sol": {
		"Verifier": {
			"abi": [
				{
					"inputs": [
						{
							"components": [
								{
									"components": [
										{
											"internalType": "uint256",
											"name": "X",
											"type": "uint256"
										},
										{
											"internalType": "uint256",
											"name": "Y",
											"type": "uint256"
										}
									],
									"internalType": "struct Pairing.G1Point",
									"name": "a",
									"type": "tuple"
								},
								{
									"components": [
										{
											"internalType": "uint256[2]",
											"name": "X",
											"type": "uint256[2]"
										},
										{
											"internalType": "uint256[2]",
											"name": "Y",
											"type": "uint256[2]"
										}
									],
									"internalType": "struct Pairing.G2Point",
									"name": "b",
									"type": "tuple"
								},
								{
									"components": [
										{
											"internalType": "uint256",
											"name": "X",
											"type": "uint256"
										},
										{
											"internalType": "uint256",
											"name": "Y",
											"type": "uint256"
										}
									],
									"internalType": "struct Pairing.G1Point",
									"name": "c",
									"type": "tuple"
								}
							],
							"internalType": "struct Verifier.Proof",
							"name": "proof",
							"type": "tuple"
						},
						{
							"internalType": "uint256[1]",
							"name": "input",
							"type": "uint256[1]"
						}
					],
					"name": "verifyTx",
					"outputs": [
						{
							"internalType": "bool",
							"name": "r",
							"type": "bool"
						}
					],
					"stateMutability": "view",
					"type": "function"
				}
			],
			"devdoc": {
				"kind": "dev",
				"methods": {},
				"version": 1
			},
			"evm": {
				"assembly": "    /* \"verifier.sol\":6234:9668  contract Verifier {... */\n  mstore(0x40, 0x80)\n  callvalue\n  dup1\n  iszero\n  tag_1\n  jumpi\n  0x00\n  dup1\n  revert\ntag_1:\n  pop\n  dataSize(sub_0)\n  dup1\n  dataOffset(sub_0)\n  0x00\n  codecopy\n  0x00\n  return\nstop\n\nsub_0: assembly {\n        /* \"verifier.sol\":6234:9668  contract Verifier {... */\n      mstore(0x40, 0x80)\n      callvalue\n      dup1\n      iszero\n      tag_1\n      jumpi\n      0x00\n      dup1\n      revert\n    tag_1:\n      pop\n      jumpi(tag_2, lt(calldatasize, 0x04))\n      shr(0xe0, calldataload(0x00))\n      dup1\n      0xf48d7729\n      eq\n      tag_3\n      jumpi\n    tag_2:\n      0x00\n      dup1\n      revert\n        /* \"verifier.sol\":9266:9666  function verifyTx(... */\n    tag_3:\n      tag_4\n      0x04\n      dup1\n      calldatasize\n      sub\n      dup2\n      add\n      swap1\n      tag_5\n      swap2\n      swap1\n      tag_6\n      jump\t// in\n    tag_5:\n      tag_7\n      jump\t// in\n    tag_4:\n      mload(0x40)\n      tag_8\n      swap2\n      swap1\n      tag_9\n      jump\t// in\n    tag_8:\n      mload(0x40)\n      dup1\n      swap2\n      sub\n      swap1\n      return\n    tag_7:\n        /* \"verifier.sol\":9369:9375  bool r */\n      0x00\n        /* \"verifier.sol\":9387:9412  uint[] memory inputValues */\n      dup1\n        /* \"verifier.sol\":9426:9427  1 */\n      0x01\n        /* \"verifier.sol\":9415:9428  new uint[](1) */\n      0xffffffffffffffff\n      dup2\n      gt\n      iszero\n      tag_11\n      jumpi\n      mstore(0x00, 0x4e487b7100000000000000000000000000000000000000000000000000000000)\n      mstore(0x04, 0x41)\n      revert(0x00, 0x24)\n    tag_11:\n      mload(0x40)\n      swap1\n      dup1\n      dup3\n      mstore\n      dup1\n      0x20\n      mul\n      0x20\n      add\n      dup3\n      add\n      0x40\n      mstore\n      dup1\n      iszero\n      tag_12\n      jumpi\n      dup2\n      0x20\n      add\n      0x20\n      dup3\n      mul\n      dup1\n      calldatasize\n      dup4\n      calldatacopy\n      dup1\n      dup3\n      add\n      swap2\n      pop\n      pop\n      swap1\n      pop\n    tag_12:\n      pop\n        /* \"verifier.sol\":9387:9428  uint[] memory inputValues = new uint[](1) */\n      swap1\n      pop\n        /* \"verifier.sol\":9451:9457  uint i */\n      0x00\n        /* \"verifier.sol\":9447:9535  for(uint i = 0; i < input.length; i++){... */\n    tag_13:\n        /* \"verifier.sol\":9467:9479  input.length */\n      0x01\n        /* \"verifier.sol\":9463:9464  i */\n      dup2\n        /* \"verifier.sol\":9463:9479  i < input.length */\n      lt\n        /* \"verifier.sol\":9447:9535  for(uint i = 0; i < input.length; i++){... */\n      iszero\n      tag_14\n      jumpi\n        /* \"verifier.sol\":9516:9521  input */\n      dup4\n        /* \"verifier.sol\":9522:9523  i */\n      dup2\n        /* \"verifier.sol\":9516:9524  input[i] */\n      0x01\n      dup2\n      lt\n      tag_16\n      jumpi\n      mstore(0x00, 0x4e487b7100000000000000000000000000000000000000000000000000000000)\n      mstore(0x04, 0x32)\n      revert(0x00, 0x24)\n    tag_16:\n      0x20\n      mul\n      add\n      mload\n        /* \"verifier.sol\":9499:9510  inputValues */\n      dup3\n        /* \"verifier.sol\":9511:9512  i */\n      dup3\n        /* \"verifier.sol\":9499:9513  inputValues[i] */\n      dup2\n      mload\n      dup2\n      lt\n      tag_17\n      jumpi\n      mstore(0x00, 0x4e487b7100000000000000000000000000000000000000000000000000000000)\n      mstore(0x04, 0x32)\n      revert(0x00, 0x24)\n    tag_17:\n      0x20\n      mul\n      0x20\n      add\n      add\n        /* \"verifier.sol\":9499:9524  inputValues[i] = input[i] */\n      dup2\n      dup2\n      mstore\n      pop\n      pop\n        /* \"verifier.sol\":9481:9484  i++ */\n      dup1\n      dup1\n      tag_18\n      swap1\n      tag_19\n      jump\t// in\n    tag_18:\n      swap2\n      pop\n      pop\n        /* \"verifier.sol\":9447:9535  for(uint i = 0; i < input.length; i++){... */\n      jump(tag_13)\n    tag_14:\n      pop\n        /* \"verifier.sol\":9578:9579  0 */\n      0x00\n        /* \"verifier.sol\":9548:9574  verify(inputValues, proof) */\n      tag_20\n        /* \"verifier.sol\":9555:9566  inputValues */\n      dup3\n        /* \"verifier.sol\":9568:9573  proof */\n      dup7\n        /* \"verifier.sol\":9548:9554  verify */\n      tag_21\n        /* \"verifier.sol\":9548:9574  verify(inputValues, proof) */\n      jump\t// in\n    tag_20:\n        /* \"verifier.sol\":9548:9579  verify(inputValues, proof) == 0 */\n      eq\n        /* \"verifier.sol\":9544:9660  if (verify(inputValues, proof) == 0) {... */\n      iszero\n      tag_22\n      jumpi\n        /* \"verifier.sol\":9602:9606  true */\n      0x01\n        /* \"verifier.sol\":9595:9606  return true */\n      swap2\n      pop\n      pop\n      jump(tag_10)\n        /* \"verifier.sol\":9544:9660  if (verify(inputValues, proof) == 0) {... */\n    tag_22:\n        /* \"verifier.sol\":9644:9649  false */\n      0x00\n        /* \"verifier.sol\":9637:9649  return false */\n      swap2\n      pop\n      pop\n        /* \"verifier.sol\":9266:9666  function verifyTx(... */\n    tag_10:\n      swap3\n      swap2\n      pop\n      pop\n      jump\t// out\n        /* \"verifier.sol\":8340:9261  function verify(uint[] memory input, Proof memory proof) internal view returns (uint) {... */\n    tag_21:\n        /* \"verifier.sol\":8420:8424  uint */\n      0x00\n        /* \"verifier.sol\":8436:8462  uint256 snark_scalar_field */\n      dup1\n        /* \"verifier.sol\":8465:8542  21888242871839275222246405745257275088548364400416034343698204186575808495617 */\n      0x30644e72e131a029b85045b68181585d2833e84879b9709143e1f593f0000001\n        /* \"verifier.sol\":8436:8542  uint256 snark_scalar_field = 21888242871839275222246405745257275088548364400416034343698204186575808495617 */\n      swap1\n      pop\n        /* \"verifier.sol\":8552:8574  VerifyingKey memory vk */\n      0x00\n        /* \"verifier.sol\":8577:8591  verifyingKey() */\n      tag_25\n        /* \"verifier.sol\":8577:8589  verifyingKey */\n      tag_26\n        /* \"verifier.sol\":8577:8591  verifyingKey() */\n      jump\t// in\n    tag_25:\n        /* \"verifier.sol\":8552:8591  VerifyingKey memory vk = verifyingKey() */\n      swap1\n      pop\n        /* \"verifier.sol\":8629:8631  vk */\n      dup1\n        /* \"verifier.sol\":8629:8641  vk.gamma_abc */\n      0x80\n      add\n      mload\n        /* \"verifier.sol\":8629:8648  vk.gamma_abc.length */\n      mload\n        /* \"verifier.sol\":8624:8625  1 */\n      0x01\n        /* \"verifier.sol\":8609:8614  input */\n      dup7\n        /* \"verifier.sol\":8609:8621  input.length */\n      mload\n        /* \"verifier.sol\":8609:8625  input.length + 1 */\n      tag_27\n      swap2\n      swap1\n      tag_28\n      jump\t// in\n    tag_27:\n        /* \"verifier.sol\":8609:8648  input.length + 1 == vk.gamma_abc.length */\n      eq\n        /* \"verifier.sol\":8601:8649  require(input.length + 1 == vk.gamma_abc.length) */\n      tag_29\n      jumpi\n      0x00\n      dup1\n      revert\n    tag_29:\n        /* \"verifier.sol\":8706:8733  Pairing.G1Point memory vk_x */\n      0x00\n        /* \"verifier.sol\":8736:8757  Pairing.G1Point(0, 0) */\n      mload(0x40)\n      dup1\n      0x40\n      add\n      0x40\n      mstore\n      dup1\n        /* \"verifier.sol\":8752:8753  0 */\n      0x00\n        /* \"verifier.sol\":8736:8757  Pairing.G1Point(0, 0) */\n      dup2\n      mstore\n      0x20\n      add\n        /* \"verifier.sol\":8755:8756  0 */\n      0x00\n        /* \"verifier.sol\":8736:8757  Pairing.G1Point(0, 0) */\n      dup2\n      mstore\n      pop\n        /* \"verifier.sol\":8706:8757  Pairing.G1Point memory vk_x = Pairing.G1Point(0, 0) */\n      swap1\n      pop\n        /* \"verifier.sol\":8772:8778  uint i */\n      0x00\n        /* \"verifier.sol\":8767:8964  for (uint i = 0; i < input.length; i++) {... */\n    tag_30:\n        /* \"verifier.sol\":8788:8793  input */\n      dup7\n        /* \"verifier.sol\":8788:8800  input.length */\n      mload\n        /* \"verifier.sol\":8784:8785  i */\n      dup2\n        /* \"verifier.sol\":8784:8800  i < input.length */\n      lt\n        /* \"verifier.sol\":8767:8964  for (uint i = 0; i < input.length; i++) {... */\n      iszero\n      tag_31\n      jumpi\n        /* \"verifier.sol\":8840:8858  snark_scalar_field */\n      dup4\n        /* \"verifier.sol\":8829:8834  input */\n      dup8\n        /* \"verifier.sol\":8835:8836  i */\n      dup3\n        /* \"verifier.sol\":8829:8837  input[i] */\n      dup2\n      mload\n      dup2\n      lt\n      tag_33\n      jumpi\n      mstore(0x00, 0x4e487b7100000000000000000000000000000000000000000000000000000000)\n      mstore(0x04, 0x32)\n      revert(0x00, 0x24)\n    tag_33:\n      0x20\n      mul\n      0x20\n      add\n      add\n      mload\n        /* \"verifier.sol\":8829:8858  input[i] < snark_scalar_field */\n      lt\n        /* \"verifier.sol\":8821:8859  require(input[i] < snark_scalar_field) */\n      tag_34\n      jumpi\n      0x00\n      dup1\n      revert\n    tag_34:\n        /* \"verifier.sol\":8880:8953  Pairing.addition(vk_x, Pairing.scalar_mul(vk.gamma_abc[i + 1], input[i])) */\n      tag_35\n        /* \"verifier.sol\":8897:8901  vk_x */\n      dup3\n        /* \"verifier.sol\":8903:8952  Pairing.scalar_mul(vk.gamma_abc[i + 1], input[i]) */\n      tag_36\n        /* \"verifier.sol\":8922:8924  vk */\n      dup6\n        /* \"verifier.sol\":8922:8934  vk.gamma_abc */\n      0x80\n      add\n      mload\n        /* \"verifier.sol\":8939:8940  1 */\n      0x01\n        /* \"verifier.sol\":8935:8936  i */\n      dup6\n        /* \"verifier.sol\":8935:8940  i + 1 */\n      tag_37\n      swap2\n      swap1\n      tag_28\n      jump\t// in\n    tag_37:\n        /* \"verifier.sol\":8922:8941  vk.gamma_abc[i + 1] */\n      dup2\n      mload\n      dup2\n      lt\n      tag_38\n      jumpi\n      mstore(0x00, 0x4e487b7100000000000000000000000000000000000000000000000000000000)\n      mstore(0x04, 0x32)\n      revert(0x00, 0x24)\n    tag_38:\n      0x20\n      mul\n      0x20\n      add\n      add\n      mload\n        /* \"verifier.sol\":8943:8948  input */\n      dup11\n        /* \"verifier.sol\":8949:8950  i */\n      dup6\n        /* \"verifier.sol\":8943:8951  input[i] */\n      dup2\n      mload\n      dup2\n      lt\n      tag_39\n      jumpi\n      mstore(0x00, 0x4e487b7100000000000000000000000000000000000000000000000000000000)\n      mstore(0x04, 0x32)\n      revert(0x00, 0x24)\n    tag_39:\n      0x20\n      mul\n      0x20\n      add\n      add\n      mload\n        /* \"verifier.sol\":8903:8921  Pairing.scalar_mul */\n      tag_40\n        /* \"verifier.sol\":8903:8952  Pairing.scalar_mul(vk.gamma_abc[i + 1], input[i]) */\n      jump\t// in\n    tag_36:\n        /* \"verifier.sol\":8880:8896  Pairing.addition */\n      tag_41\n        /* \"verifier.sol\":8880:8953  Pairing.addition(vk_x, Pairing.scalar_mul(vk.gamma_abc[i + 1], input[i])) */\n      jump\t// in\n    tag_35:\n        /* \"verifier.sol\":8873:8953  vk_x = Pairing.addition(vk_x, Pairing.scalar_mul(vk.gamma_abc[i + 1], input[i])) */\n      swap2\n      pop\n        /* \"verifier.sol\":8802:8805  i++ */\n      dup1\n      dup1\n      tag_42\n      swap1\n      tag_19\n      jump\t// in\n    tag_42:\n      swap2\n      pop\n      pop\n        /* \"verifier.sol\":8767:8964  for (uint i = 0; i < input.length; i++) {... */\n      jump(tag_30)\n    tag_31:\n      pop\n        /* \"verifier.sol\":8980:9019  Pairing.addition(vk_x, vk.gamma_abc[0]) */\n      tag_43\n        /* \"verifier.sol\":8997:9001  vk_x */\n      dup2\n        /* \"verifier.sol\":9003:9005  vk */\n      dup4\n        /* \"verifier.sol\":9003:9015  vk.gamma_abc */\n      0x80\n      add\n      mload\n        /* \"verifier.sol\":9016:9017  0 */\n      0x00\n        /* \"verifier.sol\":9003:9018  vk.gamma_abc[0] */\n      dup2\n      mload\n      dup2\n      lt\n      tag_44\n      jumpi\n      mstore(0x00, 0x4e487b7100000000000000000000000000000000000000000000000000000000)\n      mstore(0x04, 0x32)\n      revert(0x00, 0x24)\n    tag_44:\n      0x20\n      mul\n      0x20\n      add\n      add\n      mload\n        /* \"verifier.sol\":8980:8996  Pairing.addition */\n      tag_41\n        /* \"verifier.sol\":8980:9019  Pairing.addition(vk_x, vk.gamma_abc[0]) */\n      jump\t// in\n    tag_43:\n        /* \"verifier.sol\":8973:9019  vk_x = Pairing.addition(vk_x, vk.gamma_abc[0]) */\n      swap1\n      pop\n        /* \"verifier.sol\":9033:9226  Pairing.pairingProd4(... */\n      tag_45\n        /* \"verifier.sol\":9068:9073  proof */\n      dup6\n        /* \"verifier.sol\":9068:9075  proof.a */\n      0x00\n      add\n      mload\n        /* \"verifier.sol\":9077:9082  proof */\n      dup7\n        /* \"verifier.sol\":9077:9084  proof.b */\n      0x20\n      add\n      mload\n        /* \"verifier.sol\":9099:9119  Pairing.negate(vk_x) */\n      tag_46\n        /* \"verifier.sol\":9114:9118  vk_x */\n      dup5\n        /* \"verifier.sol\":9099:9113  Pairing.negate */\n      tag_47\n        /* \"verifier.sol\":9099:9119  Pairing.negate(vk_x) */\n      jump\t// in\n    tag_46:\n        /* \"verifier.sol\":9121:9123  vk */\n      dup6\n        /* \"verifier.sol\":9121:9129  vk.gamma */\n      0x40\n      add\n      mload\n        /* \"verifier.sol\":9144:9167  Pairing.negate(proof.c) */\n      tag_48\n        /* \"verifier.sol\":9159:9164  proof */\n      dup11\n        /* \"verifier.sol\":9159:9166  proof.c */\n      0x40\n      add\n      mload\n        /* \"verifier.sol\":9144:9158  Pairing.negate */\n      tag_47\n        /* \"verifier.sol\":9144:9167  Pairing.negate(proof.c) */\n      jump\t// in\n    tag_48:\n        /* \"verifier.sol\":9169:9171  vk */\n      dup8\n        /* \"verifier.sol\":9169:9177  vk.delta */\n      0x60\n      add\n      mload\n        /* \"verifier.sol\":9192:9216  Pairing.negate(vk.alpha) */\n      tag_49\n        /* \"verifier.sol\":9207:9209  vk */\n      dup10\n        /* \"verifier.sol\":9207:9215  vk.alpha */\n      0x00\n      add\n      mload\n        /* \"verifier.sol\":9192:9206  Pairing.negate */\n      tag_47\n        /* \"verifier.sol\":9192:9216  Pairing.negate(vk.alpha) */\n      jump\t// in\n    tag_49:\n        /* \"verifier.sol\":9218:9220  vk */\n      dup10\n        /* \"verifier.sol\":9218:9225  vk.beta */\n      0x20\n      add\n      mload\n        /* \"verifier.sol\":9033:9053  Pairing.pairingProd4 */\n      tag_50\n        /* \"verifier.sol\":9033:9226  Pairing.pairingProd4(... */\n      jump\t// in\n    tag_45:\n        /* \"verifier.sol\":9029:9236  if(!Pairing.pairingProd4(... */\n      tag_51\n      jumpi\n        /* \"verifier.sol\":9235:9236  1 */\n      0x01\n        /* \"verifier.sol\":9228:9236  return 1 */\n      swap4\n      pop\n      pop\n      pop\n      pop\n      jump(tag_24)\n        /* \"verifier.sol\":9029:9236  if(!Pairing.pairingProd4(... */\n    tag_51:\n        /* \"verifier.sol\":9253:9254  0 */\n      0x00\n        /* \"verifier.sol\":9246:9254  return 0 */\n      swap4\n      pop\n      pop\n      pop\n      pop\n        /* \"verifier.sol\":8340:9261  function verify(uint[] memory input, Proof memory proof) internal view returns (uint) {... */\n    tag_24:\n      swap3\n      swap2\n      pop\n      pop\n      jump\t// out\n        /* \"verifier.sol\":6581:8335  function verifyingKey() pure internal returns (VerifyingKey memory vk) {... */\n    tag_26:\n        /* \"verifier.sol\":6628:6650  VerifyingKey memory vk */\n      tag_52\n      tag_53\n      jump\t// in\n    tag_52:\n        /* \"verifier.sol\":6673:6842  Pairing.G1Point(uint256(0x0c1c972c6cf689ac61dfe2c698b7bfe305cfcd68ff1305bb793d55a425ef5174), uint256(0x1ed18a8fc77312118ba2f5b3ca5644e75fbf7bb17a5151722ac7c99cd255c14d)) */\n      mload(0x40)\n      dup1\n      0x40\n      add\n      0x40\n      mstore\n      dup1\n        /* \"verifier.sol\":6697:6763  0x0c1c972c6cf689ac61dfe2c698b7bfe305cfcd68ff1305bb793d55a425ef5174 */\n      0x0c1c972c6cf689ac61dfe2c698b7bfe305cfcd68ff1305bb793d55a425ef5174\n        /* \"verifier.sol\":6673:6842  Pairing.G1Point(uint256(0x0c1c972c6cf689ac61dfe2c698b7bfe305cfcd68ff1305bb793d55a425ef5174), uint256(0x1ed18a8fc77312118ba2f5b3ca5644e75fbf7bb17a5151722ac7c99cd255c14d)) */\n      dup2\n      mstore\n      0x20\n      add\n        /* \"verifier.sol\":6774:6840  0x1ed18a8fc77312118ba2f5b3ca5644e75fbf7bb17a5151722ac7c99cd255c14d */\n      0x1ed18a8fc77312118ba2f5b3ca5644e75fbf7bb17a5151722ac7c99cd255c14d\n        /* \"verifier.sol\":6673:6842  Pairing.G1Point(uint256(0x0c1c972c6cf689ac61dfe2c698b7bfe305cfcd68ff1305bb793d55a425ef5174), uint256(0x1ed18a8fc77312118ba2f5b3ca5644e75fbf7bb17a5151722ac7c99cd255c14d)) */\n      dup2\n      mstore\n      pop\n        /* \"verifier.sol\":6662:6664  vk */\n      dup2\n        /* \"verifier.sol\":6662:6670  vk.alpha */\n      0x00\n      add\n        /* \"verifier.sol\":6662:6842  vk.alpha = Pairing.G1Point(uint256(0x0c1c972c6cf689ac61dfe2c698b7bfe305cfcd68ff1305bb793d55a425ef5174), uint256(0x1ed18a8fc77312118ba2f5b3ca5644e75fbf7bb17a5151722ac7c99cd255c14d)) */\n      dup2\n      swap1\n      mstore\n      pop\n        /* \"verifier.sol\":6862:7189  Pairing.G2Point([uint256(0x1aa9600cf67acfbe1ed78286320149ad12fb9ea54cecce06ca77026aaea381bb), uint256(0x25c0ca703530caf1aa8871504caa326e0342662e46b3ce836b984a7325b3b54d)], [uint256(0x11caf3c11a3bdf9a8c98a9f79a29088948c895dab9ba9aa2d3c10d94f9b3a0c9), uint256(0x0979ee6c98436968c93849d8838768607db9eb325227736d3722f2863e3eca05)]) */\n      mload(0x40)\n      dup1\n      0x40\n      add\n      0x40\n      mstore\n      dup1\n      mload(0x40)\n      dup1\n      0x40\n      add\n      0x40\n      mstore\n      dup1\n        /* \"verifier.sol\":6887:6953  0x1aa9600cf67acfbe1ed78286320149ad12fb9ea54cecce06ca77026aaea381bb */\n      0x1aa9600cf67acfbe1ed78286320149ad12fb9ea54cecce06ca77026aaea381bb\n        /* \"verifier.sol\":6862:7189  Pairing.G2Point([uint256(0x1aa9600cf67acfbe1ed78286320149ad12fb9ea54cecce06ca77026aaea381bb), uint256(0x25c0ca703530caf1aa8871504caa326e0342662e46b3ce836b984a7325b3b54d)], [uint256(0x11caf3c11a3bdf9a8c98a9f79a29088948c895dab9ba9aa2d3c10d94f9b3a0c9), uint256(0x0979ee6c98436968c93849d8838768607db9eb325227736d3722f2863e3eca05)]) */\n      dup2\n      mstore\n      0x20\n      add\n        /* \"verifier.sol\":6964:7030  0x25c0ca703530caf1aa8871504caa326e0342662e46b3ce836b984a7325b3b54d */\n      0x25c0ca703530caf1aa8871504caa326e0342662e46b3ce836b984a7325b3b54d\n        /* \"verifier.sol\":6862:7189  Pairing.G2Point([uint256(0x1aa9600cf67acfbe1ed78286320149ad12fb9ea54cecce06ca77026aaea381bb), uint256(0x25c0ca703530caf1aa8871504caa326e0342662e46b3ce836b984a7325b3b54d)], [uint256(0x11caf3c11a3bdf9a8c98a9f79a29088948c895dab9ba9aa2d3c10d94f9b3a0c9), uint256(0x0979ee6c98436968c93849d8838768607db9eb325227736d3722f2863e3eca05)]) */\n      dup2\n      mstore\n      pop\n      dup2\n      mstore\n      0x20\n      add\n      mload(0x40)\n      dup1\n      0x40\n      add\n      0x40\n      mstore\n      dup1\n        /* \"verifier.sol\":7043:7109  0x11caf3c11a3bdf9a8c98a9f79a29088948c895dab9ba9aa2d3c10d94f9b3a0c9 */\n      0x11caf3c11a3bdf9a8c98a9f79a29088948c895dab9ba9aa2d3c10d94f9b3a0c9\n        /* \"verifier.sol\":6862:7189  Pairing.G2Point([uint256(0x1aa9600cf67acfbe1ed78286320149ad12fb9ea54cecce06ca77026aaea381bb), uint256(0x25c0ca703530caf1aa8871504caa326e0342662e46b3ce836b984a7325b3b54d)], [uint256(0x11caf3c11a3bdf9a8c98a9f79a29088948c895dab9ba9aa2d3c10d94f9b3a0c9), uint256(0x0979ee6c98436968c93849d8838768607db9eb325227736d3722f2863e3eca05)]) */\n      dup2\n      mstore\n      0x20\n      add\n        /* \"verifier.sol\":7120:7186  0x0979ee6c98436968c93849d8838768607db9eb325227736d3722f2863e3eca05 */\n      0x0979ee6c98436968c93849d8838768607db9eb325227736d3722f2863e3eca05\n        /* \"verifier.sol\":6862:7189  Pairing.G2Point([uint256(0x1aa9600cf67acfbe1ed78286320149ad12fb9ea54cecce06ca77026aaea381bb), uint256(0x25c0ca703530caf1aa8871504caa326e0342662e46b3ce836b984a7325b3b54d)], [uint256(0x11caf3c11a3bdf9a8c98a9f79a29088948c895dab9ba9aa2d3c10d94f9b3a0c9), uint256(0x0979ee6c98436968c93849d8838768607db9eb325227736d3722f2863e3eca05)]) */\n      dup2\n      mstore\n      pop\n      dup2\n      mstore\n      pop\n        /* \"verifier.sol\":6852:6854  vk */\n      dup2\n        /* \"verifier.sol\":6852:6859  vk.beta */\n      0x20\n      add\n        /* \"verifier.sol\":6852:7189  vk.beta = Pairing.G2Point([uint256(0x1aa9600cf67acfbe1ed78286320149ad12fb9ea54cecce06ca77026aaea381bb), uint256(0x25c0ca703530caf1aa8871504caa326e0342662e46b3ce836b984a7325b3b54d)], [uint256(0x11caf3c11a3bdf9a8c98a9f79a29088948c895dab9ba9aa2d3c10d94f9b3a0c9), uint256(0x0979ee6c98436968c93849d8838768607db9eb325227736d3722f2863e3eca05)]) */\n      dup2\n      swap1\n      mstore\n      pop\n        /* \"verifier.sol\":7210:7537  Pairing.G2Point([uint256(0x00082377196d5eabd9ba90da8eb828a8d0df574c4742e0cd10788cb11a92ba38), uint256(0x009be89ad511cc80bdfb994823ff993d12e37504ded6c27da47b12c1cf58d33b)], [uint256(0x12d648d17fe39d19166e4b3bc4e42422143b2f403897a25f7a434bcb0dcd819a), uint256(0x0c283ad4e22053e4f805949f928dcc29e61a84e9f08865e4dc3e0d19fabe25c1)]) */\n      mload(0x40)\n      dup1\n      0x40\n      add\n      0x40\n      mstore\n      dup1\n      mload(0x40)\n      dup1\n      0x40\n      add\n      0x40\n      mstore\n      dup1\n        /* \"verifier.sol\":7235:7301  0x00082377196d5eabd9ba90da8eb828a8d0df574c4742e0cd10788cb11a92ba38 */\n      0x082377196d5eabd9ba90da8eb828a8d0df574c4742e0cd10788cb11a92ba38\n        /* \"verifier.sol\":7210:7537  Pairing.G2Point([uint256(0x00082377196d5eabd9ba90da8eb828a8d0df574c4742e0cd10788cb11a92ba38), uint256(0x009be89ad511cc80bdfb994823ff993d12e37504ded6c27da47b12c1cf58d33b)], [uint256(0x12d648d17fe39d19166e4b3bc4e42422143b2f403897a25f7a434bcb0dcd819a), uint256(0x0c283ad4e22053e4f805949f928dcc29e61a84e9f08865e4dc3e0d19fabe25c1)]) */\n      dup2\n      mstore\n      0x20\n      add\n        /* \"verifier.sol\":7312:7378  0x009be89ad511cc80bdfb994823ff993d12e37504ded6c27da47b12c1cf58d33b */\n      0x9be89ad511cc80bdfb994823ff993d12e37504ded6c27da47b12c1cf58d33b\n        /* \"verifier.sol\":7210:7537  Pairing.G2Point([uint256(0x00082377196d5eabd9ba90da8eb828a8d0df574c4742e0cd10788cb11a92ba38), uint256(0x009be89ad511cc80bdfb994823ff993d12e37504ded6c27da47b12c1cf58d33b)], [uint256(0x12d648d17fe39d19166e4b3bc4e42422143b2f403897a25f7a434bcb0dcd819a), uint256(0x0c283ad4e22053e4f805949f928dcc29e61a84e9f08865e4dc3e0d19fabe25c1)]) */\n      dup2\n      mstore\n      pop\n      dup2\n      mstore\n      0x20\n      add\n      mload(0x40)\n      dup1\n      0x40\n      add\n      0x40\n      mstore\n      dup1\n        /* \"verifier.sol\":7391:7457  0x12d648d17fe39d19166e4b3bc4e42422143b2f403897a25f7a434bcb0dcd819a */\n      0x12d648d17fe39d19166e4b3bc4e42422143b2f403897a25f7a434bcb0dcd819a\n        /* \"verifier.sol\":7210:7537  Pairing.G2Point([uint256(0x00082377196d5eabd9ba90da8eb828a8d0df574c4742e0cd10788cb11a92ba38), uint256(0x009be89ad511cc80bdfb994823ff993d12e37504ded6c27da47b12c1cf58d33b)], [uint256(0x12d648d17fe39d19166e4b3bc4e42422143b2f403897a25f7a434bcb0dcd819a), uint256(0x0c283ad4e22053e4f805949f928dcc29e61a84e9f08865e4dc3e0d19fabe25c1)]) */\n      dup2\n      mstore\n      0x20\n      add\n        /* \"verifier.sol\":7468:7534  0x0c283ad4e22053e4f805949f928dcc29e61a84e9f08865e4dc3e0d19fabe25c1 */\n      0x0c283ad4e22053e4f805949f928dcc29e61a84e9f08865e4dc3e0d19fabe25c1\n        /* \"verifier.sol\":7210:7537  Pairing.G2Point([uint256(0x00082377196d5eabd9ba90da8eb828a8d0df574c4742e0cd10788cb11a92ba38), uint256(0x009be89ad511cc80bdfb994823ff993d12e37504ded6c27da47b12c1cf58d33b)], [uint256(0x12d648d17fe39d19166e4b3bc4e42422143b2f403897a25f7a434bcb0dcd819a), uint256(0x0c283ad4e22053e4f805949f928dcc29e61a84e9f08865e4dc3e0d19fabe25c1)]) */\n      dup2\n      mstore\n      pop\n      dup2\n      mstore\n      pop\n        /* \"verifier.sol\":7199:7201  vk */\n      dup2\n        /* \"verifier.sol\":7199:7207  vk.gamma */\n      0x40\n      add\n        /* \"verifier.sol\":7199:7537  vk.gamma = Pairing.G2Point([uint256(0x00082377196d5eabd9ba90da8eb828a8d0df574c4742e0cd10788cb11a92ba38), uint256(0x009be89ad511cc80bdfb994823ff993d12e37504ded6c27da47b12c1cf58d33b)], [uint256(0x12d648d17fe39d19166e4b3bc4e42422143b2f403897a25f7a434bcb0dcd819a), uint256(0x0c283ad4e22053e4f805949f928dcc29e61a84e9f08865e4dc3e0d19fabe25c1)]) */\n      dup2\n      swap1\n      mstore\n      pop\n        /* \"verifier.sol\":7558:7885  Pairing.G2Point([uint256(0x1d0fbdcbe033ae751ff714e30bf3a155e23f18c9d62fa572f10a5358ee2b2766), uint256(0x06968ec04f8037b53a5848d9e297889bf94093622dbe3e5395c7724281a6f5ff)], [uint256(0x2ac92ac01cb073e60cac933fc024d20e8667cb926a08db8653368f3a428faa8e), uint256(0x18f6985eda9a5133fdcce2a11f7173aa66b540e72af612bf6394cf881c5cf2c9)]) */\n      mload(0x40)\n      dup1\n      0x40\n      add\n      0x40\n      mstore\n      dup1\n      mload(0x40)\n      dup1\n      0x40\n      add\n      0x40\n      mstore\n      dup1\n        /* \"verifier.sol\":7583:7649  0x1d0fbdcbe033ae751ff714e30bf3a155e23f18c9d62fa572f10a5358ee2b2766 */\n      0x1d0fbdcbe033ae751ff714e30bf3a155e23f18c9d62fa572f10a5358ee2b2766\n        /* \"verifier.sol\":7558:7885  Pairing.G2Point([uint256(0x1d0fbdcbe033ae751ff714e30bf3a155e23f18c9d62fa572f10a5358ee2b2766), uint256(0x06968ec04f8037b53a5848d9e297889bf94093622dbe3e5395c7724281a6f5ff)], [uint256(0x2ac92ac01cb073e60cac933fc024d20e8667cb926a08db8653368f3a428faa8e), uint256(0x18f6985eda9a5133fdcce2a11f7173aa66b540e72af612bf6394cf881c5cf2c9)]) */\n      dup2\n      mstore\n      0x20\n      add\n        /* \"verifier.sol\":7660:7726  0x06968ec04f8037b53a5848d9e297889bf94093622dbe3e5395c7724281a6f5ff */\n      0x06968ec04f8037b53a5848d9e297889bf94093622dbe3e5395c7724281a6f5ff\n        /* \"verifier.sol\":7558:7885  Pairing.G2Point([uint256(0x1d0fbdcbe033ae751ff714e30bf3a155e23f18c9d62fa572f10a5358ee2b2766), uint256(0x06968ec04f8037b53a5848d9e297889bf94093622dbe3e5395c7724281a6f5ff)], [uint256(0x2ac92ac01cb073e60cac933fc024d20e8667cb926a08db8653368f3a428faa8e), uint256(0x18f6985eda9a5133fdcce2a11f7173aa66b540e72af612bf6394cf881c5cf2c9)]) */\n      dup2\n      mstore\n      pop\n      dup2\n      mstore\n      0x20\n      add\n      mload(0x40)\n      dup1\n      0x40\n      add\n      0x40\n      mstore\n      dup1\n        /* \"verifier.sol\":7739:7805  0x2ac92ac01cb073e60cac933fc024d20e8667cb926a08db8653368f3a428faa8e */\n      0x2ac92ac01cb073e60cac933fc024d20e8667cb926a08db8653368f3a428faa8e\n        /* \"verifier.sol\":7558:7885  Pairing.G2Point([uint256(0x1d0fbdcbe033ae751ff714e30bf3a155e23f18c9d62fa572f10a5358ee2b2766), uint256(0x06968ec04f8037b53a5848d9e297889bf94093622dbe3e5395c7724281a6f5ff)], [uint256(0x2ac92ac01cb073e60cac933fc024d20e8667cb926a08db8653368f3a428faa8e), uint256(0x18f6985eda9a5133fdcce2a11f7173aa66b540e72af612bf6394cf881c5cf2c9)]) */\n      dup2\n      mstore\n      0x20\n      add\n        /* \"verifier.sol\":7816:7882  0x18f6985eda9a5133fdcce2a11f7173aa66b540e72af612bf6394cf881c5cf2c9 */\n      0x18f6985eda9a5133fdcce2a11f7173aa66b540e72af612bf6394cf881c5cf2c9\n        /* \"verifier.sol\":7558:7885  Pairing.G2Point([uint256(0x1d0fbdcbe033ae751ff714e30bf3a155e23f18c9d62fa572f10a5358ee2b2766), uint256(0x06968ec04f8037b53a5848d9e297889bf94093622dbe3e5395c7724281a6f5ff)], [uint256(0x2ac92ac01cb073e60cac933fc024d20e8667cb926a08db8653368f3a428faa8e), uint256(0x18f6985eda9a5133fdcce2a11f7173aa66b540e72af612bf6394cf881c5cf2c9)]) */\n      dup2\n      mstore\n      pop\n      dup2\n      mstore\n      pop\n        /* \"verifier.sol\":7547:7549  vk */\n      dup2\n        /* \"verifier.sol\":7547:7555  vk.delta */\n      0x60\n      add\n        /* \"verifier.sol\":7547:7885  vk.delta = Pairing.G2Point([uint256(0x1d0fbdcbe033ae751ff714e30bf3a155e23f18c9d62fa572f10a5358ee2b2766), uint256(0x06968ec04f8037b53a5848d9e297889bf94093622dbe3e5395c7724281a6f5ff)], [uint256(0x2ac92ac01cb073e60cac933fc024d20e8667cb926a08db8653368f3a428faa8e), uint256(0x18f6985eda9a5133fdcce2a11f7173aa66b540e72af612bf6394cf881c5cf2c9)]) */\n      dup2\n      swap1\n      mstore\n      pop\n        /* \"verifier.sol\":7932:7933  2 */\n      0x02\n        /* \"verifier.sol\":7910:7934  new Pairing.G1Point[](2) */\n      0xffffffffffffffff\n      dup2\n      gt\n      iszero\n      tag_55\n      jumpi\n      mstore(0x00, 0x4e487b7100000000000000000000000000000000000000000000000000000000)\n      mstore(0x04, 0x41)\n      revert(0x00, 0x24)\n    tag_55:\n      mload(0x40)\n      swap1\n      dup1\n      dup3\n      mstore\n      dup1\n      0x20\n      mul\n      0x20\n      add\n      dup3\n      add\n      0x40\n      mstore\n      dup1\n      iszero\n      tag_56\n      jumpi\n      dup2\n      0x20\n      add\n    tag_57:\n      tag_58\n      tag_59\n      jump\t// in\n    tag_58:\n      dup2\n      mstore\n      0x20\n      add\n      swap1\n      0x01\n      swap1\n      sub\n      swap1\n      dup2\n      tag_57\n      jumpi\n      swap1\n      pop\n    tag_56:\n      pop\n        /* \"verifier.sol\":7895:7897  vk */\n      dup2\n        /* \"verifier.sol\":7895:7907  vk.gamma_abc */\n      0x80\n      add\n        /* \"verifier.sol\":7895:7934  vk.gamma_abc = new Pairing.G1Point[](2) */\n      dup2\n      swap1\n      mstore\n      pop\n        /* \"verifier.sol\":7962:8131  Pairing.G1Point(uint256(0x1e3ccb3998dfa10d56969bdeef28dbd16178e5189981b1cd1983b2465a2f069b), uint256(0x092d876a47b6aba3c5ddcbd7a9c62244c88ff4104c6f61f86a21ecaf0dc785ad)) */\n      mload(0x40)\n      dup1\n      0x40\n      add\n      0x40\n      mstore\n      dup1\n        /* \"verifier.sol\":7986:8052  0x1e3ccb3998dfa10d56969bdeef28dbd16178e5189981b1cd1983b2465a2f069b */\n      0x1e3ccb3998dfa10d56969bdeef28dbd16178e5189981b1cd1983b2465a2f069b\n        /* \"verifier.sol\":7962:8131  Pairing.G1Point(uint256(0x1e3ccb3998dfa10d56969bdeef28dbd16178e5189981b1cd1983b2465a2f069b), uint256(0x092d876a47b6aba3c5ddcbd7a9c62244c88ff4104c6f61f86a21ecaf0dc785ad)) */\n      dup2\n      mstore\n      0x20\n      add\n        /* \"verifier.sol\":8063:8129  0x092d876a47b6aba3c5ddcbd7a9c62244c88ff4104c6f61f86a21ecaf0dc785ad */\n      0x092d876a47b6aba3c5ddcbd7a9c62244c88ff4104c6f61f86a21ecaf0dc785ad\n        /* \"verifier.sol\":7962:8131  Pairing.G1Point(uint256(0x1e3ccb3998dfa10d56969bdeef28dbd16178e5189981b1cd1983b2465a2f069b), uint256(0x092d876a47b6aba3c5ddcbd7a9c62244c88ff4104c6f61f86a21ecaf0dc785ad)) */\n      dup2\n      mstore\n      pop\n        /* \"verifier.sol\":7944:7946  vk */\n      dup2\n        /* \"verifier.sol\":7944:7956  vk.gamma_abc */\n      0x80\n      add\n      mload\n        /* \"verifier.sol\":7957:7958  0 */\n      0x00\n        /* \"verifier.sol\":7944:7959  vk.gamma_abc[0] */\n      dup2\n      mload\n      dup2\n      lt\n      tag_60\n      jumpi\n      mstore(0x00, 0x4e487b7100000000000000000000000000000000000000000000000000000000)\n      mstore(0x04, 0x32)\n      revert(0x00, 0x24)\n    tag_60:\n      0x20\n      mul\n      0x20\n      add\n      add\n        /* \"verifier.sol\":7944:8131  vk.gamma_abc[0] = Pairing.G1Point(uint256(0x1e3ccb3998dfa10d56969bdeef28dbd16178e5189981b1cd1983b2465a2f069b), uint256(0x092d876a47b6aba3c5ddcbd7a9c62244c88ff4104c6f61f86a21ecaf0dc785ad)) */\n      dup2\n      swap1\n      mstore\n      pop\n        /* \"verifier.sol\":8159:8328  Pairing.G1Point(uint256(0x1410e578a7e2d08388477739739f4cfabcf33c27c6ea674d6ad02f352838f645), uint256(0x0c2829b2514c40dceda8f17102e213c8b12dedd71d73669e642ddea9d1f63de5)) */\n      mload(0x40)\n      dup1\n      0x40\n      add\n      0x40\n      mstore\n      dup1\n        /* \"verifier.sol\":8183:8249  0x1410e578a7e2d08388477739739f4cfabcf33c27c6ea674d6ad02f352838f645 */\n      0x1410e578a7e2d08388477739739f4cfabcf33c27c6ea674d6ad02f352838f645\n        /* \"verifier.sol\":8159:8328  Pairing.G1Point(uint256(0x1410e578a7e2d08388477739739f4cfabcf33c27c6ea674d6ad02f352838f645), uint256(0x0c2829b2514c40dceda8f17102e213c8b12dedd71d73669e642ddea9d1f63de5)) */\n      dup2\n      mstore\n      0x20\n      add\n        /* \"verifier.sol\":8260:8326  0x0c2829b2514c40dceda8f17102e213c8b12dedd71d73669e642ddea9d1f63de5 */\n      0x0c2829b2514c40dceda8f17102e213c8b12dedd71d73669e642ddea9d1f63de5\n        /* \"verifier.sol\":8159:8328  Pairing.G1Point(uint256(0x1410e578a7e2d08388477739739f4cfabcf33c27c6ea674d6ad02f352838f645), uint256(0x0c2829b2514c40dceda8f17102e213c8b12dedd71d73669e642ddea9d1f63de5)) */\n      dup2\n      mstore\n      pop\n        /* \"verifier.sol\":8141:8143  vk */\n      dup2\n        /* \"verifier.sol\":8141:8153  vk.gamma_abc */\n      0x80\n      add\n      mload\n        /* \"verifier.sol\":8154:8155  1 */\n      0x01\n        /* \"verifier.sol\":8141:8156  vk.gamma_abc[1] */\n      dup2\n      mload\n      dup2\n      lt\n      tag_61\n      jumpi\n      mstore(0x00, 0x4e487b7100000000000000000000000000000000000000000000000000000000)\n      mstore(0x04, 0x32)\n      revert(0x00, 0x24)\n    tag_61:\n      0x20\n      mul\n      0x20\n      add\n      add\n        /* \"verifier.sol\":8141:8328  vk.gamma_abc[1] = Pairing.G1Point(uint256(0x1410e578a7e2d08388477739739f4cfabcf33c27c6ea674d6ad02f352838f645), uint256(0x0c2829b2514c40dceda8f17102e213c8b12dedd71d73669e642ddea9d1f63de5)) */\n      dup2\n      swap1\n      mstore\n      pop\n        /* \"verifier.sol\":6581:8335  function verifyingKey() pure internal returns (VerifyingKey memory vk) {... */\n      swap1\n      jump\t// out\n        /* \"verifier.sol\":3082:3536  function scalar_mul(G1Point memory p, uint s) internal view returns (G1Point memory r) {... */\n    tag_40:\n        /* \"verifier.sol\":3151:3167  G1Point memory r */\n      tag_62\n      tag_59\n      jump\t// in\n    tag_62:\n        /* \"verifier.sol\":3179:3199  uint[3] memory input */\n      tag_64\n      tag_65\n      jump\t// in\n    tag_64:\n        /* \"verifier.sol\":3220:3221  p */\n      dup4\n        /* \"verifier.sol\":3220:3223  p.X */\n      0x00\n      add\n      mload\n        /* \"verifier.sol\":3209:3214  input */\n      dup2\n        /* \"verifier.sol\":3215:3216  0 */\n      0x00\n        /* \"verifier.sol\":3209:3217  input[0] */\n      0x03\n      dup2\n      lt\n      tag_66\n      jumpi\n      mstore(0x00, 0x4e487b7100000000000000000000000000000000000000000000000000000000)\n      mstore(0x04, 0x32)\n      revert(0x00, 0x24)\n    tag_66:\n      0x20\n      mul\n      add\n        /* \"verifier.sol\":3209:3223  input[0] = p.X */\n      dup2\n      dup2\n      mstore\n      pop\n      pop\n        /* \"verifier.sol\":3244:3245  p */\n      dup4\n        /* \"verifier.sol\":3244:3247  p.Y */\n      0x20\n      add\n      mload\n        /* \"verifier.sol\":3233:3238  input */\n      dup2\n        /* \"verifier.sol\":3239:3240  1 */\n      0x01\n        /* \"verifier.sol\":3233:3241  input[1] */\n      0x03\n      dup2\n      lt\n      tag_67\n      jumpi\n      mstore(0x00, 0x4e487b7100000000000000000000000000000000000000000000000000000000)\n      mstore(0x04, 0x32)\n      revert(0x00, 0x24)\n    tag_67:\n      0x20\n      mul\n      add\n        /* \"verifier.sol\":3233:3247  input[1] = p.Y */\n      dup2\n      dup2\n      mstore\n      pop\n      pop\n        /* \"verifier.sol\":3268:3269  s */\n      dup3\n        /* \"verifier.sol\":3257:3262  input */\n      dup2\n        /* \"verifier.sol\":3263:3264  2 */\n      0x02\n        /* \"verifier.sol\":3257:3265  input[2] */\n      0x03\n      dup2\n      lt\n      tag_68\n      jumpi\n      mstore(0x00, 0x4e487b7100000000000000000000000000000000000000000000000000000000)\n      mstore(0x04, 0x32)\n      revert(0x00, 0x24)\n    tag_68:\n      0x20\n      mul\n      add\n        /* \"verifier.sol\":3257:3269  input[2] = s */\n      dup2\n      dup2\n      mstore\n      pop\n      pop\n        /* \"verifier.sol\":3279:3291  bool success */\n      0x00\n        /* \"verifier.sol\":3383:3387  0x60 */\n      0x60\n        /* \"verifier.sol\":3380:3381  r */\n      dup4\n        /* \"verifier.sol\":3374:3378  0x80 */\n      0x80\n        /* \"verifier.sol\":3367:3372  input */\n      dup5\n        /* \"verifier.sol\":3364:3365  7 */\n      0x07\n        /* \"verifier.sol\":3357:3361  2000 */\n      0x07d0\n        /* \"verifier.sol\":3350:3355  gas() */\n      gas\n        /* \"verifier.sol\":3346:3362  sub(gas(), 2000) */\n      sub\n        /* \"verifier.sol\":3335:3388  staticcall(sub(gas(), 2000), 7, input, 0x80, r, 0x60) */\n      staticcall\n        /* \"verifier.sol\":3324:3388  success := staticcall(sub(gas(), 2000), 7, input, 0x80, r, 0x60) */\n      swap1\n      pop\n        /* \"verifier.sol\":3465:3472  success */\n      dup1\n        /* \"verifier.sol\":3478:3479  0 */\n      0x00\n        /* \"verifier.sol\":3473:3493  case 0 { invalid() } */\n      dup2\n      eq\n      tag_70\n      jumpi\n        /* \"verifier.sol\":3458:3493  switch success case 0 { invalid() } */\n      jump(tag_69)\n        /* \"verifier.sol\":3473:3493  case 0 { invalid() } */\n    tag_70:\n        /* \"verifier.sol\":3482:3491  invalid() */\n      invalid\n        /* \"verifier.sol\":3458:3493  switch success case 0 { invalid() } */\n    tag_69:\n      pop\n        /* \"verifier.sol\":3521:3528  success */\n      dup1\n        /* \"verifier.sol\":3512:3529  require (success) */\n      tag_71\n      jumpi\n      0x00\n      dup1\n      revert\n    tag_71:\n        /* \"verifier.sol\":3082:3536  function scalar_mul(G1Point memory p, uint s) internal view returns (G1Point memory r) {... */\n      pop\n      pop\n      swap3\n      swap2\n      pop\n      pop\n      jump\t// out\n        /* \"verifier.sol\":2432:2925  function addition(G1Point memory p1, G1Point memory p2) internal view returns (G1Point memory r) {... */\n    tag_41:\n        /* \"verifier.sol\":2511:2527  G1Point memory r */\n      tag_72\n      tag_59\n      jump\t// in\n    tag_72:\n        /* \"verifier.sol\":2539:2559  uint[4] memory input */\n      tag_74\n      tag_75\n      jump\t// in\n    tag_74:\n        /* \"verifier.sol\":2580:2582  p1 */\n      dup4\n        /* \"verifier.sol\":2580:2584  p1.X */\n      0x00\n      add\n      mload\n        /* \"verifier.sol\":2569:2574  input */\n      dup2\n        /* \"verifier.sol\":2575:2576  0 */\n      0x00\n        /* \"verifier.sol\":2569:2577  input[0] */\n      0x04\n      dup2\n      lt\n      tag_76\n      jumpi\n      mstore(0x00, 0x4e487b7100000000000000000000000000000000000000000000000000000000)\n      mstore(0x04, 0x32)\n      revert(0x00, 0x24)\n    tag_76:\n      0x20\n      mul\n      add\n        /* \"verifier.sol\":2569:2584  input[0] = p1.X */\n      dup2\n      dup2\n      mstore\n      pop\n      pop\n        /* \"verifier.sol\":2605:2607  p1 */\n      dup4\n        /* \"verifier.sol\":2605:2609  p1.Y */\n      0x20\n      add\n      mload\n        /* \"verifier.sol\":2594:2599  input */\n      dup2\n        /* \"verifier.sol\":2600:2601  1 */\n      0x01\n        /* \"verifier.sol\":2594:2602  input[1] */\n      0x04\n      dup2\n      lt\n      tag_77\n      jumpi\n      mstore(0x00, 0x4e487b7100000000000000000000000000000000000000000000000000000000)\n      mstore(0x04, 0x32)\n      revert(0x00, 0x24)\n    tag_77:\n      0x20\n      mul\n      add\n        /* \"verifier.sol\":2594:2609  input[1] = p1.Y */\n      dup2\n      dup2\n      mstore\n      pop\n      pop\n        /* \"verifier.sol\":2630:2632  p2 */\n      dup3\n        /* \"verifier.sol\":2630:2634  p2.X */\n      0x00\n      add\n      mload\n        /* \"verifier.sol\":2619:2624  input */\n      dup2\n        /* \"verifier.sol\":2625:2626  2 */\n      0x02\n        /* \"verifier.sol\":2619:2627  input[2] */\n      0x04\n      dup2\n      lt\n      tag_78\n      jumpi\n      mstore(0x00, 0x4e487b7100000000000000000000000000000000000000000000000000000000)\n      mstore(0x04, 0x32)\n      revert(0x00, 0x24)\n    tag_78:\n      0x20\n      mul\n      add\n        /* \"verifier.sol\":2619:2634  input[2] = p2.X */\n      dup2\n      dup2\n      mstore\n      pop\n      pop\n        /* \"verifier.sol\":2655:2657  p2 */\n      dup3\n        /* \"verifier.sol\":2655:2659  p2.Y */\n      0x20\n      add\n      mload\n        /* \"verifier.sol\":2644:2649  input */\n      dup2\n        /* \"verifier.sol\":2650:2651  3 */\n      0x03\n        /* \"verifier.sol\":2644:2652  input[3] */\n      0x04\n      dup2\n      lt\n      tag_79\n      jumpi\n      mstore(0x00, 0x4e487b7100000000000000000000000000000000000000000000000000000000)\n      mstore(0x04, 0x32)\n      revert(0x00, 0x24)\n    tag_79:\n      0x20\n      mul\n      add\n        /* \"verifier.sol\":2644:2659  input[3] = p2.Y */\n      dup2\n      dup2\n      mstore\n      pop\n      pop\n        /* \"verifier.sol\":2669:2681  bool success */\n      0x00\n        /* \"verifier.sol\":2773:2777  0x60 */\n      0x60\n        /* \"verifier.sol\":2770:2771  r */\n      dup4\n        /* \"verifier.sol\":2764:2768  0xc0 */\n      0xc0\n        /* \"verifier.sol\":2757:2762  input */\n      dup5\n        /* \"verifier.sol\":2754:2755  6 */\n      0x06\n        /* \"verifier.sol\":2747:2751  2000 */\n      0x07d0\n        /* \"verifier.sol\":2740:2745  gas() */\n      gas\n        /* \"verifier.sol\":2736:2752  sub(gas(), 2000) */\n      sub\n        /* \"verifier.sol\":2725:2778  staticcall(sub(gas(), 2000), 6, input, 0xc0, r, 0x60) */\n      staticcall\n        /* \"verifier.sol\":2714:2778  success := staticcall(sub(gas(), 2000), 6, input, 0xc0, r, 0x60) */\n      swap1\n      pop\n        /* \"verifier.sol\":2855:2862  success */\n      dup1\n        /* \"verifier.sol\":2868:2869  0 */\n      0x00\n        /* \"verifier.sol\":2863:2883  case 0 { invalid() } */\n      dup2\n      eq\n      tag_81\n      jumpi\n        /* \"verifier.sol\":2848:2883  switch success case 0 { invalid() } */\n      jump(tag_80)\n        /* \"verifier.sol\":2863:2883  case 0 { invalid() } */\n    tag_81:\n        /* \"verifier.sol\":2872:2881  invalid() */\n      invalid\n        /* \"verifier.sol\":2848:2883  switch success case 0 { invalid() } */\n    tag_80:\n      pop\n        /* \"verifier.sol\":2910:2917  success */\n      dup1\n        /* \"verifier.sol\":2902:2918  require(success) */\n      tag_82\n      jumpi\n      0x00\n      dup1\n      revert\n    tag_82:\n        /* \"verifier.sol\":2432:2925  function addition(G1Point memory p1, G1Point memory p2) internal view returns (G1Point memory r) {... */\n      pop\n      pop\n      swap3\n      swap2\n      pop\n      pop\n      jump\t// out\n        /* \"verifier.sol\":2041:2381  function negate(G1Point memory p) pure internal returns (G1Point memory) {... */\n    tag_47:\n        /* \"verifier.sol\":2098:2112  G1Point memory */\n      tag_83\n      tag_59\n      jump\t// in\n    tag_83:\n        /* \"verifier.sol\":2176:2182  uint q */\n      0x00\n        /* \"verifier.sol\":2185:2262  21888242871839275222246405745257275088696311157297823662689037894645226208583 */\n      0x30644e72e131a029b85045b68181585d97816a916871ca8d3c208c16d87cfd47\n        /* \"verifier.sol\":2176:2262  uint q = 21888242871839275222246405745257275088696311157297823662689037894645226208583 */\n      swap1\n      pop\n        /* \"verifier.sol\":2283:2284  0 */\n      0x00\n        /* \"verifier.sol\":2276:2277  p */\n      dup4\n        /* \"verifier.sol\":2276:2279  p.X */\n      0x00\n      add\n      mload\n        /* \"verifier.sol\":2276:2284  p.X == 0 */\n      eq\n        /* \"verifier.sol\":2276:2296  p.X == 0 && p.Y == 0 */\n      dup1\n      iszero\n      tag_85\n      jumpi\n      pop\n        /* \"verifier.sol\":2295:2296  0 */\n      0x00\n        /* \"verifier.sol\":2288:2289  p */\n      dup4\n        /* \"verifier.sol\":2288:2291  p.Y */\n      0x20\n      add\n      mload\n        /* \"verifier.sol\":2288:2296  p.Y == 0 */\n      eq\n        /* \"verifier.sol\":2276:2296  p.X == 0 && p.Y == 0 */\n    tag_85:\n        /* \"verifier.sol\":2272:2330  if (p.X == 0 && p.Y == 0)... */\n      iszero\n      tag_86\n      jumpi\n        /* \"verifier.sol\":2317:2330  G1Point(0, 0) */\n      mload(0x40)\n      dup1\n      0x40\n      add\n      0x40\n      mstore\n      dup1\n        /* \"verifier.sol\":2325:2326  0 */\n      0x00\n        /* \"verifier.sol\":2317:2330  G1Point(0, 0) */\n      dup2\n      mstore\n      0x20\n      add\n        /* \"verifier.sol\":2328:2329  0 */\n      0x00\n        /* \"verifier.sol\":2317:2330  G1Point(0, 0) */\n      dup2\n      mstore\n      pop\n        /* \"verifier.sol\":2310:2330  return G1Point(0, 0) */\n      swap2\n      pop\n      pop\n      jump(tag_84)\n        /* \"verifier.sol\":2272:2330  if (p.X == 0 && p.Y == 0)... */\n    tag_86:\n        /* \"verifier.sol\":2347:2374  G1Point(p.X, q - (p.Y % q)) */\n      mload(0x40)\n      dup1\n      0x40\n      add\n      0x40\n      mstore\n      dup1\n        /* \"verifier.sol\":2355:2356  p */\n      dup5\n        /* \"verifier.sol\":2355:2358  p.X */\n      0x00\n      add\n      mload\n        /* \"verifier.sol\":2347:2374  G1Point(p.X, q - (p.Y % q)) */\n      dup2\n      mstore\n      0x20\n      add\n        /* \"verifier.sol\":2371:2372  q */\n      dup3\n        /* \"verifier.sol\":2365:2366  p */\n      dup6\n        /* \"verifier.sol\":2365:2368  p.Y */\n      0x20\n      add\n      mload\n        /* \"verifier.sol\":2365:2372  p.Y % q */\n      tag_87\n      swap2\n      swap1\n      tag_88\n      jump\t// in\n    tag_87:\n        /* \"verifier.sol\":2360:2361  q */\n      dup4\n        /* \"verifier.sol\":2360:2373  q - (p.Y % q) */\n      tag_89\n      swap2\n      swap1\n      tag_90\n      jump\t// in\n    tag_89:\n        /* \"verifier.sol\":2347:2374  G1Point(p.X, q - (p.Y % q)) */\n      dup2\n      mstore\n      pop\n        /* \"verifier.sol\":2340:2374  return G1Point(p.X, q - (p.Y % q)) */\n      swap2\n      pop\n      pop\n        /* \"verifier.sol\":2041:2381  function negate(G1Point memory p) pure internal returns (G1Point memory) {... */\n    tag_84:\n      swap2\n      swap1\n      pop\n      jump\t// out\n        /* \"verifier.sol\":5678:6230  function pairingProd4(... */\n    tag_50:\n        /* \"verifier.sol\":5929:5933  bool */\n      0x00\n        /* \"verifier.sol\":5945:5964  G1Point[] memory p1 */\n      dup1\n        /* \"verifier.sol\":5981:5982  4 */\n      0x04\n        /* \"verifier.sol\":5967:5983  new G1Point[](4) */\n      0xffffffffffffffff\n      dup2\n      gt\n      iszero\n      tag_92\n      jumpi\n      mstore(0x00, 0x4e487b7100000000000000000000000000000000000000000000000000000000)\n      mstore(0x04, 0x41)\n      revert(0x00, 0x24)\n    tag_92:\n      mload(0x40)\n      swap1\n      dup1\n      dup3\n      mstore\n      dup1\n      0x20\n      mul\n      0x20\n      add\n      dup3\n      add\n      0x40\n      mstore\n      dup1\n      iszero\n      tag_93\n      jumpi\n      dup2\n      0x20\n      add\n    tag_94:\n      tag_95\n      tag_59\n      jump\t// in\n    tag_95:\n      dup2\n      mstore\n      0x20\n      add\n      swap1\n      0x01\n      swap1\n      sub\n      swap1\n      dup2\n      tag_94\n      jumpi\n      swap1\n      pop\n    tag_93:\n      pop\n        /* \"verifier.sol\":5945:5983  G1Point[] memory p1 = new G1Point[](4) */\n      swap1\n      pop\n        /* \"verifier.sol\":5993:6012  G2Point[] memory p2 */\n      0x00\n        /* \"verifier.sol\":6029:6030  4 */\n      0x04\n        /* \"verifier.sol\":6015:6031  new G2Point[](4) */\n      0xffffffffffffffff\n      dup2\n      gt\n      iszero\n      tag_96\n      jumpi\n      mstore(0x00, 0x4e487b7100000000000000000000000000000000000000000000000000000000)\n      mstore(0x04, 0x41)\n      revert(0x00, 0x24)\n    tag_96:\n      mload(0x40)\n      swap1\n      dup1\n      dup3\n      mstore\n      dup1\n      0x20\n      mul\n      0x20\n      add\n      dup3\n      add\n      0x40\n      mstore\n      dup1\n      iszero\n      tag_97\n      jumpi\n      dup2\n      0x20\n      add\n    tag_98:\n      tag_99\n      tag_100\n      jump\t// in\n    tag_99:\n      dup2\n      mstore\n      0x20\n      add\n      swap1\n      0x01\n      swap1\n      sub\n      swap1\n      dup2\n      tag_98\n      jumpi\n      swap1\n      pop\n    tag_97:\n      pop\n        /* \"verifier.sol\":5993:6031  G2Point[] memory p2 = new G2Point[](4) */\n      swap1\n      pop\n        /* \"verifier.sol\":6049:6051  a1 */\n      dup11\n        /* \"verifier.sol\":6041:6043  p1 */\n      dup3\n        /* \"verifier.sol\":6044:6045  0 */\n      0x00\n        /* \"verifier.sol\":6041:6046  p1[0] */\n      dup2\n      mload\n      dup2\n      lt\n      tag_101\n      jumpi\n      mstore(0x00, 0x4e487b7100000000000000000000000000000000000000000000000000000000)\n      mstore(0x04, 0x32)\n      revert(0x00, 0x24)\n    tag_101:\n      0x20\n      mul\n      0x20\n      add\n      add\n        /* \"verifier.sol\":6041:6051  p1[0] = a1 */\n      dup2\n      swap1\n      mstore\n      pop\n        /* \"verifier.sol\":6069:6071  b1 */\n      dup9\n        /* \"verifier.sol\":6061:6063  p1 */\n      dup3\n        /* \"verifier.sol\":6064:6065  1 */\n      0x01\n        /* \"verifier.sol\":6061:6066  p1[1] */\n      dup2\n      mload\n      dup2\n      lt\n      tag_102\n      jumpi\n      mstore(0x00, 0x4e487b7100000000000000000000000000000000000000000000000000000000)\n      mstore(0x04, 0x32)\n      revert(0x00, 0x24)\n    tag_102:\n      0x20\n      mul\n      0x20\n      add\n      add\n        /* \"verifier.sol\":6061:6071  p1[1] = b1 */\n      dup2\n      swap1\n      mstore\n      pop\n        /* \"verifier.sol\":6089:6091  c1 */\n      dup7\n        /* \"verifier.sol\":6081:6083  p1 */\n      dup3\n        /* \"verifier.sol\":6084:6085  2 */\n      0x02\n        /* \"verifier.sol\":6081:6086  p1[2] */\n      dup2\n      mload\n      dup2\n      lt\n      tag_103\n      jumpi\n      mstore(0x00, 0x4e487b7100000000000000000000000000000000000000000000000000000000)\n      mstore(0x04, 0x32)\n      revert(0x00, 0x24)\n    tag_103:\n      0x20\n      mul\n      0x20\n      add\n      add\n        /* \"verifier.sol\":6081:6091  p1[2] = c1 */\n      dup2\n      swap1\n      mstore\n      pop\n        /* \"verifier.sol\":6109:6111  d1 */\n      dup5\n        /* \"verifier.sol\":6101:6103  p1 */\n      dup3\n        /* \"verifier.sol\":6104:6105  3 */\n      0x03\n        /* \"verifier.sol\":6101:6106  p1[3] */\n      dup2\n      mload\n      dup2\n      lt\n      tag_104\n      jumpi\n      mstore(0x00, 0x4e487b7100000000000000000000000000000000000000000000000000000000)\n      mstore(0x04, 0x32)\n      revert(0x00, 0x24)\n    tag_104:\n      0x20\n      mul\n      0x20\n      add\n      add\n        /* \"verifier.sol\":6101:6111  p1[3] = d1 */\n      dup2\n      swap1\n      mstore\n      pop\n        /* \"verifier.sol\":6129:6131  a2 */\n      dup10\n        /* \"verifier.sol\":6121:6123  p2 */\n      dup2\n        /* \"verifier.sol\":6124:6125  0 */\n      0x00\n        /* \"verifier.sol\":6121:6126  p2[0] */\n      dup2\n      mload\n      dup2\n      lt\n      tag_105\n      jumpi\n      mstore(0x00, 0x4e487b7100000000000000000000000000000000000000000000000000000000)\n      mstore(0x04, 0x32)\n      revert(0x00, 0x24)\n    tag_105:\n      0x20\n      mul\n      0x20\n      add\n      add\n        /* \"verifier.sol\":6121:6131  p2[0] = a2 */\n      dup2\n      swap1\n      mstore\n      pop\n        /* \"verifier.sol\":6149:6151  b2 */\n      dup8\n        /* \"verifier.sol\":6141:6143  p2 */\n      dup2\n        /* \"verifier.sol\":6144:6145  1 */\n      0x01\n        /* \"verifier.sol\":6141:6146  p2[1] */\n      dup2\n      mload\n      dup2\n      lt\n      tag_106\n      jumpi\n      mstore(0x00, 0x4e487b7100000000000000000000000000000000000000000000000000000000)\n      mstore(0x04, 0x32)\n      revert(0x00, 0x24)\n    tag_106:\n      0x20\n      mul\n      0x20\n      add\n      add\n        /* \"verifier.sol\":6141:6151  p2[1] = b2 */\n      dup2\n      swap1\n      mstore\n      pop\n        /* \"verifier.sol\":6169:6171  c2 */\n      dup6\n        /* \"verifier.sol\":6161:6163  p2 */\n      dup2\n        /* \"verifier.sol\":6164:6165  2 */\n      0x02\n        /* \"verifier.sol\":6161:6166  p2[2] */\n      dup2\n      mload\n      dup2\n      lt\n      tag_107\n      jumpi\n      mstore(0x00, 0x4e487b7100000000000000000000000000000000000000000000000000000000)\n      mstore(0x04, 0x32)\n      revert(0x00, 0x24)\n    tag_107:\n      0x20\n      mul\n      0x20\n      add\n      add\n        /* \"verifier.sol\":6161:6171  p2[2] = c2 */\n      dup2\n      swap1\n      mstore\n      pop\n        /* \"verifier.sol\":6189:6191  d2 */\n      dup4\n        /* \"verifier.sol\":6181:6183  p2 */\n      dup2\n        /* \"verifier.sol\":6184:6185  3 */\n      0x03\n        /* \"verifier.sol\":6181:6186  p2[3] */\n      dup2\n      mload\n      dup2\n      lt\n      tag_108\n      jumpi\n      mstore(0x00, 0x4e487b7100000000000000000000000000000000000000000000000000000000)\n      mstore(0x04, 0x32)\n      revert(0x00, 0x24)\n    tag_108:\n      0x20\n      mul\n      0x20\n      add\n      add\n        /* \"verifier.sol\":6181:6191  p2[3] = d2 */\n      dup2\n      swap1\n      mstore\n      pop\n        /* \"verifier.sol\":6208:6223  pairing(p1, p2) */\n      tag_109\n        /* \"verifier.sol\":6216:6218  p1 */\n      dup3\n        /* \"verifier.sol\":6220:6222  p2 */\n      dup3\n        /* \"verifier.sol\":6208:6215  pairing */\n      tag_110\n        /* \"verifier.sol\":6208:6223  pairing(p1, p2) */\n      jump\t// in\n    tag_109:\n        /* \"verifier.sol\":6201:6223  return pairing(p1, p2) */\n      swap3\n      pop\n      pop\n      pop\n        /* \"verifier.sol\":5678:6230  function pairingProd4(... */\n      swap9\n      swap8\n      pop\n      pop\n      pop\n      pop\n      pop\n      pop\n      pop\n      pop\n      jump\t// out\n        /* \"verifier.sol\":3747:4670  function pairing(G1Point[] memory p1, G2Point[] memory p2) internal view returns (bool) {... */\n    tag_110:\n        /* \"verifier.sol\":3829:3833  bool */\n      0x00\n        /* \"verifier.sol\":3866:3868  p2 */\n      dup2\n        /* \"verifier.sol\":3866:3875  p2.length */\n      mload\n        /* \"verifier.sol\":3853:3855  p1 */\n      dup4\n        /* \"verifier.sol\":3853:3862  p1.length */\n      mload\n        /* \"verifier.sol\":3853:3875  p1.length == p2.length */\n      eq\n        /* \"verifier.sol\":3845:3876  require(p1.length == p2.length) */\n      tag_112\n      jumpi\n      0x00\n      dup1\n      revert\n    tag_112:\n        /* \"verifier.sol\":3886:3899  uint elements */\n      0x00\n        /* \"verifier.sol\":3902:3904  p1 */\n      dup4\n        /* \"verifier.sol\":3902:3911  p1.length */\n      mload\n        /* \"verifier.sol\":3886:3911  uint elements = p1.length */\n      swap1\n      pop\n        /* \"verifier.sol\":3921:3935  uint inputSize */\n      0x00\n        /* \"verifier.sol\":3949:3950  6 */\n      0x06\n        /* \"verifier.sol\":3938:3946  elements */\n      dup3\n        /* \"verifier.sol\":3938:3950  elements * 6 */\n      tag_113\n      swap2\n      swap1\n      tag_114\n      jump\t// in\n    tag_113:\n        /* \"verifier.sol\":3921:3950  uint inputSize = elements * 6 */\n      swap1\n      pop\n        /* \"verifier.sol\":3960:3979  uint[] memory input */\n      0x00\n        /* \"verifier.sol\":3993:4002  inputSize */\n      dup2\n        /* \"verifier.sol\":3982:4003  new uint[](inputSize) */\n      0xffffffffffffffff\n      dup2\n      gt\n      iszero\n      tag_115\n      jumpi\n      mstore(0x00, 0x4e487b7100000000000000000000000000000000000000000000000000000000)\n      mstore(0x04, 0x41)\n      revert(0x00, 0x24)\n    tag_115:\n      mload(0x40)\n      swap1\n      dup1\n      dup3\n      mstore\n      dup1\n      0x20\n      mul\n      0x20\n      add\n      dup3\n      add\n      0x40\n      mstore\n      dup1\n      iszero\n      tag_116\n      jumpi\n      dup2\n      0x20\n      add\n      0x20\n      dup3\n      mul\n      dup1\n      calldatasize\n      dup4\n      calldatacopy\n      dup1\n      dup3\n      add\n      swap2\n      pop\n      pop\n      swap1\n      pop\n    tag_116:\n      pop\n        /* \"verifier.sol\":3960:4003  uint[] memory input = new uint[](inputSize) */\n      swap1\n      pop\n        /* \"verifier.sol\":4018:4024  uint i */\n      0x00\n        /* \"verifier.sol\":4013:4320  for (uint i = 0; i < elements; i++)... */\n    tag_117:\n        /* \"verifier.sol\":4034:4042  elements */\n      dup4\n        /* \"verifier.sol\":4030:4031  i */\n      dup2\n        /* \"verifier.sol\":4030:4042  i < elements */\n      lt\n        /* \"verifier.sol\":4013:4320  for (uint i = 0; i < elements; i++)... */\n      iszero\n      tag_118\n      jumpi\n        /* \"verifier.sol\":4090:4092  p1 */\n      dup7\n        /* \"verifier.sol\":4093:4094  i */\n      dup2\n        /* \"verifier.sol\":4090:4095  p1[i] */\n      dup2\n      mload\n      dup2\n      lt\n      tag_120\n      jumpi\n      mstore(0x00, 0x4e487b7100000000000000000000000000000000000000000000000000000000)\n      mstore(0x04, 0x32)\n      revert(0x00, 0x24)\n    tag_120:\n      0x20\n      mul\n      0x20\n      add\n      add\n      mload\n        /* \"verifier.sol\":4090:4097  p1[i].X */\n      0x00\n      add\n      mload\n        /* \"verifier.sol\":4071:4076  input */\n      dup3\n        /* \"verifier.sol\":4085:4086  0 */\n      0x00\n        /* \"verifier.sol\":4081:4082  6 */\n      0x06\n        /* \"verifier.sol\":4077:4078  i */\n      dup5\n        /* \"verifier.sol\":4077:4082  i * 6 */\n      tag_121\n      swap2\n      swap1\n      tag_114\n      jump\t// in\n    tag_121:\n        /* \"verifier.sol\":4077:4086  i * 6 + 0 */\n      tag_122\n      swap2\n      swap1\n      tag_28\n      jump\t// in\n    tag_122:\n        /* \"verifier.sol\":4071:4087  input[i * 6 + 0] */\n      dup2\n      mload\n      dup2\n      lt\n      tag_123\n      jumpi\n      mstore(0x00, 0x4e487b7100000000000000000000000000000000000000000000000000000000)\n      mstore(0x04, 0x32)\n      revert(0x00, 0x24)\n    tag_123:\n      0x20\n      mul\n      0x20\n      add\n      add\n        /* \"verifier.sol\":4071:4097  input[i * 6 + 0] = p1[i].X */\n      dup2\n      dup2\n      mstore\n      pop\n      pop\n        /* \"verifier.sol\":4130:4132  p1 */\n      dup7\n        /* \"verifier.sol\":4133:4134  i */\n      dup2\n        /* \"verifier.sol\":4130:4135  p1[i] */\n      dup2\n      mload\n      dup2\n      lt\n      tag_124\n      jumpi\n      mstore(0x00, 0x4e487b7100000000000000000000000000000000000000000000000000000000)\n      mstore(0x04, 0x32)\n      revert(0x00, 0x24)\n    tag_124:\n      0x20\n      mul\n      0x20\n      add\n      add\n      mload\n        /* \"verifier.sol\":4130:4137  p1[i].Y */\n      0x20\n      add\n      mload\n        /* \"verifier.sol\":4111:4116  input */\n      dup3\n        /* \"verifier.sol\":4125:4126  1 */\n      0x01\n        /* \"verifier.sol\":4121:4122  6 */\n      0x06\n        /* \"verifier.sol\":4117:4118  i */\n      dup5\n        /* \"verifier.sol\":4117:4122  i * 6 */\n      tag_125\n      swap2\n      swap1\n      tag_114\n      jump\t// in\n    tag_125:\n        /* \"verifier.sol\":4117:4126  i * 6 + 1 */\n      tag_126\n      swap2\n      swap1\n      tag_28\n      jump\t// in\n    tag_126:\n        /* \"verifier.sol\":4111:4127  input[i * 6 + 1] */\n      dup2\n      mload\n      dup2\n      lt\n      tag_127\n      jumpi\n      mstore(0x00, 0x4e487b7100000000000000000000000000000000000000000000000000000000)\n      mstore(0x04, 0x32)\n      revert(0x00, 0x24)\n    tag_127:\n      0x20\n      mul\n      0x20\n      add\n      add\n        /* \"verifier.sol\":4111:4137  input[i * 6 + 1] = p1[i].Y */\n      dup2\n      dup2\n      mstore\n      pop\n      pop\n        /* \"verifier.sol\":4170:4172  p2 */\n      dup6\n        /* \"verifier.sol\":4173:4174  i */\n      dup2\n        /* \"verifier.sol\":4170:4175  p2[i] */\n      dup2\n      mload\n      dup2\n      lt\n      tag_128\n      jumpi\n      mstore(0x00, 0x4e487b7100000000000000000000000000000000000000000000000000000000)\n      mstore(0x04, 0x32)\n      revert(0x00, 0x24)\n    tag_128:\n      0x20\n      mul\n      0x20\n      add\n      add\n      mload\n        /* \"verifier.sol\":4170:4177  p2[i].X */\n      0x00\n      add\n      mload\n        /* \"verifier.sol\":4178:4179  1 */\n      0x01\n        /* \"verifier.sol\":4170:4180  p2[i].X[1] */\n      0x02\n      dup2\n      lt\n      tag_129\n      jumpi\n      mstore(0x00, 0x4e487b7100000000000000000000000000000000000000000000000000000000)\n      mstore(0x04, 0x32)\n      revert(0x00, 0x24)\n    tag_129:\n      0x20\n      mul\n      add\n      mload\n        /* \"verifier.sol\":4151:4156  input */\n      dup3\n        /* \"verifier.sol\":4165:4166  2 */\n      0x02\n        /* \"verifier.sol\":4161:4162  6 */\n      0x06\n        /* \"verifier.sol\":4157:4158  i */\n      dup5\n        /* \"verifier.sol\":4157:4162  i * 6 */\n      tag_130\n      swap2\n      swap1\n      tag_114\n      jump\t// in\n    tag_130:\n        /* \"verifier.sol\":4157:4166  i * 6 + 2 */\n      tag_131\n      swap2\n      swap1\n      tag_28\n      jump\t// in\n    tag_131:\n        /* \"verifier.sol\":4151:4167  input[i * 6 + 2] */\n      dup2\n      mload\n      dup2\n      lt\n      tag_132\n      jumpi\n      mstore(0x00, 0x4e487b7100000000000000000000000000000000000000000000000000000000)\n      mstore(0x04, 0x32)\n      revert(0x00, 0x24)\n    tag_132:\n      0x20\n      mul\n      0x20\n      add\n      add\n        /* \"verifier.sol\":4151:4180  input[i * 6 + 2] = p2[i].X[1] */\n      dup2\n      dup2\n      mstore\n      pop\n      pop\n        /* \"verifier.sol\":4213:4215  p2 */\n      dup6\n        /* \"verifier.sol\":4216:4217  i */\n      dup2\n        /* \"verifier.sol\":4213:4218  p2[i] */\n      dup2\n      mload\n      dup2\n      lt\n      tag_133\n      jumpi\n      mstore(0x00, 0x4e487b7100000000000000000000000000000000000000000000000000000000)\n      mstore(0x04, 0x32)\n      revert(0x00, 0x24)\n    tag_133:\n      0x20\n      mul\n      0x20\n      add\n      add\n      mload\n        /* \"verifier.sol\":4213:4220  p2[i].X */\n      0x00\n      add\n      mload\n        /* \"verifier.sol\":4221:4222  0 */\n      0x00\n        /* \"verifier.sol\":4213:4223  p2[i].X[0] */\n      0x02\n      dup2\n      lt\n      tag_134\n      jumpi\n      mstore(0x00, 0x4e487b7100000000000000000000000000000000000000000000000000000000)\n      mstore(0x04, 0x32)\n      revert(0x00, 0x24)\n    tag_134:\n      0x20\n      mul\n      add\n      mload\n        /* \"verifier.sol\":4194:4199  input */\n      dup3\n        /* \"verifier.sol\":4208:4209  3 */\n      0x03\n        /* \"verifier.sol\":4204:4205  6 */\n      0x06\n        /* \"verifier.sol\":4200:4201  i */\n      dup5\n        /* \"verifier.sol\":4200:4205  i * 6 */\n      tag_135\n      swap2\n      swap1\n      tag_114\n      jump\t// in\n    tag_135:\n        /* \"verifier.sol\":4200:4209  i * 6 + 3 */\n      tag_136\n      swap2\n      swap1\n      tag_28\n      jump\t// in\n    tag_136:\n        /* \"verifier.sol\":4194:4210  input[i * 6 + 3] */\n      dup2\n      mload\n      dup2\n      lt\n      tag_137\n      jumpi\n      mstore(0x00, 0x4e487b7100000000000000000000000000000000000000000000000000000000)\n      mstore(0x04, 0x32)\n      revert(0x00, 0x24)\n    tag_137:\n      0x20\n      mul\n      0x20\n      add\n      add\n        /* \"verifier.sol\":4194:4223  input[i * 6 + 3] = p2[i].X[0] */\n      dup2\n      dup2\n      mstore\n      pop\n      pop\n        /* \"verifier.sol\":4256:4258  p2 */\n      dup6\n        /* \"verifier.sol\":4259:4260  i */\n      dup2\n        /* \"verifier.sol\":4256:4261  p2[i] */\n      dup2\n      mload\n      dup2\n      lt\n      tag_138\n      jumpi\n      mstore(0x00, 0x4e487b7100000000000000000000000000000000000000000000000000000000)\n      mstore(0x04, 0x32)\n      revert(0x00, 0x24)\n    tag_138:\n      0x20\n      mul\n      0x20\n      add\n      add\n      mload\n        /* \"verifier.sol\":4256:4263  p2[i].Y */\n      0x20\n      add\n      mload\n        /* \"verifier.sol\":4264:4265  1 */\n      0x01\n        /* \"verifier.sol\":4256:4266  p2[i].Y[1] */\n      0x02\n      dup2\n      lt\n      tag_139\n      jumpi\n      mstore(0x00, 0x4e487b7100000000000000000000000000000000000000000000000000000000)\n      mstore(0x04, 0x32)\n      revert(0x00, 0x24)\n    tag_139:\n      0x20\n      mul\n      add\n      mload\n        /* \"verifier.sol\":4237:4242  input */\n      dup3\n        /* \"verifier.sol\":4251:4252  4 */\n      0x04\n        /* \"verifier.sol\":4247:4248  6 */\n      0x06\n        /* \"verifier.sol\":4243:4244  i */\n      dup5\n        /* \"verifier.sol\":4243:4248  i * 6 */\n      tag_140\n      swap2\n      swap1\n      tag_114\n      jump\t// in\n    tag_140:\n        /* \"verifier.sol\":4243:4252  i * 6 + 4 */\n      tag_141\n      swap2\n      swap1\n      tag_28\n      jump\t// in\n    tag_141:\n        /* \"verifier.sol\":4237:4253  input[i * 6 + 4] */\n      dup2\n      mload\n      dup2\n      lt\n      tag_142\n      jumpi\n      mstore(0x00, 0x4e487b7100000000000000000000000000000000000000000000000000000000)\n      mstore(0x04, 0x32)\n      revert(0x00, 0x24)\n    tag_142:\n      0x20\n      mul\n      0x20\n      add\n      add\n        /* \"verifier.sol\":4237:4266  input[i * 6 + 4] = p2[i].Y[1] */\n      dup2\n      dup2\n      mstore\n      pop\n      pop\n        /* \"verifier.sol\":4299:4301  p2 */\n      dup6\n        /* \"verifier.sol\":4302:4303  i */\n      dup2\n        /* \"verifier.sol\":4299:4304  p2[i] */\n      dup2\n      mload\n      dup2\n      lt\n      tag_143\n      jumpi\n      mstore(0x00, 0x4e487b7100000000000000000000000000000000000000000000000000000000)\n      mstore(0x04, 0x32)\n      revert(0x00, 0x24)\n    tag_143:\n      0x20\n      mul\n      0x20\n      add\n      add\n      mload\n        /* \"verifier.sol\":4299:4306  p2[i].Y */\n      0x20\n      add\n      mload\n        /* \"verifier.sol\":4307:4308  0 */\n      0x00\n        /* \"verifier.sol\":4299:4309  p2[i].Y[0] */\n      0x02\n      dup2\n      lt\n      tag_144\n      jumpi\n      mstore(0x00, 0x4e487b7100000000000000000000000000000000000000000000000000000000)\n      mstore(0x04, 0x32)\n      revert(0x00, 0x24)\n    tag_144:\n      0x20\n      mul\n      add\n      mload\n        /* \"verifier.sol\":4280:4285  input */\n      dup3\n        /* \"verifier.sol\":4294:4295  5 */\n      0x05\n        /* \"verifier.sol\":4290:4291  6 */\n      0x06\n        /* \"verifier.sol\":4286:4287  i */\n      dup5\n        /* \"verifier.sol\":4286:4291  i * 6 */\n      tag_145\n      swap2\n      swap1\n      tag_114\n      jump\t// in\n    tag_145:\n        /* \"verifier.sol\":4286:4295  i * 6 + 5 */\n      tag_146\n      swap2\n      swap1\n      tag_28\n      jump\t// in\n    tag_146:\n        /* \"verifier.sol\":4280:4296  input[i * 6 + 5] */\n      dup2\n      mload\n      dup2\n      lt\n      tag_147\n      jumpi\n      mstore(0x00, 0x4e487b7100000000000000000000000000000000000000000000000000000000)\n      mstore(0x04, 0x32)\n      revert(0x00, 0x24)\n    tag_147:\n      0x20\n      mul\n      0x20\n      add\n      add\n        /* \"verifier.sol\":4280:4309  input[i * 6 + 5] = p2[i].Y[0] */\n      dup2\n      dup2\n      mstore\n      pop\n      pop\n        /* \"verifier.sol\":4044:4047  i++ */\n      dup1\n      dup1\n      tag_148\n      swap1\n      tag_19\n      jump\t// in\n    tag_148:\n      swap2\n      pop\n      pop\n        /* \"verifier.sol\":4013:4320  for (uint i = 0; i < elements; i++)... */\n      jump(tag_117)\n    tag_118:\n      pop\n        /* \"verifier.sol\":4329:4347  uint[1] memory out */\n      tag_149\n      tag_150\n      jump\t// in\n    tag_149:\n        /* \"verifier.sol\":4357:4369  bool success */\n      0x00\n        /* \"verifier.sol\":4490:4494  0x20 */\n      0x20\n        /* \"verifier.sol\":4485:4488  out */\n      dup3\n        /* \"verifier.sol\":4478:4482  0x20 */\n      0x20\n        /* \"verifier.sol\":4467:4476  inputSize */\n      dup7\n        /* \"verifier.sol\":4463:4483  mul(inputSize, 0x20) */\n      mul\n        /* \"verifier.sol\":4456:4460  0x20 */\n      0x20\n        /* \"verifier.sol\":4449:4454  input */\n      dup7\n        /* \"verifier.sol\":4445:4461  add(input, 0x20) */\n      add\n        /* \"verifier.sol\":4442:4443  8 */\n      0x08\n        /* \"verifier.sol\":4435:4439  2000 */\n      0x07d0\n        /* \"verifier.sol\":4428:4433  gas() */\n      gas\n        /* \"verifier.sol\":4424:4440  sub(gas(), 2000) */\n      sub\n        /* \"verifier.sol\":4413:4495  staticcall(sub(gas(), 2000), 8, add(input, 0x20), mul(inputSize, 0x20), out, 0x20) */\n      staticcall\n        /* \"verifier.sol\":4402:4495  success := staticcall(sub(gas(), 2000), 8, add(input, 0x20), mul(inputSize, 0x20), out, 0x20) */\n      swap1\n      pop\n        /* \"verifier.sol\":4572:4579  success */\n      dup1\n        /* \"verifier.sol\":4585:4586  0 */\n      0x00\n        /* \"verifier.sol\":4580:4600  case 0 { invalid() } */\n      dup2\n      eq\n      tag_152\n      jumpi\n        /* \"verifier.sol\":4565:4600  switch success case 0 { invalid() } */\n      jump(tag_151)\n        /* \"verifier.sol\":4580:4600  case 0 { invalid() } */\n    tag_152:\n        /* \"verifier.sol\":4589:4598  invalid() */\n      invalid\n        /* \"verifier.sol\":4565:4600  switch success case 0 { invalid() } */\n    tag_151:\n      pop\n        /* \"verifier.sol\":4627:4634  success */\n      dup1\n        /* \"verifier.sol\":4619:4635  require(success) */\n      tag_153\n      jumpi\n      0x00\n      dup1\n      revert\n    tag_153:\n        /* \"verifier.sol\":4662:4663  0 */\n      0x00\n        /* \"verifier.sol\":4652:4655  out */\n      dup3\n        /* \"verifier.sol\":4656:4657  0 */\n      0x00\n        /* \"verifier.sol\":4652:4658  out[0] */\n      0x01\n      dup2\n      lt\n      tag_154\n      jumpi\n      mstore(0x00, 0x4e487b7100000000000000000000000000000000000000000000000000000000)\n      mstore(0x04, 0x32)\n      revert(0x00, 0x24)\n    tag_154:\n      0x20\n      mul\n      add\n      mload\n        /* \"verifier.sol\":4652:4663  out[0] != 0 */\n      eq\n      iszero\n        /* \"verifier.sol\":4645:4663  return out[0] != 0 */\n      swap6\n      pop\n      pop\n      pop\n      pop\n      pop\n      pop\n        /* \"verifier.sol\":3747:4670  function pairing(G1Point[] memory p1, G2Point[] memory p2) internal view returns (bool) {... */\n      swap3\n      swap2\n      pop\n      pop\n      jump\t// out\n    tag_53:\n      mload(0x40)\n      dup1\n      0xa0\n      add\n      0x40\n      mstore\n      dup1\n      tag_155\n      tag_59\n      jump\t// in\n    tag_155:\n      dup2\n      mstore\n      0x20\n      add\n      tag_156\n      tag_100\n      jump\t// in\n    tag_156:\n      dup2\n      mstore\n      0x20\n      add\n      tag_157\n      tag_100\n      jump\t// in\n    tag_157:\n      dup2\n      mstore\n      0x20\n      add\n      tag_158\n      tag_100\n      jump\t// in\n    tag_158:\n      dup2\n      mstore\n      0x20\n      add\n      0x60\n      dup2\n      mstore\n      pop\n      swap1\n      jump\t// out\n    tag_59:\n      mload(0x40)\n      dup1\n      0x40\n      add\n      0x40\n      mstore\n      dup1\n      0x00\n      dup2\n      mstore\n      0x20\n      add\n      0x00\n      dup2\n      mstore\n      pop\n      swap1\n      jump\t// out\n    tag_65:\n      mload(0x40)\n      dup1\n      0x60\n      add\n      0x40\n      mstore\n      dup1\n      0x03\n      swap1\n      0x20\n      dup3\n      mul\n      dup1\n      calldatasize\n      dup4\n      calldatacopy\n      dup1\n      dup3\n      add\n      swap2\n      pop\n      pop\n      swap1\n      pop\n      pop\n      swap1\n      jump\t// out\n    tag_75:\n      mload(0x40)\n      dup1\n      0x80\n      add\n      0x40\n      mstore\n      dup1\n      0x04\n      swap1\n      0x20\n      dup3\n      mul\n      dup1\n      calldatasize\n      dup4\n      calldatacopy\n      dup1\n      dup3\n      add\n      swap2\n      pop\n      pop\n      swap1\n      pop\n      pop\n      swap1\n      jump\t// out\n    tag_100:\n      mload(0x40)\n      dup1\n      0x40\n      add\n      0x40\n      mstore\n      dup1\n      tag_159\n      tag_160\n      jump\t// in\n    tag_159:\n      dup2\n      mstore\n      0x20\n      add\n      tag_161\n      tag_160\n      jump\t// in\n    tag_161:\n      dup2\n      mstore\n      pop\n      swap1\n      jump\t// out\n    tag_150:\n      mload(0x40)\n      dup1\n      0x20\n      add\n      0x40\n      mstore\n      dup1\n      0x01\n      swap1\n      0x20\n      dup3\n      mul\n      dup1\n      calldatasize\n      dup4\n      calldatacopy\n      dup1\n      dup3\n      add\n      swap2\n      pop\n      pop\n      swap1\n      pop\n      pop\n      swap1\n      jump\t// out\n    tag_160:\n      mload(0x40)\n      dup1\n      0x40\n      add\n      0x40\n      mstore\n      dup1\n      0x02\n      swap1\n      0x20\n      dup3\n      mul\n      dup1\n      calldatasize\n      dup4\n      calldatacopy\n      dup1\n      dup3\n      add\n      swap2\n      pop\n      pop\n      swap1\n      pop\n      pop\n      swap1\n      jump\t// out\n        /* \"#utility.yul\":25:590   */\n    tag_163:\n      0x00\n        /* \"#utility.yul\":144:222   */\n      tag_165\n        /* \"#utility.yul\":159:221   */\n      tag_166\n        /* \"#utility.yul\":214:220   */\n      dup5\n        /* \"#utility.yul\":159:221   */\n      tag_167\n      jump\t// in\n    tag_166:\n        /* \"#utility.yul\":144:222   */\n      tag_168\n      jump\t// in\n    tag_165:\n        /* \"#utility.yul\":135:222   */\n      swap1\n      pop\n        /* \"#utility.yul\":242:247   */\n      dup1\n        /* \"#utility.yul\":268:274   */\n      dup3\n        /* \"#utility.yul\":318:321   */\n      dup6\n        /* \"#utility.yul\":310:314   */\n      0x20\n        /* \"#utility.yul\":302:308   */\n      dup7\n        /* \"#utility.yul\":298:315   */\n      mul\n        /* \"#utility.yul\":293:296   */\n      dup3\n        /* \"#utility.yul\":289:316   */\n      add\n        /* \"#utility.yul\":286:322   */\n      gt\n        /* \"#utility.yul\":283:285   */\n      iszero\n      tag_169\n      jumpi\n        /* \"#utility.yul\":335:336   */\n      0x00\n        /* \"#utility.yul\":332:333   */\n      dup1\n        /* \"#utility.yul\":325:337   */\n      revert\n        /* \"#utility.yul\":283:285   */\n    tag_169:\n        /* \"#utility.yul\":363:364   */\n      0x00\n        /* \"#utility.yul\":348:584   */\n    tag_170:\n        /* \"#utility.yul\":373:379   */\n      dup6\n        /* \"#utility.yul\":370:371   */\n      dup2\n        /* \"#utility.yul\":367:380   */\n      lt\n        /* \"#utility.yul\":348:584   */\n      iszero\n      tag_172\n      jumpi\n        /* \"#utility.yul\":440:443   */\n      dup2\n        /* \"#utility.yul\":468:505   */\n      tag_173\n        /* \"#utility.yul\":501:504   */\n      dup9\n        /* \"#utility.yul\":489:499   */\n      dup3\n        /* \"#utility.yul\":468:505   */\n      tag_174\n      jump\t// in\n    tag_173:\n        /* \"#utility.yul\":463:466   */\n      dup5\n        /* \"#utility.yul\":456:506   */\n      mstore\n        /* \"#utility.yul\":535:539   */\n      0x20\n        /* \"#utility.yul\":530:533   */\n      dup5\n        /* \"#utility.yul\":526:540   */\n      add\n        /* \"#utility.yul\":519:540   */\n      swap4\n      pop\n        /* \"#utility.yul\":569:573   */\n      0x20\n        /* \"#utility.yul\":564:567   */\n      dup4\n        /* \"#utility.yul\":560:574   */\n      add\n        /* \"#utility.yul\":553:574   */\n      swap3\n      pop\n        /* \"#utility.yul\":408:584   */\n      pop\n        /* \"#utility.yul\":395:396   */\n      0x01\n        /* \"#utility.yul\":392:393   */\n      dup2\n        /* \"#utility.yul\":388:397   */\n      add\n        /* \"#utility.yul\":383:397   */\n      swap1\n      pop\n        /* \"#utility.yul\":348:584   */\n      jump(tag_170)\n    tag_172:\n        /* \"#utility.yul\":352:366   */\n      pop\n        /* \"#utility.yul\":125:590   */\n      pop\n      pop\n      swap4\n      swap3\n      pop\n      pop\n      pop\n      jump\t// out\n        /* \"#utility.yul\":614:1179   */\n    tag_175:\n      0x00\n        /* \"#utility.yul\":733:811   */\n      tag_177\n        /* \"#utility.yul\":748:810   */\n      tag_178\n        /* \"#utility.yul\":803:809   */\n      dup5\n        /* \"#utility.yul\":748:810   */\n      tag_179\n      jump\t// in\n    tag_178:\n        /* \"#utility.yul\":733:811   */\n      tag_168\n      jump\t// in\n    tag_177:\n        /* \"#utility.yul\":724:811   */\n      swap1\n      pop\n        /* \"#utility.yul\":831:836   */\n      dup1\n        /* \"#utility.yul\":857:863   */\n      dup3\n        /* \"#utility.yul\":907:910   */\n      dup6\n        /* \"#utility.yul\":899:903   */\n      0x20\n        /* \"#utility.yul\":891:897   */\n      dup7\n        /* \"#utility.yul\":887:904   */\n      mul\n        /* \"#utility.yul\":882:885   */\n      dup3\n        /* \"#utility.yul\":878:905   */\n      add\n        /* \"#utility.yul\":875:911   */\n      gt\n        /* \"#utility.yul\":872:874   */\n      iszero\n      tag_180\n      jumpi\n        /* \"#utility.yul\":924:925   */\n      0x00\n        /* \"#utility.yul\":921:922   */\n      dup1\n        /* \"#utility.yul\":914:926   */\n      revert\n        /* \"#utility.yul\":872:874   */\n    tag_180:\n        /* \"#utility.yul\":952:953   */\n      0x00\n        /* \"#utility.yul\":937:1173   */\n    tag_181:\n        /* \"#utility.yul\":962:968   */\n      dup6\n        /* \"#utility.yul\":959:960   */\n      dup2\n        /* \"#utility.yul\":956:969   */\n      lt\n        /* \"#utility.yul\":937:1173   */\n      iszero\n      tag_183\n      jumpi\n        /* \"#utility.yul\":1029:1032   */\n      dup2\n        /* \"#utility.yul\":1057:1094   */\n      tag_184\n        /* \"#utility.yul\":1090:1093   */\n      dup9\n        /* \"#utility.yul\":1078:1088   */\n      dup3\n        /* \"#utility.yul\":1057:1094   */\n      tag_174\n      jump\t// in\n    tag_184:\n        /* \"#utility.yul\":1052:1055   */\n      dup5\n        /* \"#utility.yul\":1045:1095   */\n      mstore\n        /* \"#utility.yul\":1124:1128   */\n      0x20\n        /* \"#utility.yul\":1119:1122   */\n      dup5\n        /* \"#utility.yul\":1115:1129   */\n      add\n        /* \"#utility.yul\":1108:1129   */\n      swap4\n      pop\n        /* \"#utility.yul\":1158:1162   */\n      0x20\n        /* \"#utility.yul\":1153:1156   */\n      dup4\n        /* \"#utility.yul\":1149:1163   */\n      add\n        /* \"#utility.yul\":1142:1163   */\n      swap3\n      pop\n        /* \"#utility.yul\":997:1173   */\n      pop\n        /* \"#utility.yul\":984:985   */\n      0x01\n        /* \"#utility.yul\":981:982   */\n      dup2\n        /* \"#utility.yul\":977:986   */\n      add\n        /* \"#utility.yul\":972:986   */\n      swap1\n      pop\n        /* \"#utility.yul\":937:1173   */\n      jump(tag_181)\n    tag_183:\n        /* \"#utility.yul\":941:955   */\n      pop\n        /* \"#utility.yul\":714:1179   */\n      pop\n      pop\n      swap4\n      swap3\n      pop\n      pop\n      pop\n      jump\t// out\n        /* \"#utility.yul\":1203:1475   */\n    tag_185:\n      0x00\n        /* \"#utility.yul\":1321:1324   */\n      dup3\n        /* \"#utility.yul\":1314:1318   */\n      0x1f\n        /* \"#utility.yul\":1306:1312   */\n      dup4\n        /* \"#utility.yul\":1302:1319   */\n      add\n        /* \"#utility.yul\":1298:1325   */\n      slt\n        /* \"#utility.yul\":1288:1290   */\n      tag_187\n      jumpi\n        /* \"#utility.yul\":1339:1340   */\n      0x00\n        /* \"#utility.yul\":1336:1337   */\n      dup1\n        /* \"#utility.yul\":1329:1341   */\n      revert\n        /* \"#utility.yul\":1288:1290   */\n    tag_187:\n        /* \"#utility.yul\":1366:1370   */\n      0x01\n        /* \"#utility.yul\":1388:1469   */\n      tag_188\n        /* \"#utility.yul\":1465:1468   */\n      dup5\n        /* \"#utility.yul\":1457:1463   */\n      dup3\n        /* \"#utility.yul\":1449:1455   */\n      dup6\n        /* \"#utility.yul\":1388:1469   */\n      tag_163\n      jump\t// in\n    tag_188:\n        /* \"#utility.yul\":1379:1469   */\n      swap2\n      pop\n        /* \"#utility.yul\":1278:1475   */\n      pop\n      swap3\n      swap2\n      pop\n      pop\n      jump\t// out\n        /* \"#utility.yul\":1499:1771   */\n    tag_189:\n      0x00\n        /* \"#utility.yul\":1617:1620   */\n      dup3\n        /* \"#utility.yul\":1610:1614   */\n      0x1f\n        /* \"#utility.yul\":1602:1608   */\n      dup4\n        /* \"#utility.yul\":1598:1615   */\n      add\n        /* \"#utility.yul\":1594:1621   */\n      slt\n        /* \"#utility.yul\":1584:1586   */\n      tag_191\n      jumpi\n        /* \"#utility.yul\":1635:1636   */\n      0x00\n        /* \"#utility.yul\":1632:1633   */\n      dup1\n        /* \"#utility.yul\":1625:1637   */\n      revert\n        /* \"#utility.yul\":1584:1586   */\n    tag_191:\n        /* \"#utility.yul\":1662:1666   */\n      0x02\n        /* \"#utility.yul\":1684:1765   */\n      tag_192\n        /* \"#utility.yul\":1761:1764   */\n      dup5\n        /* \"#utility.yul\":1753:1759   */\n      dup3\n        /* \"#utility.yul\":1745:1751   */\n      dup6\n        /* \"#utility.yul\":1684:1765   */\n      tag_175\n      jump\t// in\n    tag_192:\n        /* \"#utility.yul\":1675:1765   */\n      swap2\n      pop\n        /* \"#utility.yul\":1574:1771   */\n      pop\n      swap3\n      swap2\n      pop\n      pop\n      jump\t// out\n        /* \"#utility.yul\":1807:2304   */\n    tag_193:\n      0x00\n        /* \"#utility.yul\":1922:1926   */\n      0x40\n        /* \"#utility.yul\":1910:1919   */\n      dup3\n        /* \"#utility.yul\":1905:1908   */\n      dup5\n        /* \"#utility.yul\":1901:1920   */\n      sub\n        /* \"#utility.yul\":1897:1927   */\n      slt\n        /* \"#utility.yul\":1894:1896   */\n      iszero\n      tag_195\n      jumpi\n        /* \"#utility.yul\":1940:1941   */\n      0x00\n        /* \"#utility.yul\":1937:1938   */\n      dup1\n        /* \"#utility.yul\":1930:1942   */\n      revert\n        /* \"#utility.yul\":1894:1896   */\n    tag_195:\n        /* \"#utility.yul\":1962:1982   */\n      tag_196\n        /* \"#utility.yul\":1977:1981   */\n      0x40\n        /* \"#utility.yul\":1962:1982   */\n      tag_168\n      jump\t// in\n    tag_196:\n        /* \"#utility.yul\":1953:1982   */\n      swap1\n      pop\n        /* \"#utility.yul\":2038:2039   */\n      0x00\n        /* \"#utility.yul\":2078:2127   */\n      tag_197\n        /* \"#utility.yul\":2123:2126   */\n      dup5\n        /* \"#utility.yul\":2114:2120   */\n      dup3\n        /* \"#utility.yul\":2103:2112   */\n      dup6\n        /* \"#utility.yul\":2099:2121   */\n      add\n        /* \"#utility.yul\":2078:2127   */\n      tag_174\n      jump\t// in\n    tag_197:\n        /* \"#utility.yul\":2071:2075   */\n      0x00\n        /* \"#utility.yul\":2064:2069   */\n      dup4\n        /* \"#utility.yul\":2060:2076   */\n      add\n        /* \"#utility.yul\":2053:2128   */\n      mstore\n        /* \"#utility.yul\":1992:2139   */\n      pop\n        /* \"#utility.yul\":2195:2197   */\n      0x20\n        /* \"#utility.yul\":2236:2285   */\n      tag_198\n        /* \"#utility.yul\":2281:2284   */\n      dup5\n        /* \"#utility.yul\":2272:2278   */\n      dup3\n        /* \"#utility.yul\":2261:2270   */\n      dup6\n        /* \"#utility.yul\":2257:2279   */\n      add\n        /* \"#utility.yul\":2236:2285   */\n      tag_174\n      jump\t// in\n    tag_198:\n        /* \"#utility.yul\":2229:2233   */\n      0x20\n        /* \"#utility.yul\":2222:2227   */\n      dup4\n        /* \"#utility.yul\":2218:2234   */\n      add\n        /* \"#utility.yul\":2211:2286   */\n      mstore\n        /* \"#utility.yul\":2149:2297   */\n      pop\n        /* \"#utility.yul\":1884:2304   */\n      swap3\n      swap2\n      pop\n      pop\n      jump\t// out\n        /* \"#utility.yul\":2340:2884   */\n    tag_199:\n      0x00\n        /* \"#utility.yul\":2456:2460   */\n      0x80\n        /* \"#utility.yul\":2444:2453   */\n      dup3\n        /* \"#utility.yul\":2439:2442   */\n      dup5\n        /* \"#utility.yul\":2435:2454   */\n      sub\n        /* \"#utility.yul\":2431:2461   */\n      slt\n        /* \"#utility.yul\":2428:2430   */\n      iszero\n      tag_201\n      jumpi\n        /* \"#utility.yul\":2474:2475   */\n      0x00\n        /* \"#utility.yul\":2471:2472   */\n      dup1\n        /* \"#utility.yul\":2464:2476   */\n      revert\n        /* \"#utility.yul\":2428:2430   */\n    tag_201:\n        /* \"#utility.yul\":2496:2516   */\n      tag_202\n        /* \"#utility.yul\":2511:2515   */\n      0x40\n        /* \"#utility.yul\":2496:2516   */\n      tag_168\n      jump\t// in\n    tag_202:\n        /* \"#utility.yul\":2487:2516   */\n      swap1\n      pop\n        /* \"#utility.yul\":2572:2573   */\n      0x00\n        /* \"#utility.yul\":2612:2684   */\n      tag_203\n        /* \"#utility.yul\":2680:2683   */\n      dup5\n        /* \"#utility.yul\":2671:2677   */\n      dup3\n        /* \"#utility.yul\":2660:2669   */\n      dup6\n        /* \"#utility.yul\":2656:2678   */\n      add\n        /* \"#utility.yul\":2612:2684   */\n      tag_189\n      jump\t// in\n    tag_203:\n        /* \"#utility.yul\":2605:2609   */\n      0x00\n        /* \"#utility.yul\":2598:2603   */\n      dup4\n        /* \"#utility.yul\":2594:2610   */\n      add\n        /* \"#utility.yul\":2587:2685   */\n      mstore\n        /* \"#utility.yul\":2526:2696   */\n      pop\n        /* \"#utility.yul\":2752:2754   */\n      0x40\n        /* \"#utility.yul\":2793:2865   */\n      tag_204\n        /* \"#utility.yul\":2861:2864   */\n      dup5\n        /* \"#utility.yul\":2852:2858   */\n      dup3\n        /* \"#utility.yul\":2841:2850   */\n      dup6\n        /* \"#utility.yul\":2837:2859   */\n      add\n        /* \"#utility.yul\":2793:2865   */\n      tag_189\n      jump\t// in\n    tag_204:\n        /* \"#utility.yul\":2786:2790   */\n      0x20\n        /* \"#utility.yul\":2779:2784   */\n      dup4\n        /* \"#utility.yul\":2775:2791   */\n      add\n        /* \"#utility.yul\":2768:2866   */\n      mstore\n        /* \"#utility.yul\":2706:2877   */\n      pop\n        /* \"#utility.yul\":2418:2884   */\n      swap3\n      swap2\n      pop\n      pop\n      jump\t// out\n        /* \"#utility.yul\":2919:3644   */\n    tag_205:\n      0x00\n        /* \"#utility.yul\":3034:3040   */\n      0x0100\n        /* \"#utility.yul\":3022:3031   */\n      dup3\n        /* \"#utility.yul\":3017:3020   */\n      dup5\n        /* \"#utility.yul\":3013:3032   */\n      sub\n        /* \"#utility.yul\":3009:3041   */\n      slt\n        /* \"#utility.yul\":3006:3008   */\n      iszero\n      tag_207\n      jumpi\n        /* \"#utility.yul\":3054:3055   */\n      0x00\n        /* \"#utility.yul\":3051:3052   */\n      dup1\n        /* \"#utility.yul\":3044:3056   */\n      revert\n        /* \"#utility.yul\":3006:3008   */\n    tag_207:\n        /* \"#utility.yul\":3076:3096   */\n      tag_208\n        /* \"#utility.yul\":3091:3095   */\n      0x60\n        /* \"#utility.yul\":3076:3096   */\n      tag_168\n      jump\t// in\n    tag_208:\n        /* \"#utility.yul\":3067:3096   */\n      swap1\n      pop\n        /* \"#utility.yul\":3152:3153   */\n      0x00\n        /* \"#utility.yul\":3192:3263   */\n      tag_209\n        /* \"#utility.yul\":3259:3262   */\n      dup5\n        /* \"#utility.yul\":3250:3256   */\n      dup3\n        /* \"#utility.yul\":3239:3248   */\n      dup6\n        /* \"#utility.yul\":3235:3257   */\n      add\n        /* \"#utility.yul\":3192:3263   */\n      tag_193\n      jump\t// in\n    tag_209:\n        /* \"#utility.yul\":3185:3189   */\n      0x00\n        /* \"#utility.yul\":3178:3183   */\n      dup4\n        /* \"#utility.yul\":3174:3190   */\n      add\n        /* \"#utility.yul\":3167:3264   */\n      mstore\n        /* \"#utility.yul\":3106:3275   */\n      pop\n        /* \"#utility.yul\":3331:3333   */\n      0x40\n        /* \"#utility.yul\":3372:3444   */\n      tag_210\n        /* \"#utility.yul\":3440:3443   */\n      dup5\n        /* \"#utility.yul\":3431:3437   */\n      dup3\n        /* \"#utility.yul\":3420:3429   */\n      dup6\n        /* \"#utility.yul\":3416:3438   */\n      add\n        /* \"#utility.yul\":3372:3444   */\n      tag_199\n      jump\t// in\n    tag_210:\n        /* \"#utility.yul\":3365:3369   */\n      0x20\n        /* \"#utility.yul\":3358:3363   */\n      dup4\n        /* \"#utility.yul\":3354:3370   */\n      add\n        /* \"#utility.yul\":3347:3445   */\n      mstore\n        /* \"#utility.yul\":3285:3456   */\n      pop\n        /* \"#utility.yul\":3512:3515   */\n      0xc0\n        /* \"#utility.yul\":3554:3625   */\n      tag_211\n        /* \"#utility.yul\":3621:3624   */\n      dup5\n        /* \"#utility.yul\":3612:3618   */\n      dup3\n        /* \"#utility.yul\":3601:3610   */\n      dup6\n        /* \"#utility.yul\":3597:3619   */\n      add\n        /* \"#utility.yul\":3554:3625   */\n      tag_193\n      jump\t// in\n    tag_211:\n        /* \"#utility.yul\":3547:3551   */\n      0x40\n        /* \"#utility.yul\":3540:3545   */\n      dup4\n        /* \"#utility.yul\":3536:3552   */\n      add\n        /* \"#utility.yul\":3529:3626   */\n      mstore\n        /* \"#utility.yul\":3466:3637   */\n      pop\n        /* \"#utility.yul\":2996:3644   */\n      swap3\n      swap2\n      pop\n      pop\n      jump\t// out\n        /* \"#utility.yul\":3650:3789   */\n    tag_174:\n      0x00\n        /* \"#utility.yul\":3734:3740   */\n      dup2\n        /* \"#utility.yul\":3721:3741   */\n      calldataload\n        /* \"#utility.yul\":3712:3741   */\n      swap1\n      pop\n        /* \"#utility.yul\":3750:3783   */\n      tag_213\n        /* \"#utility.yul\":3777:3782   */\n      dup2\n        /* \"#utility.yul\":3750:3783   */\n      tag_214\n      jump\t// in\n    tag_213:\n        /* \"#utility.yul\":3702:3789   */\n      swap3\n      swap2\n      pop\n      pop\n      jump\t// out\n        /* \"#utility.yul\":3795:4294   */\n    tag_6:\n      0x00\n      dup1\n        /* \"#utility.yul\":3965:3968   */\n      0x0120\n        /* \"#utility.yul\":3953:3962   */\n      dup4\n        /* \"#utility.yul\":3944:3951   */\n      dup6\n        /* \"#utility.yul\":3940:3963   */\n      sub\n        /* \"#utility.yul\":3936:3969   */\n      slt\n        /* \"#utility.yul\":3933:3935   */\n      iszero\n      tag_216\n      jumpi\n        /* \"#utility.yul\":3982:3983   */\n      0x00\n        /* \"#utility.yul\":3979:3980   */\n      dup1\n        /* \"#utility.yul\":3972:3984   */\n      revert\n        /* \"#utility.yul\":3933:3935   */\n    tag_216:\n        /* \"#utility.yul\":4025:4026   */\n      0x00\n        /* \"#utility.yul\":4050:4125   */\n      tag_217\n        /* \"#utility.yul\":4117:4124   */\n      dup6\n        /* \"#utility.yul\":4108:4114   */\n      dup3\n        /* \"#utility.yul\":4097:4106   */\n      dup7\n        /* \"#utility.yul\":4093:4115   */\n      add\n        /* \"#utility.yul\":4050:4125   */\n      tag_205\n      jump\t// in\n    tag_217:\n        /* \"#utility.yul\":4040:4125   */\n      swap3\n      pop\n        /* \"#utility.yul\":3996:4135   */\n      pop\n        /* \"#utility.yul\":4174:4177   */\n      0x0100\n        /* \"#utility.yul\":4201:4277   */\n      tag_218\n        /* \"#utility.yul\":4269:4276   */\n      dup6\n        /* \"#utility.yul\":4260:4266   */\n      dup3\n        /* \"#utility.yul\":4249:4258   */\n      dup7\n        /* \"#utility.yul\":4245:4267   */\n      add\n        /* \"#utility.yul\":4201:4277   */\n      tag_185\n      jump\t// in\n    tag_218:\n        /* \"#utility.yul\":4191:4277   */\n      swap2\n      pop\n        /* \"#utility.yul\":4145:4287   */\n      pop\n        /* \"#utility.yul\":3923:4294   */\n      swap3\n      pop\n      swap3\n      swap1\n      pop\n      jump\t// out\n        /* \"#utility.yul\":4300:4409   */\n    tag_219:\n        /* \"#utility.yul\":4381:4402   */\n      tag_221\n        /* \"#utility.yul\":4396:4401   */\n      dup2\n        /* \"#utility.yul\":4381:4402   */\n      tag_222\n      jump\t// in\n    tag_221:\n        /* \"#utility.yul\":4376:4379   */\n      dup3\n        /* \"#utility.yul\":4369:4403   */\n      mstore\n        /* \"#utility.yul\":4359:4409   */\n      pop\n      pop\n      jump\t// out\n        /* \"#utility.yul\":4415:4625   */\n    tag_9:\n      0x00\n        /* \"#utility.yul\":4540:4542   */\n      0x20\n        /* \"#utility.yul\":4529:4538   */\n      dup3\n        /* \"#utility.yul\":4525:4543   */\n      add\n        /* \"#utility.yul\":4517:4543   */\n      swap1\n      pop\n        /* \"#utility.yul\":4553:4618   */\n      tag_224\n        /* \"#utility.yul\":4615:4616   */\n      0x00\n        /* \"#utility.yul\":4604:4613   */\n      dup4\n        /* \"#utility.yul\":4600:4617   */\n      add\n        /* \"#utility.yul\":4591:4597   */\n      dup5\n        /* \"#utility.yul\":4553:4618   */\n      tag_219\n      jump\t// in\n    tag_224:\n        /* \"#utility.yul\":4507:4625   */\n      swap3\n      swap2\n      pop\n      pop\n      jump\t// out\n        /* \"#utility.yul\":4631:4914   */\n    tag_168:\n      0x00\n        /* \"#utility.yul\":4697:4699   */\n      0x40\n        /* \"#utility.yul\":4691:4700   */\n      mload\n        /* \"#utility.yul\":4681:4700   */\n      swap1\n      pop\n        /* \"#utility.yul\":4739:4743   */\n      dup2\n        /* \"#utility.yul\":4731:4737   */\n      dup2\n        /* \"#utility.yul\":4727:4744   */\n      add\n        /* \"#utility.yul\":4846:4852   */\n      dup2\n        /* \"#utility.yul\":4834:4844   */\n      dup2\n        /* \"#utility.yul\":4831:4853   */\n      lt\n        /* \"#utility.yul\":4810:4828   */\n      0xffffffffffffffff\n        /* \"#utility.yul\":4798:4808   */\n      dup3\n        /* \"#utility.yul\":4795:4829   */\n      gt\n        /* \"#utility.yul\":4792:4854   */\n      or\n        /* \"#utility.yul\":4789:4791   */\n      iszero\n      tag_226\n      jumpi\n        /* \"#utility.yul\":4857:4875   */\n      tag_227\n      tag_228\n      jump\t// in\n    tag_227:\n        /* \"#utility.yul\":4789:4791   */\n    tag_226:\n        /* \"#utility.yul\":4897:4907   */\n      dup1\n        /* \"#utility.yul\":4893:4895   */\n      0x40\n        /* \"#utility.yul\":4886:4908   */\n      mstore\n        /* \"#utility.yul\":4671:4914   */\n      pop\n      swap2\n      swap1\n      pop\n      jump\t// out\n        /* \"#utility.yul\":4920:5169   */\n    tag_167:\n      0x00\n        /* \"#utility.yul\":5085:5103   */\n      0xffffffffffffffff\n        /* \"#utility.yul\":5077:5083   */\n      dup3\n        /* \"#utility.yul\":5074:5104   */\n      gt\n        /* \"#utility.yul\":5071:5073   */\n      iszero\n      tag_230\n      jumpi\n        /* \"#utility.yul\":5107:5125   */\n      tag_231\n      tag_228\n      jump\t// in\n    tag_231:\n        /* \"#utility.yul\":5071:5073   */\n    tag_230:\n        /* \"#utility.yul\":5157:5161   */\n      0x20\n        /* \"#utility.yul\":5149:5155   */\n      dup3\n        /* \"#utility.yul\":5145:5162   */\n      mul\n        /* \"#utility.yul\":5137:5162   */\n      swap1\n      pop\n        /* \"#utility.yul\":5000:5169   */\n      swap2\n      swap1\n      pop\n      jump\t// out\n        /* \"#utility.yul\":5175:5424   */\n    tag_179:\n      0x00\n        /* \"#utility.yul\":5340:5358   */\n      0xffffffffffffffff\n        /* \"#utility.yul\":5332:5338   */\n      dup3\n        /* \"#utility.yul\":5329:5359   */\n      gt\n        /* \"#utility.yul\":5326:5328   */\n      iszero\n      tag_233\n      jumpi\n        /* \"#utility.yul\":5362:5380   */\n      tag_234\n      tag_228\n      jump\t// in\n    tag_234:\n        /* \"#utility.yul\":5326:5328   */\n    tag_233:\n        /* \"#utility.yul\":5412:5416   */\n      0x20\n        /* \"#utility.yul\":5404:5410   */\n      dup3\n        /* \"#utility.yul\":5400:5417   */\n      mul\n        /* \"#utility.yul\":5392:5417   */\n      swap1\n      pop\n        /* \"#utility.yul\":5255:5424   */\n      swap2\n      swap1\n      pop\n      jump\t// out\n        /* \"#utility.yul\":5430:5735   */\n    tag_28:\n      0x00\n        /* \"#utility.yul\":5489:5509   */\n      tag_236\n        /* \"#utility.yul\":5507:5508   */\n      dup3\n        /* \"#utility.yul\":5489:5509   */\n      tag_237\n      jump\t// in\n    tag_236:\n        /* \"#utility.yul\":5484:5509   */\n      swap2\n      pop\n        /* \"#utility.yul\":5523:5543   */\n      tag_238\n        /* \"#utility.yul\":5541:5542   */\n      dup4\n        /* \"#utility.yul\":5523:5543   */\n      tag_237\n      jump\t// in\n    tag_238:\n        /* \"#utility.yul\":5518:5543   */\n      swap3\n      pop\n        /* \"#utility.yul\":5677:5678   */\n      dup3\n        /* \"#utility.yul\":5609:5675   */\n      0xffffffffffffffffffffffffffffffffffffffffffffffffffffffffffffffff\n        /* \"#utility.yul\":5605:5679   */\n      sub\n        /* \"#utility.yul\":5602:5603   */\n      dup3\n        /* \"#utility.yul\":5599:5680   */\n      gt\n        /* \"#utility.yul\":5596:5598   */\n      iszero\n      tag_239\n      jumpi\n        /* \"#utility.yul\":5683:5701   */\n      tag_240\n      tag_241\n      jump\t// in\n    tag_240:\n        /* \"#utility.yul\":5596:5598   */\n    tag_239:\n        /* \"#utility.yul\":5727:5728   */\n      dup3\n        /* \"#utility.yul\":5724:5725   */\n      dup3\n        /* \"#utility.yul\":5720:5729   */\n      add\n        /* \"#utility.yul\":5713:5729   */\n      swap1\n      pop\n        /* \"#utility.yul\":5474:5735   */\n      swap3\n      swap2\n      pop\n      pop\n      jump\t// out\n        /* \"#utility.yul\":5741:6089   */\n    tag_114:\n      0x00\n        /* \"#utility.yul\":5804:5824   */\n      tag_243\n        /* \"#utility.yul\":5822:5823   */\n      dup3\n        /* \"#utility.yul\":5804:5824   */\n      tag_237\n      jump\t// in\n    tag_243:\n        /* \"#utility.yul\":5799:5824   */\n      swap2\n      pop\n        /* \"#utility.yul\":5838:5858   */\n      tag_244\n        /* \"#utility.yul\":5856:5857   */\n      dup4\n        /* \"#utility.yul\":5838:5858   */\n      tag_237\n      jump\t// in\n    tag_244:\n        /* \"#utility.yul\":5833:5858   */\n      swap3\n      pop\n        /* \"#utility.yul\":6026:6027   */\n      dup2\n        /* \"#utility.yul\":5958:6024   */\n      0xffffffffffffffffffffffffffffffffffffffffffffffffffffffffffffffff\n        /* \"#utility.yul\":5954:6028   */\n      div\n        /* \"#utility.yul\":5951:5952   */\n      dup4\n        /* \"#utility.yul\":5948:6029   */\n      gt\n        /* \"#utility.yul\":5943:5944   */\n      dup3\n        /* \"#utility.yul\":5936:5945   */\n      iszero\n        /* \"#utility.yul\":5929:5946   */\n      iszero\n        /* \"#utility.yul\":5925:6030   */\n      and\n        /* \"#utility.yul\":5922:5924   */\n      iszero\n      tag_245\n      jumpi\n        /* \"#utility.yul\":6033:6051   */\n      tag_246\n      tag_241\n      jump\t// in\n    tag_246:\n        /* \"#utility.yul\":5922:5924   */\n    tag_245:\n        /* \"#utility.yul\":6081:6082   */\n      dup3\n        /* \"#utility.yul\":6078:6079   */\n      dup3\n        /* \"#utility.yul\":6074:6083   */\n      mul\n        /* \"#utility.yul\":6063:6083   */\n      swap1\n      pop\n        /* \"#utility.yul\":5789:6089   */\n      swap3\n      swap2\n      pop\n      pop\n      jump\t// out\n        /* \"#utility.yul\":6095:6286   */\n    tag_90:\n      0x00\n        /* \"#utility.yul\":6155:6175   */\n      tag_248\n        /* \"#utility.yul\":6173:6174   */\n      dup3\n        /* \"#utility.yul\":6155:6175   */\n      tag_237\n      jump\t// in\n    tag_248:\n        /* \"#utility.yul\":6150:6175   */\n      swap2\n      pop\n        /* \"#utility.yul\":6189:6209   */\n      tag_249\n        /* \"#utility.yul\":6207:6208   */\n      dup4\n        /* \"#utility.yul\":6189:6209   */\n      tag_237\n      jump\t// in\n    tag_249:\n        /* \"#utility.yul\":6184:6209   */\n      swap3\n      pop\n        /* \"#utility.yul\":6228:6229   */\n      dup3\n        /* \"#utility.yul\":6225:6226   */\n      dup3\n        /* \"#utility.yul\":6222:6230   */\n      lt\n        /* \"#utility.yul\":6219:6221   */\n      iszero\n      tag_250\n      jumpi\n        /* \"#utility.yul\":6233:6251   */\n      tag_251\n      tag_241\n      jump\t// in\n    tag_251:\n        /* \"#utility.yul\":6219:6221   */\n    tag_250:\n        /* \"#utility.yul\":6278:6279   */\n      dup3\n        /* \"#utility.yul\":6275:6276   */\n      dup3\n        /* \"#utility.yul\":6271:6280   */\n      sub\n        /* \"#utility.yul\":6263:6280   */\n      swap1\n      pop\n        /* \"#utility.yul\":6140:6286   */\n      swap3\n      swap2\n      pop\n      pop\n      jump\t// out\n        /* \"#utility.yul\":6292:6382   */\n    tag_222:\n      0x00\n        /* \"#utility.yul\":6369:6374   */\n      dup2\n        /* \"#utility.yul\":6362:6375   */\n      iszero\n        /* \"#utility.yul\":6355:6376   */\n      iszero\n        /* \"#utility.yul\":6344:6376   */\n      swap1\n      pop\n        /* \"#utility.yul\":6334:6382   */\n      swap2\n      swap1\n      pop\n      jump\t// out\n        /* \"#utility.yul\":6388:6465   */\n    tag_237:\n      0x00\n        /* \"#utility.yul\":6454:6459   */\n      dup2\n        /* \"#utility.yul\":6443:6459   */\n      swap1\n      pop\n        /* \"#utility.yul\":6433:6465   */\n      swap2\n      swap1\n      pop\n      jump\t// out\n        /* \"#utility.yul\":6471:6704   */\n    tag_19:\n      0x00\n        /* \"#utility.yul\":6533:6557   */\n      tag_255\n        /* \"#utility.yul\":6551:6556   */\n      dup3\n        /* \"#utility.yul\":6533:6557   */\n      tag_237\n      jump\t// in\n    tag_255:\n        /* \"#utility.yul\":6524:6557   */\n      swap2\n      pop\n        /* \"#utility.yul\":6579:6645   */\n      0xffffffffffffffffffffffffffffffffffffffffffffffffffffffffffffffff\n        /* \"#utility.yul\":6572:6577   */\n      dup3\n        /* \"#utility.yul\":6569:6646   */\n      eq\n        /* \"#utility.yul\":6566:6568   */\n      iszero\n      tag_256\n      jumpi\n        /* \"#utility.yul\":6649:6667   */\n      tag_257\n      tag_241\n      jump\t// in\n    tag_257:\n        /* \"#utility.yul\":6566:6568   */\n    tag_256:\n        /* \"#utility.yul\":6696:6697   */\n      0x01\n        /* \"#utility.yul\":6689:6694   */\n      dup3\n        /* \"#utility.yul\":6685:6698   */\n      add\n        /* \"#utility.yul\":6678:6698   */\n      swap1\n      pop\n        /* \"#utility.yul\":6514:6704   */\n      swap2\n      swap1\n      pop\n      jump\t// out\n        /* \"#utility.yul\":6710:6886   */\n    tag_88:\n      0x00\n        /* \"#utility.yul\":6759:6779   */\n      tag_259\n        /* \"#utility.yul\":6777:6778   */\n      dup3\n        /* \"#utility.yul\":6759:6779   */\n      tag_237\n      jump\t// in\n    tag_259:\n        /* \"#utility.yul\":6754:6779   */\n      swap2\n      pop\n        /* \"#utility.yul\":6793:6813   */\n      tag_260\n        /* \"#utility.yul\":6811:6812   */\n      dup4\n        /* \"#utility.yul\":6793:6813   */\n      tag_237\n      jump\t// in\n    tag_260:\n        /* \"#utility.yul\":6788:6813   */\n      swap3\n      pop\n        /* \"#utility.yul\":6832:6833   */\n      dup3\n        /* \"#utility.yul\":6822:6824   */\n      tag_261\n      jumpi\n        /* \"#utility.yul\":6837:6855   */\n      tag_262\n      tag_263\n      jump\t// in\n    tag_262:\n        /* \"#utility.yul\":6822:6824   */\n    tag_261:\n        /* \"#utility.yul\":6878:6879   */\n      dup3\n        /* \"#utility.yul\":6875:6876   */\n      dup3\n        /* \"#utility.yul\":6871:6880   */\n      mod\n        /* \"#utility.yul\":6866:6880   */\n      swap1\n      pop\n        /* \"#utility.yul\":6744:6886   */\n      swap3\n      swap2\n      pop\n      pop\n      jump\t// out\n        /* \"#utility.yul\":6892:7072   */\n    tag_241:\n        /* \"#utility.yul\":6940:7017   */\n      0x4e487b7100000000000000000000000000000000000000000000000000000000\n        /* \"#utility.yul\":6937:6938   */\n      0x00\n        /* \"#utility.yul\":6930:7018   */\n      mstore\n        /* \"#utility.yul\":7037:7041   */\n      0x11\n        /* \"#utility.yul\":7034:7035   */\n      0x04\n        /* \"#utility.yul\":7027:7042   */\n      mstore\n        /* \"#utility.yul\":7061:7065   */\n      0x24\n        /* \"#utility.yul\":7058:7059   */\n      0x00\n        /* \"#utility.yul\":7051:7066   */\n      revert\n        /* \"#utility.yul\":7078:7258   */\n    tag_263:\n        /* \"#utility.yul\":7126:7203   */\n      0x4e487b7100000000000000000000000000000000000000000000000000000000\n        /* \"#utility.yul\":7123:7124   */\n      0x00\n        /* \"#utility.yul\":7116:7204   */\n      mstore\n        /* \"#utility.yul\":7223:7227   */\n      0x12\n        /* \"#utility.yul\":7220:7221   */\n      0x04\n        /* \"#utility.yul\":7213:7228   */\n      mstore\n        /* \"#utility.yul\":7247:7251   */\n      0x24\n        /* \"#utility.yul\":7244:7245   */\n      0x00\n        /* \"#utility.yul\":7237:7252   */\n      revert\n        /* \"#utility.yul\":7264:7444   */\n    tag_228:\n        /* \"#utility.yul\":7312:7389   */\n      0x4e487b7100000000000000000000000000000000000000000000000000000000\n        /* \"#utility.yul\":7309:7310   */\n      0x00\n        /* \"#utility.yul\":7302:7390   */\n      mstore\n        /* \"#utility.yul\":7409:7413   */\n      0x41\n        /* \"#utility.yul\":7406:7407   */\n      0x04\n        /* \"#utility.yul\":7399:7414   */\n      mstore\n        /* \"#utility.yul\":7433:7437   */\n      0x24\n        /* \"#utility.yul\":7430:7431   */\n      0x00\n        /* \"#utility.yul\":7423:7438   */\n      revert\n        /* \"#utility.yul\":7450:7572   */\n    tag_214:\n        /* \"#utility.yul\":7523:7547   */\n      tag_268\n        /* \"#utility.yul\":7541:7546   */\n      dup2\n        /* \"#utility.yul\":7523:7547   */\n      tag_237\n      jump\t// in\n    tag_268:\n        /* \"#utility.yul\":7516:7521   */\n      dup2\n        /* \"#utility.yul\":7513:7548   */\n      eq\n        /* \"#utility.yul\":7503:7505   */\n      tag_269\n      jumpi\n        /* \"#utility.yul\":7562:7563   */\n      0x00\n        /* \"#utility.yul\":7559:7560   */\n      dup1\n        /* \"#utility.yul\":7552:7564   */\n      revert\n        /* \"#utility.yul\":7503:7505   */\n    tag_269:\n        /* \"#utility.yul\":7493:7572   */\n      pop\n      jump\t// out\n\n    auxdata: 0xa2646970667358221220bcd695cd595d4e0828daa78b752ba03512a9c74175f30e8a75a518cd95b5e0b964736f6c63430008000033\n}\n",
				"bytecode": {
					"linkReferences": {},
					"object": "608060405234801561001057600080fd5b50611b1a806100206000396000f3fe608060405234801561001057600080fd5b506004361061002b5760003560e01c8063f48d772914610030575b600080fd5b61004a600480360381019061004591906117e7565b610060565b6040516100579190611834565b60405180910390f35b600080600167ffffffffffffffff8111156100a4577f4e487b7100000000000000000000000000000000000000000000000000000000600052604160045260246000fd5b6040519080825280602002602001820160405280156100d25781602001602082028036833780820191505090505b50905060005b60018110156101775783816001811061011a577f4e487b7100000000000000000000000000000000000000000000000000000000600052603260045260246000fd5b6020020151828281518110610158577f4e487b7100000000000000000000000000000000000000000000000000000000600052603260045260246000fd5b602002602001018181525050808061016f906119c6565b9150506100d8565b50600061018482866101a0565b141561019457600191505061019a565b60009150505b92915050565b6000807f30644e72e131a029b85045b68181585d2833e84879b9709143e1f593f0000001905060006101d06103cf565b9050806080015151600186516101e691906118cc565b146101f057600080fd5b60006040518060400160405280600081526020016000815250905060005b865181101561031b5783878281518110610251577f4e487b7100000000000000000000000000000000000000000000000000000000600052603260045260246000fd5b60200260200101511061026357600080fd5b61030682610301856080015160018561027c91906118cc565b815181106102b3577f4e487b7100000000000000000000000000000000000000000000000000000000600052603260045260246000fd5b60200260200101518a85815181106102f4577f4e487b7100000000000000000000000000000000000000000000000000000000600052603260045260246000fd5b6020026020010151610843565b61095c565b91508080610313906119c6565b91505061020e565b5061036b81836080015160008151811061035e577f4e487b7100000000000000000000000000000000000000000000000000000000600052603260045260246000fd5b602002602001015161095c565b90506103b18560000151866020015161038384610ac1565b85604001516103958a60400151610ac1565b87606001516103a78960000151610ac1565b8960200151610b66565b6103c157600193505050506103c9565b600093505050505b92915050565b6103d76114b6565b60405180604001604052807f0c1c972c6cf689ac61dfe2c698b7bfe305cfcd68ff1305bb793d55a425ef517481526020017f1ed18a8fc77312118ba2f5b3ca5644e75fbf7bb17a5151722ac7c99cd255c14d8152508160000181905250604051806040016040528060405180604001604052807f1aa9600cf67acfbe1ed78286320149ad12fb9ea54cecce06ca77026aaea381bb81526020017f25c0ca703530caf1aa8871504caa326e0342662e46b3ce836b984a7325b3b54d815250815260200160405180604001604052807f11caf3c11a3bdf9a8c98a9f79a29088948c895dab9ba9aa2d3c10d94f9b3a0c981526020017f0979ee6c98436968c93849d8838768607db9eb325227736d3722f2863e3eca058152508152508160200181905250604051806040016040528060405180604001604052807e082377196d5eabd9ba90da8eb828a8d0df574c4742e0cd10788cb11a92ba3881526020017e9be89ad511cc80bdfb994823ff993d12e37504ded6c27da47b12c1cf58d33b815250815260200160405180604001604052807f12d648d17fe39d19166e4b3bc4e42422143b2f403897a25f7a434bcb0dcd819a81526020017f0c283ad4e22053e4f805949f928dcc29e61a84e9f08865e4dc3e0d19fabe25c18152508152508160400181905250604051806040016040528060405180604001604052807f1d0fbdcbe033ae751ff714e30bf3a155e23f18c9d62fa572f10a5358ee2b276681526020017f06968ec04f8037b53a5848d9e297889bf94093622dbe3e5395c7724281a6f5ff815250815260200160405180604001604052807f2ac92ac01cb073e60cac933fc024d20e8667cb926a08db8653368f3a428faa8e81526020017f18f6985eda9a5133fdcce2a11f7173aa66b540e72af612bf6394cf881c5cf2c98152508152508160600181905250600267ffffffffffffffff8111156106c2577f4e487b7100000000000000000000000000000000000000000000000000000000600052604160045260246000fd5b6040519080825280602002602001820160405280156106fb57816020015b6106e86114fd565b8152602001906001900390816106e05790505b50816080018190525060405180604001604052807f1e3ccb3998dfa10d56969bdeef28dbd16178e5189981b1cd1983b2465a2f069b81526020017f092d876a47b6aba3c5ddcbd7a9c62244c88ff4104c6f61f86a21ecaf0dc785ad8152508160800151600081518110610797577f4e487b7100000000000000000000000000000000000000000000000000000000600052603260045260246000fd5b602002602001018190525060405180604001604052807f1410e578a7e2d08388477739739f4cfabcf33c27c6ea674d6ad02f352838f64581526020017f0c2829b2514c40dceda8f17102e213c8b12dedd71d73669e642ddea9d1f63de58152508160800151600181518110610835577f4e487b7100000000000000000000000000000000000000000000000000000000600052603260045260246000fd5b602002602001018190525090565b61084b6114fd565b610853611517565b836000015181600060038110610892577f4e487b7100000000000000000000000000000000000000000000000000000000600052603260045260246000fd5b6020020181815250508360200151816001600381106108da577f4e487b7100000000000000000000000000000000000000000000000000000000600052603260045260246000fd5b602002018181525050828160026003811061091e577f4e487b7100000000000000000000000000000000000000000000000000000000600052603260045260246000fd5b602002018181525050600060608360808460076107d05a03fa9050806000811461094757610949565bfe5b508061095457600080fd5b505092915050565b6109646114fd565b61096c611539565b8360000151816000600481106109ab577f4e487b7100000000000000000000000000000000000000000000000000000000600052603260045260246000fd5b6020020181815250508360200151816001600481106109f3577f4e487b7100000000000000000000000000000000000000000000000000000000600052603260045260246000fd5b602002018181525050826000015181600260048110610a3b577f4e487b7100000000000000000000000000000000000000000000000000000000600052603260045260246000fd5b602002018181525050826020015181600360048110610a83577f4e487b7100000000000000000000000000000000000000000000000000000000600052603260045260246000fd5b602002018181525050600060608360c08460066107d05a03fa90508060008114610aac57610aae565bfe5b5080610ab957600080fd5b505092915050565b610ac96114fd565b60007f30644e72e131a029b85045b68181585d97816a916871ca8d3c208c16d87cfd47905060008360000151148015610b06575060008360200151145b15610b2a576040518060400160405280600081526020016000815250915050610b61565b604051806040016040528084600001518152602001828560200151610b4f9190611a0f565b83610b5a919061197c565b8152509150505b919050565b600080600467ffffffffffffffff811115610baa577f4e487b7100000000000000000000000000000000000000000000000000000000600052604160045260246000fd5b604051908082528060200260200182016040528015610be357816020015b610bd06114fd565b815260200190600190039081610bc85790505b5090506000600467ffffffffffffffff811115610c29577f4e487b7100000000000000000000000000000000000000000000000000000000600052604160045260246000fd5b604051908082528060200260200182016040528015610c6257816020015b610c4f61155b565b815260200190600190039081610c475790505b5090508a82600081518110610ca0577f4e487b7100000000000000000000000000000000000000000000000000000000600052603260045260246000fd5b60200260200101819052508882600181518110610ce6577f4e487b7100000000000000000000000000000000000000000000000000000000600052603260045260246000fd5b60200260200101819052508682600281518110610d2c577f4e487b7100000000000000000000000000000000000000000000000000000000600052603260045260246000fd5b60200260200101819052508482600381518110610d72577f4e487b7100000000000000000000000000000000000000000000000000000000600052603260045260246000fd5b60200260200101819052508981600081518110610db8577f4e487b7100000000000000000000000000000000000000000000000000000000600052603260045260246000fd5b60200260200101819052508781600181518110610dfe577f4e487b7100000000000000000000000000000000000000000000000000000000600052603260045260246000fd5b60200260200101819052508581600281518110610e44577f4e487b7100000000000000000000000000000000000000000000000000000000600052603260045260246000fd5b60200260200101819052508381600381518110610e8a577f4e487b7100000000000000000000000000000000000000000000000000000000600052603260045260246000fd5b6020026020010181905250610e9f8282610eaf565b9250505098975050505050505050565b60008151835114610ebf57600080fd5b6000835190506000600682610ed49190611922565b905060008167ffffffffffffffff811115610f18577f4e487b7100000000000000000000000000000000000000000000000000000000600052604160045260246000fd5b604051908082528060200260200182016040528015610f465781602001602082028036833780820191505090505b50905060005b8381101561142b57868181518110610f8d577f4e487b7100000000000000000000000000000000000000000000000000000000600052603260045260246000fd5b602002602001015160000151826000600684610fa99190611922565b610fb391906118cc565b81518110610fea577f4e487b7100000000000000000000000000000000000000000000000000000000600052603260045260246000fd5b60200260200101818152505086818151811061102f577f4e487b7100000000000000000000000000000000000000000000000000000000600052603260045260246000fd5b60200260200101516020015182600160068461104b9190611922565b61105591906118cc565b8151811061108c577f4e487b7100000000000000000000000000000000000000000000000000000000600052603260045260246000fd5b6020026020010181815250508581815181106110d1577f4e487b7100000000000000000000000000000000000000000000000000000000600052603260045260246000fd5b602002602001015160000151600160028110611116577f4e487b7100000000000000000000000000000000000000000000000000000000600052603260045260246000fd5b602002015182600260068461112b9190611922565b61113591906118cc565b8151811061116c577f4e487b7100000000000000000000000000000000000000000000000000000000600052603260045260246000fd5b6020026020010181815250508581815181106111b1577f4e487b7100000000000000000000000000000000000000000000000000000000600052603260045260246000fd5b6020026020010151600001516000600281106111f6577f4e487b7100000000000000000000000000000000000000000000000000000000600052603260045260246000fd5b602002015182600360068461120b9190611922565b61121591906118cc565b8151811061124c577f4e487b7100000000000000000000000000000000000000000000000000000000600052603260045260246000fd5b602002602001018181525050858181518110611291577f4e487b7100000000000000000000000000000000000000000000000000000000600052603260045260246000fd5b6020026020010151602001516001600281106112d6577f4e487b7100000000000000000000000000000000000000000000000000000000600052603260045260246000fd5b60200201518260046006846112eb9190611922565b6112f591906118cc565b8151811061132c577f4e487b7100000000000000000000000000000000000000000000000000000000600052603260045260246000fd5b602002602001018181525050858181518110611371577f4e487b7100000000000000000000000000000000000000000000000000000000600052603260045260246000fd5b6020026020010151602001516000600281106113b6577f4e487b7100000000000000000000000000000000000000000000000000000000600052603260045260246000fd5b60200201518260056006846113cb9190611922565b6113d591906118cc565b8151811061140c577f4e487b7100000000000000000000000000000000000000000000000000000000600052603260045260246000fd5b6020026020010181815250508080611423906119c6565b915050610f4c565b50611434611581565b6000602082602086026020860160086107d05a03fa905080600081146114595761145b565bfe5b508061146657600080fd5b6000826000600181106114a2577f4e487b7100000000000000000000000000000000000000000000000000000000600052603260045260246000fd5b602002015114159550505050505092915050565b6040518060a001604052806114c96114fd565b81526020016114d661155b565b81526020016114e361155b565b81526020016114f061155b565b8152602001606081525090565b604051806040016040528060008152602001600081525090565b6040518060600160405280600390602082028036833780820191505090505090565b6040518060800160405280600490602082028036833780820191505090505090565b604051806040016040528061156e6115a3565b815260200161157b6115a3565b81525090565b6040518060200160405280600190602082028036833780820191505090505090565b6040518060400160405280600290602082028036833780820191505090505090565b60006115d86115d384611880565b61184f565b905080828560208602820111156115ee57600080fd5b60005b8581101561161e578161160488826117d2565b8452602084019350602083019250506001810190506115f1565b5050509392505050565b600061163b611636846118a6565b61184f565b9050808285602086028201111561165157600080fd5b60005b85811015611681578161166788826117d2565b845260208401935060208301925050600181019050611654565b5050509392505050565b600082601f83011261169c57600080fd5b60016116a98482856115c5565b91505092915050565b600082601f8301126116c357600080fd5b60026116d0848285611628565b91505092915050565b6000604082840312156116eb57600080fd5b6116f5604061184f565b90506000611705848285016117d2565b6000830152506020611719848285016117d2565b60208301525092915050565b60006080828403121561173757600080fd5b611741604061184f565b90506000611751848285016116b2565b6000830152506040611765848285016116b2565b60208301525092915050565b6000610100828403121561178457600080fd5b61178e606061184f565b9050600061179e848285016116d9565b60008301525060406117b284828501611725565b60208301525060c06117c6848285016116d9565b60408301525092915050565b6000813590506117e181611acd565b92915050565b60008061012083850312156117fb57600080fd5b600061180985828601611771565b92505061010061181b8582860161168b565b9150509250929050565b61182e816119b0565b82525050565b60006020820190506118496000830184611825565b92915050565b6000604051905081810181811067ffffffffffffffff8211171561187657611875611a9e565b5b8060405250919050565b600067ffffffffffffffff82111561189b5761189a611a9e565b5b602082029050919050565b600067ffffffffffffffff8211156118c1576118c0611a9e565b5b602082029050919050565b60006118d7826119bc565b91506118e2836119bc565b9250827fffffffffffffffffffffffffffffffffffffffffffffffffffffffffffffffff0382111561191757611916611a40565b5b828201905092915050565b600061192d826119bc565b9150611938836119bc565b9250817fffffffffffffffffffffffffffffffffffffffffffffffffffffffffffffffff048311821515161561197157611970611a40565b5b828202905092915050565b6000611987826119bc565b9150611992836119bc565b9250828210156119a5576119a4611a40565b5b828203905092915050565b60008115159050919050565b6000819050919050565b60006119d1826119bc565b91507fffffffffffffffffffffffffffffffffffffffffffffffffffffffffffffffff821415611a0457611a03611a40565b5b600182019050919050565b6000611a1a826119bc565b9150611a25836119bc565b925082611a3557611a34611a6f565b5b828206905092915050565b7f4e487b7100000000000000000000000000000000000000000000000000000000600052601160045260246000fd5b7f4e487b7100000000000000000000000000000000000000000000000000000000600052601260045260246000fd5b7f4e487b7100000000000000000000000000000000000000000000000000000000600052604160045260246000fd5b611ad6816119bc565b8114611ae157600080fd5b5056fea2646970667358221220bcd695cd595d4e0828daa78b752ba03512a9c74175f30e8a75a518cd95b5e0b964736f6c63430008000033",
					"opcodes": "PUSH1 0x80 PUSH1 0x40 MSTORE CALLVALUE DUP1 ISZERO PUSH2 0x10 JUMPI PUSH1 0x0 DUP1 REVERT JUMPDEST POP PUSH2 0x1B1A DUP1 PUSH2 0x20 PUSH1 0x0 CODECOPY PUSH1 0x0 RETURN INVALID PUSH1 0x80 PUSH1 0x40 MSTORE CALLVALUE DUP1 ISZERO PUSH2 0x10 JUMPI PUSH1 0x0 DUP1 REVERT JUMPDEST POP PUSH1 0x4 CALLDATASIZE LT PUSH2 0x2B JUMPI PUSH1 0x0 CALLDATALOAD PUSH1 0xE0 SHR DUP1 PUSH4 0xF48D7729 EQ PUSH2 0x30 JUMPI JUMPDEST PUSH1 0x0 DUP1 REVERT JUMPDEST PUSH2 0x4A PUSH1 0x4 DUP1 CALLDATASIZE SUB DUP2 ADD SWAP1 PUSH2 0x45 SWAP2 SWAP1 PUSH2 0x17E7 JUMP JUMPDEST PUSH2 0x60 JUMP JUMPDEST PUSH1 0x40 MLOAD PUSH2 0x57 SWAP2 SWAP1 PUSH2 0x1834 JUMP JUMPDEST PUSH1 0x40 MLOAD DUP1 SWAP2 SUB SWAP1 RETURN JUMPDEST PUSH1 0x0 DUP1 PUSH1 0x1 PUSH8 0xFFFFFFFFFFFFFFFF DUP2 GT ISZERO PUSH2 0xA4 JUMPI PUSH32 0x4E487B7100000000000000000000000000000000000000000000000000000000 PUSH1 0x0 MSTORE PUSH1 0x41 PUSH1 0x4 MSTORE PUSH1 0x24 PUSH1 0x0 REVERT JUMPDEST PUSH1 0x40 MLOAD SWAP1 DUP1 DUP3 MSTORE DUP1 PUSH1 0x20 MUL PUSH1 0x20 ADD DUP3 ADD PUSH1 0x40 MSTORE DUP1 ISZERO PUSH2 0xD2 JUMPI DUP2 PUSH1 0x20 ADD PUSH1 0x20 DUP3 MUL DUP1 CALLDATASIZE DUP4 CALLDATACOPY DUP1 DUP3 ADD SWAP2 POP POP SWAP1 POP JUMPDEST POP SWAP1 POP PUSH1 0x0 JUMPDEST PUSH1 0x1 DUP2 LT ISZERO PUSH2 0x177 JUMPI DUP4 DUP2 PUSH1 0x1 DUP2 LT PUSH2 0x11A JUMPI PUSH32 0x4E487B7100000000000000000000000000000000000000000000000000000000 PUSH1 0x0 MSTORE PUSH1 0x32 PUSH1 0x4 MSTORE PUSH1 0x24 PUSH1 0x0 REVERT JUMPDEST PUSH1 0x20 MUL ADD MLOAD DUP3 DUP3 DUP2 MLOAD DUP2 LT PUSH2 0x158 JUMPI PUSH32 0x4E487B7100000000000000000000000000000000000000000000000000000000 PUSH1 0x0 MSTORE PUSH1 0x32 PUSH1 0x4 MSTORE PUSH1 0x24 PUSH1 0x0 REVERT JUMPDEST PUSH1 0x20 MUL PUSH1 0x20 ADD ADD DUP2 DUP2 MSTORE POP POP DUP1 DUP1 PUSH2 0x16F SWAP1 PUSH2 0x19C6 JUMP JUMPDEST SWAP2 POP POP PUSH2 0xD8 JUMP JUMPDEST POP PUSH1 0x0 PUSH2 0x184 DUP3 DUP7 PUSH2 0x1A0 JUMP JUMPDEST EQ ISZERO PUSH2 0x194 JUMPI PUSH1 0x1 SWAP2 POP POP PUSH2 0x19A JUMP JUMPDEST PUSH1 0x0 SWAP2 POP POP JUMPDEST SWAP3 SWAP2 POP POP JUMP JUMPDEST PUSH1 0x0 DUP1 PUSH32 0x30644E72E131A029B85045B68181585D2833E84879B9709143E1F593F0000001 SWAP1 POP PUSH1 0x0 PUSH2 0x1D0 PUSH2 0x3CF JUMP JUMPDEST SWAP1 POP DUP1 PUSH1 0x80 ADD MLOAD MLOAD PUSH1 0x1 DUP7 MLOAD PUSH2 0x1E6 SWAP2 SWAP1 PUSH2 0x18CC JUMP JUMPDEST EQ PUSH2 0x1F0 JUMPI PUSH1 0x0 DUP1 REVERT JUMPDEST PUSH1 0x0 PUSH1 0x40 MLOAD DUP1 PUSH1 0x40 ADD PUSH1 0x40 MSTORE DUP1 PUSH1 0x0 DUP2 MSTORE PUSH1 0x20 ADD PUSH1 0x0 DUP2 MSTORE POP SWAP1 POP PUSH1 0x0 JUMPDEST DUP7 MLOAD DUP2 LT ISZERO PUSH2 0x31B JUMPI DUP4 DUP8 DUP3 DUP2 MLOAD DUP2 LT PUSH2 0x251 JUMPI PUSH32 0x4E487B7100000000000000000000000000000000000000000000000000000000 PUSH1 0x0 MSTORE PUSH1 0x32 PUSH1 0x4 MSTORE PUSH1 0x24 PUSH1 0x0 REVERT JUMPDEST PUSH1 0x20 MUL PUSH1 0x20 ADD ADD MLOAD LT PUSH2 0x263 JUMPI PUSH1 0x0 DUP1 REVERT JUMPDEST PUSH2 0x306 DUP3 PUSH2 0x301 DUP6 PUSH1 0x80 ADD MLOAD PUSH1 0x1 DUP6 PUSH2 0x27C SWAP2 SWAP1 PUSH2 0x18CC JUMP JUMPDEST DUP2 MLOAD DUP2 LT PUSH2 0x2B3 JUMPI PUSH32 0x4E487B7100000000000000000000000000000000000000000000000000000000 PUSH1 0x0 MSTORE PUSH1 0x32 PUSH1 0x4 MSTORE PUSH1 0x24 PUSH1 0x0 REVERT JUMPDEST PUSH1 0x20 MUL PUSH1 0x20 ADD ADD MLOAD DUP11 DUP6 DUP2 MLOAD DUP2 LT PUSH2 0x2F4 JUMPI PUSH32 0x4E487B7100000000000000000000000000000000000000000000000000000000 PUSH1 0x0 MSTORE PUSH1 0x32 PUSH1 0x4 MSTORE PUSH1 0x24 PUSH1 0x0 REVERT JUMPDEST PUSH1 0x20 MUL PUSH1 0x20 ADD ADD MLOAD PUSH2 0x843 JUMP JUMPDEST PUSH2 0x95C JUMP JUMPDEST SWAP2 POP DUP1 DUP1 PUSH2 0x313 SWAP1 PUSH2 0x19C6 JUMP JUMPDEST SWAP2 POP POP PUSH2 0x20E JUMP JUMPDEST POP PUSH2 0x36B DUP2 DUP4 PUSH1 0x80 ADD MLOAD PUSH1 0x0 DUP2 MLOAD DUP2 LT PUSH2 0x35E JUMPI PUSH32 0x4E487B7100000000000000000000000000000000000000000000000000000000 PUSH1 0x0 MSTORE PUSH1 0x32 PUSH1 0x4 MSTORE PUSH1 0x24 PUSH1 0x0 REVERT JUMPDEST PUSH1 0x20 MUL PUSH1 0x20 ADD ADD MLOAD PUSH2 0x95C JUMP JUMPDEST SWAP1 POP PUSH2 0x3B1 DUP6 PUSH1 0x0 ADD MLOAD DUP7 PUSH1 0x20 ADD MLOAD PUSH2 0x383 DUP5 PUSH2 0xAC1 JUMP JUMPDEST DUP6 PUSH1 0x40 ADD MLOAD PUSH2 0x395 DUP11 PUSH1 0x40 ADD MLOAD PUSH2 0xAC1 JUMP JUMPDEST DUP8 PUSH1 0x60 ADD MLOAD PUSH2 0x3A7 DUP10 PUSH1 0x0 ADD MLOAD PUSH2 0xAC1 JUMP JUMPDEST DUP10 PUSH1 0x20 ADD MLOAD PUSH2 0xB66 JUMP JUMPDEST PUSH2 0x3C1 JUMPI PUSH1 0x1 SWAP4 POP POP POP POP PUSH2 0x3C9 JUMP JUMPDEST PUSH1 0x0 SWAP4 POP POP POP POP JUMPDEST SWAP3 SWAP2 POP POP JUMP JUMPDEST PUSH2 0x3D7 PUSH2 0x14B6 JUMP JUMPDEST PUSH1 0x40 MLOAD DUP1 PUSH1 0x40 ADD PUSH1 0x40 MSTORE DUP1 PUSH32 0xC1C972C6CF689AC61DFE2C698B7BFE305CFCD68FF1305BB793D55A425EF5174 DUP2 MSTORE PUSH1 0x20 ADD PUSH32 0x1ED18A8FC77312118BA2F5B3CA5644E75FBF7BB17A5151722AC7C99CD255C14D DUP2 MSTORE POP DUP2 PUSH1 0x0 ADD DUP2 SWAP1 MSTORE POP PUSH1 0x40 MLOAD DUP1 PUSH1 0x40 ADD PUSH1 0x40 MSTORE DUP1 PUSH1 0x40 MLOAD DUP1 PUSH1 0x40 ADD PUSH1 0x40 MSTORE DUP1 PUSH32 0x1AA9600CF67ACFBE1ED78286320149AD12FB9EA54CECCE06CA77026AAEA381BB DUP2 MSTORE PUSH1 0x20 ADD PUSH32 0x25C0CA703530CAF1AA8871504CAA326E0342662E46B3CE836B984A7325B3B54D DUP2 MSTORE POP DUP2 MSTORE PUSH1 0x20 ADD PUSH1 0x40 MLOAD DUP1 PUSH1 0x40 ADD PUSH1 0x40 MSTORE DUP1 PUSH32 0x11CAF3C11A3BDF9A8C98A9F79A29088948C895DAB9BA9AA2D3C10D94F9B3A0C9 DUP2 MSTORE PUSH1 0x20 ADD PUSH32 0x979EE6C98436968C93849D8838768607DB9EB325227736D3722F2863E3ECA05 DUP2 MSTORE POP DUP2 MSTORE POP DUP2 PUSH1 0x20 ADD DUP2 SWAP1 MSTORE POP PUSH1 0x40 MLOAD DUP1 PUSH1 0x40 ADD PUSH1 0x40 MSTORE DUP1 PUSH1 0x40 MLOAD DUP1 PUSH1 0x40 ADD PUSH1 0x40 MSTORE DUP1 PUSH31 0x82377196D5EABD9BA90DA8EB828A8D0DF574C4742E0CD10788CB11A92BA38 DUP2 MSTORE PUSH1 0x20 ADD PUSH31 0x9BE89AD511CC80BDFB994823FF993D12E37504DED6C27DA47B12C1CF58D33B DUP2 MSTORE POP DUP2 MSTORE PUSH1 0x20 ADD PUSH1 0x40 MLOAD DUP1 PUSH1 0x40 ADD PUSH1 0x40 MSTORE DUP1 PUSH32 0x12D648D17FE39D19166E4B3BC4E42422143B2F403897A25F7A434BCB0DCD819A DUP2 MSTORE PUSH1 0x20 ADD PUSH32 0xC283AD4E22053E4F805949F928DCC29E61A84E9F08865E4DC3E0D19FABE25C1 DUP2 MSTORE POP DUP2 MSTORE POP DUP2 PUSH1 0x40 ADD DUP2 SWAP1 MSTORE POP PUSH1 0x40 MLOAD DUP1 PUSH1 0x40 ADD PUSH1 0x40 MSTORE DUP1 PUSH1 0x40 MLOAD DUP1 PUSH1 0x40 ADD PUSH1 0x40 MSTORE DUP1 PUSH32 0x1D0FBDCBE033AE751FF714E30BF3A155E23F18C9D62FA572F10A5358EE2B2766 DUP2 MSTORE PUSH1 0x20 ADD PUSH32 0x6968EC04F8037B53A5848D9E297889BF94093622DBE3E5395C7724281A6F5FF DUP2 MSTORE POP DUP2 MSTORE PUSH1 0x20 ADD PUSH1 0x40 MLOAD DUP1 PUSH1 0x40 ADD PUSH1 0x40 MSTORE DUP1 PUSH32 0x2AC92AC01CB073E60CAC933FC024D20E8667CB926A08DB8653368F3A428FAA8E DUP2 MSTORE PUSH1 0x20 ADD PUSH32 0x18F6985EDA9A5133FDCCE2A11F7173AA66B540E72AF612BF6394CF881C5CF2C9 DUP2 MSTORE POP DUP2 MSTORE POP DUP2 PUSH1 0x60 ADD DUP2 SWAP1 MSTORE POP PUSH1 0x2 PUSH8 0xFFFFFFFFFFFFFFFF DUP2 GT ISZERO PUSH2 0x6C2 JUMPI PUSH32 0x4E487B7100000000000000000000000000000000000000000000000000000000 PUSH1 0x0 MSTORE PUSH1 0x41 PUSH1 0x4 MSTORE PUSH1 0x24 PUSH1 0x0 REVERT JUMPDEST PUSH1 0x40 MLOAD SWAP1 DUP1 DUP3 MSTORE DUP1 PUSH1 0x20 MUL PUSH1 0x20 ADD DUP3 ADD PUSH1 0x40 MSTORE DUP1 ISZERO PUSH2 0x6FB JUMPI DUP2 PUSH1 0x20 ADD JUMPDEST PUSH2 0x6E8 PUSH2 0x14FD JUMP JUMPDEST DUP2 MSTORE PUSH1 0x20 ADD SWAP1 PUSH1 0x1 SWAP1 SUB SWAP1 DUP2 PUSH2 0x6E0 JUMPI SWAP1 POP JUMPDEST POP DUP2 PUSH1 0x80 ADD DUP2 SWAP1 MSTORE POP PUSH1 0x40 MLOAD DUP1 PUSH1 0x40 ADD PUSH1 0x40 MSTORE DUP1 PUSH32 0x1E3CCB3998DFA10D56969BDEEF28DBD16178E5189981B1CD1983B2465A2F069B DUP2 MSTORE PUSH1 0x20 ADD PUSH32 0x92D876A47B6ABA3C5DDCBD7A9C62244C88FF4104C6F61F86A21ECAF0DC785AD DUP2 MSTORE POP DUP2 PUSH1 0x80 ADD MLOAD PUSH1 0x0 DUP2 MLOAD DUP2 LT PUSH2 0x797 JUMPI PUSH32 0x4E487B7100000000000000000000000000000000000000000000000000000000 PUSH1 0x0 MSTORE PUSH1 0x32 PUSH1 0x4 MSTORE PUSH1 0x24 PUSH1 0x0 REVERT JUMPDEST PUSH1 0x20 MUL PUSH1 0x20 ADD ADD DUP2 SWAP1 MSTORE POP PUSH1 0x40 MLOAD DUP1 PUSH1 0x40 ADD PUSH1 0x40 MSTORE DUP1 PUSH32 0x1410E578A7E2D08388477739739F4CFABCF33C27C6EA674D6AD02F352838F645 DUP2 MSTORE PUSH1 0x20 ADD PUSH32 0xC2829B2514C40DCEDA8F17102E213C8B12DEDD71D73669E642DDEA9D1F63DE5 DUP2 MSTORE POP DUP2 PUSH1 0x80 ADD MLOAD PUSH1 0x1 DUP2 MLOAD DUP2 LT PUSH2 0x835 JUMPI PUSH32 0x4E487B7100000000000000000000000000000000000000000000000000000000 PUSH1 0x0 MSTORE PUSH1 0x32 PUSH1 0x4 MSTORE PUSH1 0x24 PUSH1 0x0 REVERT JUMPDEST PUSH1 0x20 MUL PUSH1 0x20 ADD ADD DUP2 SWAP1 MSTORE POP SWAP1 JUMP JUMPDEST PUSH2 0x84B PUSH2 0x14FD JUMP JUMPDEST PUSH2 0x853 PUSH2 0x1517 JUMP JUMPDEST DUP4 PUSH1 0x0 ADD MLOAD DUP2 PUSH1 0x0 PUSH1 0x3 DUP2 LT PUSH2 0x892 JUMPI PUSH32 0x4E487B7100000000000000000000000000000000000000000000000000000000 PUSH1 0x0 MSTORE PUSH1 0x32 PUSH1 0x4 MSTORE PUSH1 0x24 PUSH1 0x0 REVERT JUMPDEST PUSH1 0x20 MUL ADD DUP2 DUP2 MSTORE POP POP DUP4 PUSH1 0x20 ADD MLOAD DUP2 PUSH1 0x1 PUSH1 0x3 DUP2 LT PUSH2 0x8DA JUMPI PUSH32 0x4E487B7100000000000000000000000000000000000000000000000000000000 PUSH1 0x0 MSTORE PUSH1 0x32 PUSH1 0x4 MSTORE PUSH1 0x24 PUSH1 0x0 REVERT JUMPDEST PUSH1 0x20 MUL ADD DUP2 DUP2 MSTORE POP POP DUP3 DUP2 PUSH1 0x2 PUSH1 0x3 DUP2 LT PUSH2 0x91E JUMPI PUSH32 0x4E487B7100000000000000000000000000000000000000000000000000000000 PUSH1 0x0 MSTORE PUSH1 0x32 PUSH1 0x4 MSTORE PUSH1 0x24 PUSH1 0x0 REVERT JUMPDEST PUSH1 0x20 MUL ADD DUP2 DUP2 MSTORE POP POP PUSH1 0x0 PUSH1 0x60 DUP4 PUSH1 0x80 DUP5 PUSH1 0x7 PUSH2 0x7D0 GAS SUB STATICCALL SWAP1 POP DUP1 PUSH1 0x0 DUP2 EQ PUSH2 0x947 JUMPI PUSH2 0x949 JUMP JUMPDEST INVALID JUMPDEST POP DUP1 PUSH2 0x954 JUMPI PUSH1 0x0 DUP1 REVERT JUMPDEST POP POP SWAP3 SWAP2 POP POP JUMP JUMPDEST PUSH2 0x964 PUSH2 0x14FD JUMP JUMPDEST PUSH2 0x96C PUSH2 0x1539 JUMP JUMPDEST DUP4 PUSH1 0x0 ADD MLOAD DUP2 PUSH1 0x0 PUSH1 0x4 DUP2 LT PUSH2 0x9AB JUMPI PUSH32 0x4E487B7100000000000000000000000000000000000000000000000000000000 PUSH1 0x0 MSTORE PUSH1 0x32 PUSH1 0x4 MSTORE PUSH1 0x24 PUSH1 0x0 REVERT JUMPDEST PUSH1 0x20 MUL ADD DUP2 DUP2 MSTORE POP POP DUP4 PUSH1 0x20 ADD MLOAD DUP2 PUSH1 0x1 PUSH1 0x4 DUP2 LT PUSH2 0x9F3 JUMPI PUSH32 0x4E487B7100000000000000000000000000000000000000000000000000000000 PUSH1 0x0 MSTORE PUSH1 0x32 PUSH1 0x4 MSTORE PUSH1 0x24 PUSH1 0x0 REVERT JUMPDEST PUSH1 0x20 MUL ADD DUP2 DUP2 MSTORE POP POP DUP3 PUSH1 0x0 ADD MLOAD DUP2 PUSH1 0x2 PUSH1 0x4 DUP2 LT PUSH2 0xA3B JUMPI PUSH32 0x4E487B7100000000000000000000000000000000000000000000000000000000 PUSH1 0x0 MSTORE PUSH1 0x32 PUSH1 0x4 MSTORE PUSH1 0x24 PUSH1 0x0 REVERT JUMPDEST PUSH1 0x20 MUL ADD DUP2 DUP2 MSTORE POP POP DUP3 PUSH1 0x20 ADD MLOAD DUP2 PUSH1 0x3 PUSH1 0x4 DUP2 LT PUSH2 0xA83 JUMPI PUSH32 0x4E487B7100000000000000000000000000000000000000000000000000000000 PUSH1 0x0 MSTORE PUSH1 0x32 PUSH1 0x4 MSTORE PUSH1 0x24 PUSH1 0x0 REVERT JUMPDEST PUSH1 0x20 MUL ADD DUP2 DUP2 MSTORE POP POP PUSH1 0x0 PUSH1 0x60 DUP4 PUSH1 0xC0 DUP5 PUSH1 0x6 PUSH2 0x7D0 GAS SUB STATICCALL SWAP1 POP DUP1 PUSH1 0x0 DUP2 EQ PUSH2 0xAAC JUMPI PUSH2 0xAAE JUMP JUMPDEST INVALID JUMPDEST POP DUP1 PUSH2 0xAB9 JUMPI PUSH1 0x0 DUP1 REVERT JUMPDEST POP POP SWAP3 SWAP2 POP POP JUMP JUMPDEST PUSH2 0xAC9 PUSH2 0x14FD JUMP JUMPDEST PUSH1 0x0 PUSH32 0x30644E72E131A029B85045B68181585D97816A916871CA8D3C208C16D87CFD47 SWAP1 POP PUSH1 0x0 DUP4 PUSH1 0x0 ADD MLOAD EQ DUP1 ISZERO PUSH2 0xB06 JUMPI POP PUSH1 0x0 DUP4 PUSH1 0x20 ADD MLOAD EQ JUMPDEST ISZERO PUSH2 0xB2A JUMPI PUSH1 0x40 MLOAD DUP1 PUSH1 0x40 ADD PUSH1 0x40 MSTORE DUP1 PUSH1 0x0 DUP2 MSTORE PUSH1 0x20 ADD PUSH1 0x0 DUP2 MSTORE POP SWAP2 POP POP PUSH2 0xB61 JUMP JUMPDEST PUSH1 0x40 MLOAD DUP1 PUSH1 0x40 ADD PUSH1 0x40 MSTORE DUP1 DUP5 PUSH1 0x0 ADD MLOAD DUP2 MSTORE PUSH1 0x20 ADD DUP3 DUP6 PUSH1 0x20 ADD MLOAD PUSH2 0xB4F SWAP2 SWAP1 PUSH2 0x1A0F JUMP JUMPDEST DUP4 PUSH2 0xB5A SWAP2 SWAP1 PUSH2 0x197C JUMP JUMPDEST DUP2 MSTORE POP SWAP2 POP POP JUMPDEST SWAP2 SWAP1 POP JUMP JUMPDEST PUSH1 0x0 DUP1 PUSH1 0x4 PUSH8 0xFFFFFFFFFFFFFFFF DUP2 GT ISZERO PUSH2 0xBAA JUMPI PUSH32 0x4E487B7100000000000000000000000000000000000000000000000000000000 PUSH1 0x0 MSTORE PUSH1 0x41 PUSH1 0x4 MSTORE PUSH1 0x24 PUSH1 0x0 REVERT JUMPDEST PUSH1 0x40 MLOAD SWAP1 DUP1 DUP3 MSTORE DUP1 PUSH1 0x20 MUL PUSH1 0x20 ADD DUP3 ADD PUSH1 0x40 MSTORE DUP1 ISZERO PUSH2 0xBE3 JUMPI DUP2 PUSH1 0x20 ADD JUMPDEST PUSH2 0xBD0 PUSH2 0x14FD JUMP JUMPDEST DUP2 MSTORE PUSH1 0x20 ADD SWAP1 PUSH1 0x1 SWAP1 SUB SWAP1 DUP2 PUSH2 0xBC8 JUMPI SWAP1 POP JUMPDEST POP SWAP1 POP PUSH1 0x0 PUSH1 0x4 PUSH8 0xFFFFFFFFFFFFFFFF DUP2 GT ISZERO PUSH2 0xC29 JUMPI PUSH32 0x4E487B7100000000000000000000000000000000000000000000000000000000 PUSH1 0x0 MSTORE PUSH1 0x41 PUSH1 0x4 MSTORE PUSH1 0x24 PUSH1 0x0 REVERT JUMPDEST PUSH1 0x40 MLOAD SWAP1 DUP1 DUP3 MSTORE DUP1 PUSH1 0x20 MUL PUSH1 0x20 ADD DUP3 ADD PUSH1 0x40 MSTORE DUP1 ISZERO PUSH2 0xC62 JUMPI DUP2 PUSH1 0x20 ADD JUMPDEST PUSH2 0xC4F PUSH2 0x155B JUMP JUMPDEST DUP2 MSTORE PUSH1 0x20 ADD SWAP1 PUSH1 0x1 SWAP1 SUB SWAP1 DUP2 PUSH2 0xC47 JUMPI SWAP1 POP JUMPDEST POP SWAP1 POP DUP11 DUP3 PUSH1 0x0 DUP2 MLOAD DUP2 LT PUSH2 0xCA0 JUMPI PUSH32 0x4E487B7100000000000000000000000000000000000000000000000000000000 PUSH1 0x0 MSTORE PUSH1 0x32 PUSH1 0x4 MSTORE PUSH1 0x24 PUSH1 0x0 REVERT JUMPDEST PUSH1 0x20 MUL PUSH1 0x20 ADD ADD DUP2 SWAP1 MSTORE POP DUP9 DUP3 PUSH1 0x1 DUP2 MLOAD DUP2 LT PUSH2 0xCE6 JUMPI PUSH32 0x4E487B7100000000000000000000000000000000000000000000000000000000 PUSH1 0x0 MSTORE PUSH1 0x32 PUSH1 0x4 MSTORE PUSH1 0x24 PUSH1 0x0 REVERT JUMPDEST PUSH1 0x20 MUL PUSH1 0x20 ADD ADD DUP2 SWAP1 MSTORE POP DUP7 DUP3 PUSH1 0x2 DUP2 MLOAD DUP2 LT PUSH2 0xD2C JUMPI PUSH32 0x4E487B7100000000000000000000000000000000000000000000000000000000 PUSH1 0x0 MSTORE PUSH1 0x32 PUSH1 0x4 MSTORE PUSH1 0x24 PUSH1 0x0 REVERT JUMPDEST PUSH1 0x20 MUL PUSH1 0x20 ADD ADD DUP2 SWAP1 MSTORE POP DUP5 DUP3 PUSH1 0x3 DUP2 MLOAD DUP2 LT PUSH2 0xD72 JUMPI PUSH32 0x4E487B7100000000000000000000000000000000000000000000000000000000 PUSH1 0x0 MSTORE PUSH1 0x32 PUSH1 0x4 MSTORE PUSH1 0x24 PUSH1 0x0 REVERT JUMPDEST PUSH1 0x20 MUL PUSH1 0x20 ADD ADD DUP2 SWAP1 MSTORE POP DUP10 DUP2 PUSH1 0x0 DUP2 MLOAD DUP2 LT PUSH2 0xDB8 JUMPI PUSH32 0x4E487B7100000000000000000000000000000000000000000000000000000000 PUSH1 0x0 MSTORE PUSH1 0x32 PUSH1 0x4 MSTORE PUSH1 0x24 PUSH1 0x0 REVERT JUMPDEST PUSH1 0x20 MUL PUSH1 0x20 ADD ADD DUP2 SWAP1 MSTORE POP DUP8 DUP2 PUSH1 0x1 DUP2 MLOAD DUP2 LT PUSH2 0xDFE JUMPI PUSH32 0x4E487B7100000000000000000000000000000000000000000000000000000000 PUSH1 0x0 MSTORE PUSH1 0x32 PUSH1 0x4 MSTORE PUSH1 0x24 PUSH1 0x0 REVERT JUMPDEST PUSH1 0x20 MUL PUSH1 0x20 ADD ADD DUP2 SWAP1 MSTORE POP DUP6 DUP2 PUSH1 0x2 DUP2 MLOAD DUP2 LT PUSH2 0xE44 JUMPI PUSH32 0x4E487B7100000000000000000000000000000000000000000000000000000000 PUSH1 0x0 MSTORE PUSH1 0x32 PUSH1 0x4 MSTORE PUSH1 0x24 PUSH1 0x0 REVERT JUMPDEST PUSH1 0x20 MUL PUSH1 0x20 ADD ADD DUP2 SWAP1 MSTORE POP DUP4 DUP2 PUSH1 0x3 DUP2 MLOAD DUP2 LT PUSH2 0xE8A JUMPI PUSH32 0x4E487B7100000000000000000000000000000000000000000000000000000000 PUSH1 0x0 MSTORE PUSH1 0x32 PUSH1 0x4 MSTORE PUSH1 0x24 PUSH1 0x0 REVERT JUMPDEST PUSH1 0x20 MUL PUSH1 0x20 ADD ADD DUP2 SWAP1 MSTORE POP PUSH2 0xE9F DUP3 DUP3 PUSH2 0xEAF JUMP JUMPDEST SWAP3 POP POP POP SWAP9 SWAP8 POP POP POP POP POP POP POP POP JUMP JUMPDEST PUSH1 0x0 DUP2 MLOAD DUP4 MLOAD EQ PUSH2 0xEBF JUMPI PUSH1 0x0 DUP1 REVERT JUMPDEST PUSH1 0x0 DUP4 MLOAD SWAP1 POP PUSH1 0x0 PUSH1 0x6 DUP3 PUSH2 0xED4 SWAP2 SWAP1 PUSH2 0x1922 JUMP JUMPDEST SWAP1 POP PUSH1 0x0 DUP2 PUSH8 0xFFFFFFFFFFFFFFFF DUP2 GT ISZERO PUSH2 0xF18 JUMPI PUSH32 0x4E487B7100000000000000000000000000000000000000000000000000000000 PUSH1 0x0 MSTORE PUSH1 0x41 PUSH1 0x4 MSTORE PUSH1 0x24 PUSH1 0x0 REVERT JUMPDEST PUSH1 0x40 MLOAD SWAP1 DUP1 DUP3 MSTORE DUP1 PUSH1 0x20 MUL PUSH1 0x20 ADD DUP3 ADD PUSH1 0x40 MSTORE DUP1 ISZERO PUSH2 0xF46 JUMPI DUP2 PUSH1 0x20 ADD PUSH1 0x20 DUP3 MUL DUP1 CALLDATASIZE DUP4 CALLDATACOPY DUP1 DUP3 ADD SWAP2 POP POP SWAP1 POP JUMPDEST POP SWAP1 POP PUSH1 0x0 JUMPDEST DUP4 DUP2 LT ISZERO PUSH2 0x142B JUMPI DUP7 DUP2 DUP2 MLOAD DUP2 LT PUSH2 0xF8D JUMPI PUSH32 0x4E487B7100000000000000000000000000000000000000000000000000000000 PUSH1 0x0 MSTORE PUSH1 0x32 PUSH1 0x4 MSTORE PUSH1 0x24 PUSH1 0x0 REVERT JUMPDEST PUSH1 0x20 MUL PUSH1 0x20 ADD ADD MLOAD PUSH1 0x0 ADD MLOAD DUP3 PUSH1 0x0 PUSH1 0x6 DUP5 PUSH2 0xFA9 SWAP2 SWAP1 PUSH2 0x1922 JUMP JUMPDEST PUSH2 0xFB3 SWAP2 SWAP1 PUSH2 0x18CC JUMP JUMPDEST DUP2 MLOAD DUP2 LT PUSH2 0xFEA JUMPI PUSH32 0x4E487B7100000000000000000000000000000000000000000000000000000000 PUSH1 0x0 MSTORE PUSH1 0x32 PUSH1 0x4 MSTORE PUSH1 0x24 PUSH1 0x0 REVERT JUMPDEST PUSH1 0x20 MUL PUSH1 0x20 ADD ADD DUP2 DUP2 MSTORE POP POP DUP7 DUP2 DUP2 MLOAD DUP2 LT PUSH2 0x102F JUMPI PUSH32 0x4E487B7100000000000000000000000000000000000000000000000000000000 PUSH1 0x0 MSTORE PUSH1 0x32 PUSH1 0x4 MSTORE PUSH1 0x24 PUSH1 0x0 REVERT JUMPDEST PUSH1 0x20 MUL PUSH1 0x20 ADD ADD MLOAD PUSH1 0x20 ADD MLOAD DUP3 PUSH1 0x1 PUSH1 0x6 DUP5 PUSH2 0x104B SWAP2 SWAP1 PUSH2 0x1922 JUMP JUMPDEST PUSH2 0x1055 SWAP2 SWAP1 PUSH2 0x18CC JUMP JUMPDEST DUP2 MLOAD DUP2 LT PUSH2 0x108C JUMPI PUSH32 0x4E487B7100000000000000000000000000000000000000000000000000000000 PUSH1 0x0 MSTORE PUSH1 0x32 PUSH1 0x4 MSTORE PUSH1 0x24 PUSH1 0x0 REVERT JUMPDEST PUSH1 0x20 MUL PUSH1 0x20 ADD ADD DUP2 DUP2 MSTORE POP POP DUP6 DUP2 DUP2 MLOAD DUP2 LT PUSH2 0x10D1 JUMPI PUSH32 0x4E487B7100000000000000000000000000000000000000000000000000000000 PUSH1 0x0 MSTORE PUSH1 0x32 PUSH1 0x4 MSTORE PUSH1 0x24 PUSH1 0x0 REVERT JUMPDEST PUSH1 0x20 MUL PUSH1 0x20 ADD ADD MLOAD PUSH1 0x0 ADD MLOAD PUSH1 0x1 PUSH1 0x2 DUP2 LT PUSH2 0x1116 JUMPI PUSH32 0x4E487B7100000000000000000000000000000000000000000000000000000000 PUSH1 0x0 MSTORE PUSH1 0x32 PUSH1 0x4 MSTORE PUSH1 0x24 PUSH1 0x0 REVERT JUMPDEST PUSH1 0x20 MUL ADD MLOAD DUP3 PUSH1 0x2 PUSH1 0x6 DUP5 PUSH2 0x112B SWAP2 SWAP1 PUSH2 0x1922 JUMP JUMPDEST PUSH2 0x1135 SWAP2 SWAP1 PUSH2 0x18CC JUMP JUMPDEST DUP2 MLOAD DUP2 LT PUSH2 0x116C JUMPI PUSH32 0x4E487B7100000000000000000000000000000000000000000000000000000000 PUSH1 0x0 MSTORE PUSH1 0x32 PUSH1 0x4 MSTORE PUSH1 0x24 PUSH1 0x0 REVERT JUMPDEST PUSH1 0x20 MUL PUSH1 0x20 ADD ADD DUP2 DUP2 MSTORE POP POP DUP6 DUP2 DUP2 MLOAD DUP2 LT PUSH2 0x11B1 JUMPI PUSH32 0x4E487B7100000000000000000000000000000000000000000000000000000000 PUSH1 0x0 MSTORE PUSH1 0x32 PUSH1 0x4 MSTORE PUSH1 0x24 PUSH1 0x0 REVERT JUMPDEST PUSH1 0x20 MUL PUSH1 0x20 ADD ADD MLOAD PUSH1 0x0 ADD MLOAD PUSH1 0x0 PUSH1 0x2 DUP2 LT PUSH2 0x11F6 JUMPI PUSH32 0x4E487B7100000000000000000000000000000000000000000000000000000000 PUSH1 0x0 MSTORE PUSH1 0x32 PUSH1 0x4 MSTORE PUSH1 0x24 PUSH1 0x0 REVERT JUMPDEST PUSH1 0x20 MUL ADD MLOAD DUP3 PUSH1 0x3 PUSH1 0x6 DUP5 PUSH2 0x120B SWAP2 SWAP1 PUSH2 0x1922 JUMP JUMPDEST PUSH2 0x1215 SWAP2 SWAP1 PUSH2 0x18CC JUMP JUMPDEST DUP2 MLOAD DUP2 LT PUSH2 0x124C JUMPI PUSH32 0x4E487B7100000000000000000000000000000000000000000000000000000000 PUSH1 0x0 MSTORE PUSH1 0x32 PUSH1 0x4 MSTORE PUSH1 0x24 PUSH1 0x0 REVERT JUMPDEST PUSH1 0x20 MUL PUSH1 0x20 ADD ADD DUP2 DUP2 MSTORE POP POP DUP6 DUP2 DUP2 MLOAD DUP2 LT PUSH2 0x1291 JUMPI PUSH32 0x4E487B7100000000000000000000000000000000000000000000000000000000 PUSH1 0x0 MSTORE PUSH1 0x32 PUSH1 0x4 MSTORE PUSH1 0x24 PUSH1 0x0 REVERT JUMPDEST PUSH1 0x20 MUL PUSH1 0x20 ADD ADD MLOAD PUSH1 0x20 ADD MLOAD PUSH1 0x1 PUSH1 0x2 DUP2 LT PUSH2 0x12D6 JUMPI PUSH32 0x4E487B7100000000000000000000000000000000000000000000000000000000 PUSH1 0x0 MSTORE PUSH1 0x32 PUSH1 0x4 MSTORE PUSH1 0x24 PUSH1 0x0 REVERT JUMPDEST PUSH1 0x20 MUL ADD MLOAD DUP3 PUSH1 0x4 PUSH1 0x6 DUP5 PUSH2 0x12EB SWAP2 SWAP1 PUSH2 0x1922 JUMP JUMPDEST PUSH2 0x12F5 SWAP2 SWAP1 PUSH2 0x18CC JUMP JUMPDEST DUP2 MLOAD DUP2 LT PUSH2 0x132C JUMPI PUSH32 0x4E487B7100000000000000000000000000000000000000000000000000000000 PUSH1 0x0 MSTORE PUSH1 0x32 PUSH1 0x4 MSTORE PUSH1 0x24 PUSH1 0x0 REVERT JUMPDEST PUSH1 0x20 MUL PUSH1 0x20 ADD ADD DUP2 DUP2 MSTORE POP POP DUP6 DUP2 DUP2 MLOAD DUP2 LT PUSH2 0x1371 JUMPI PUSH32 0x4E487B7100000000000000000000000000000000000000000000000000000000 PUSH1 0x0 MSTORE PUSH1 0x32 PUSH1 0x4 MSTORE PUSH1 0x24 PUSH1 0x0 REVERT JUMPDEST PUSH1 0x20 MUL PUSH1 0x20 ADD ADD MLOAD PUSH1 0x20 ADD MLOAD PUSH1 0x0 PUSH1 0x2 DUP2 LT PUSH2 0x13B6 JUMPI PUSH32 0x4E487B7100000000000000000000000000000000000000000000000000000000 PUSH1 0x0 MSTORE PUSH1 0x32 PUSH1 0x4 MSTORE PUSH1 0x24 PUSH1 0x0 REVERT JUMPDEST PUSH1 0x20 MUL ADD MLOAD DUP3 PUSH1 0x5 PUSH1 0x6 DUP5 PUSH2 0x13CB SWAP2 SWAP1 PUSH2 0x1922 JUMP JUMPDEST PUSH2 0x13D5 SWAP2 SWAP1 PUSH2 0x18CC JUMP JUMPDEST DUP2 MLOAD DUP2 LT PUSH2 0x140C JUMPI PUSH32 0x4E487B7100000000000000000000000000000000000000000000000000000000 PUSH1 0x0 MSTORE PUSH1 0x32 PUSH1 0x4 MSTORE PUSH1 0x24 PUSH1 0x0 REVERT JUMPDEST PUSH1 0x20 MUL PUSH1 0x20 ADD ADD DUP2 DUP2 MSTORE POP POP DUP1 DUP1 PUSH2 0x1423 SWAP1 PUSH2 0x19C6 JUMP JUMPDEST SWAP2 POP POP PUSH2 0xF4C JUMP JUMPDEST POP PUSH2 0x1434 PUSH2 0x1581 JUMP JUMPDEST PUSH1 0x0 PUSH1 0x20 DUP3 PUSH1 0x20 DUP7 MUL PUSH1 0x20 DUP7 ADD PUSH1 0x8 PUSH2 0x7D0 GAS SUB STATICCALL SWAP1 POP DUP1 PUSH1 0x0 DUP2 EQ PUSH2 0x1459 JUMPI PUSH2 0x145B JUMP JUMPDEST INVALID JUMPDEST POP DUP1 PUSH2 0x1466 JUMPI PUSH1 0x0 DUP1 REVERT JUMPDEST PUSH1 0x0 DUP3 PUSH1 0x0 PUSH1 0x1 DUP2 LT PUSH2 0x14A2 JUMPI PUSH32 0x4E487B7100000000000000000000000000000000000000000000000000000000 PUSH1 0x0 MSTORE PUSH1 0x32 PUSH1 0x4 MSTORE PUSH1 0x24 PUSH1 0x0 REVERT JUMPDEST PUSH1 0x20 MUL ADD MLOAD EQ ISZERO SWAP6 POP POP POP POP POP POP SWAP3 SWAP2 POP POP JUMP JUMPDEST PUSH1 0x40 MLOAD DUP1 PUSH1 0xA0 ADD PUSH1 0x40 MSTORE DUP1 PUSH2 0x14C9 PUSH2 0x14FD JUMP JUMPDEST DUP2 MSTORE PUSH1 0x20 ADD PUSH2 0x14D6 PUSH2 0x155B JUMP JUMPDEST DUP2 MSTORE PUSH1 0x20 ADD PUSH2 0x14E3 PUSH2 0x155B JUMP JUMPDEST DUP2 MSTORE PUSH1 0x20 ADD PUSH2 0x14F0 PUSH2 0x155B JUMP JUMPDEST DUP2 MSTORE PUSH1 0x20 ADD PUSH1 0x60 DUP2 MSTORE POP SWAP1 JUMP JUMPDEST PUSH1 0x40 MLOAD DUP1 PUSH1 0x40 ADD PUSH1 0x40 MSTORE DUP1 PUSH1 0x0 DUP2 MSTORE PUSH1 0x20 ADD PUSH1 0x0 DUP2 MSTORE POP SWAP1 JUMP JUMPDEST PUSH1 0x40 MLOAD DUP1 PUSH1 0x60 ADD PUSH1 0x40 MSTORE DUP1 PUSH1 0x3 SWAP1 PUSH1 0x20 DUP3 MUL DUP1 CALLDATASIZE DUP4 CALLDATACOPY DUP1 DUP3 ADD SWAP2 POP POP SWAP1 POP POP SWAP1 JUMP JUMPDEST PUSH1 0x40 MLOAD DUP1 PUSH1 0x80 ADD PUSH1 0x40 MSTORE DUP1 PUSH1 0x4 SWAP1 PUSH1 0x20 DUP3 MUL DUP1 CALLDATASIZE DUP4 CALLDATACOPY DUP1 DUP3 ADD SWAP2 POP POP SWAP1 POP POP SWAP1 JUMP JUMPDEST PUSH1 0x40 MLOAD DUP1 PUSH1 0x40 ADD PUSH1 0x40 MSTORE DUP1 PUSH2 0x156E PUSH2 0x15A3 JUMP JUMPDEST DUP2 MSTORE PUSH1 0x20 ADD PUSH2 0x157B PUSH2 0x15A3 JUMP JUMPDEST DUP2 MSTORE POP SWAP1 JUMP JUMPDEST PUSH1 0x40 MLOAD DUP1 PUSH1 0x20 ADD PUSH1 0x40 MSTORE DUP1 PUSH1 0x1 SWAP1 PUSH1 0x20 DUP3 MUL DUP1 CALLDATASIZE DUP4 CALLDATACOPY DUP1 DUP3 ADD SWAP2 POP POP SWAP1 POP POP SWAP1 JUMP JUMPDEST PUSH1 0x40 MLOAD DUP1 PUSH1 0x40 ADD PUSH1 0x40 MSTORE DUP1 PUSH1 0x2 SWAP1 PUSH1 0x20 DUP3 MUL DUP1 CALLDATASIZE DUP4 CALLDATACOPY DUP1 DUP3 ADD SWAP2 POP POP SWAP1 POP POP SWAP1 JUMP JUMPDEST PUSH1 0x0 PUSH2 0x15D8 PUSH2 0x15D3 DUP5 PUSH2 0x1880 JUMP JUMPDEST PUSH2 0x184F JUMP JUMPDEST SWAP1 POP DUP1 DUP3 DUP6 PUSH1 0x20 DUP7 MUL DUP3 ADD GT ISZERO PUSH2 0x15EE JUMPI PUSH1 0x0 DUP1 REVERT JUMPDEST PUSH1 0x0 JUMPDEST DUP6 DUP2 LT ISZERO PUSH2 0x161E JUMPI DUP2 PUSH2 0x1604 DUP9 DUP3 PUSH2 0x17D2 JUMP JUMPDEST DUP5 MSTORE PUSH1 0x20 DUP5 ADD SWAP4 POP PUSH1 0x20 DUP4 ADD SWAP3 POP POP PUSH1 0x1 DUP2 ADD SWAP1 POP PUSH2 0x15F1 JUMP JUMPDEST POP POP POP SWAP4 SWAP3 POP POP POP JUMP JUMPDEST PUSH1 0x0 PUSH2 0x163B PUSH2 0x1636 DUP5 PUSH2 0x18A6 JUMP JUMPDEST PUSH2 0x184F JUMP JUMPDEST SWAP1 POP DUP1 DUP3 DUP6 PUSH1 0x20 DUP7 MUL DUP3 ADD GT ISZERO PUSH2 0x1651 JUMPI PUSH1 0x0 DUP1 REVERT JUMPDEST PUSH1 0x0 JUMPDEST DUP6 DUP2 LT ISZERO PUSH2 0x1681 JUMPI DUP2 PUSH2 0x1667 DUP9 DUP3 PUSH2 0x17D2 JUMP JUMPDEST DUP5 MSTORE PUSH1 0x20 DUP5 ADD SWAP4 POP PUSH1 0x20 DUP4 ADD SWAP3 POP POP PUSH1 0x1 DUP2 ADD SWAP1 POP PUSH2 0x1654 JUMP JUMPDEST POP POP POP SWAP4 SWAP3 POP POP POP JUMP JUMPDEST PUSH1 0x0 DUP3 PUSH1 0x1F DUP4 ADD SLT PUSH2 0x169C JUMPI PUSH1 0x0 DUP1 REVERT JUMPDEST PUSH1 0x1 PUSH2 0x16A9 DUP5 DUP3 DUP6 PUSH2 0x15C5 JUMP JUMPDEST SWAP2 POP POP SWAP3 SWAP2 POP POP JUMP JUMPDEST PUSH1 0x0 DUP3 PUSH1 0x1F DUP4 ADD SLT PUSH2 0x16C3 JUMPI PUSH1 0x0 DUP1 REVERT JUMPDEST PUSH1 0x2 PUSH2 0x16D0 DUP5 DUP3 DUP6 PUSH2 0x1628 JUMP JUMPDEST SWAP2 POP POP SWAP3 SWAP2 POP POP JUMP JUMPDEST PUSH1 0x0 PUSH1 0x40 DUP3 DUP5 SUB SLT ISZERO PUSH2 0x16EB JUMPI PUSH1 0x0 DUP1 REVERT JUMPDEST PUSH2 0x16F5 PUSH1 0x40 PUSH2 0x184F JUMP JUMPDEST SWAP1 POP PUSH1 0x0 PUSH2 0x1705 DUP5 DUP3 DUP6 ADD PUSH2 0x17D2 JUMP JUMPDEST PUSH1 0x0 DUP4 ADD MSTORE POP PUSH1 0x20 PUSH2 0x1719 DUP5 DUP3 DUP6 ADD PUSH2 0x17D2 JUMP JUMPDEST PUSH1 0x20 DUP4 ADD MSTORE POP SWAP3 SWAP2 POP POP JUMP JUMPDEST PUSH1 0x0 PUSH1 0x80 DUP3 DUP5 SUB SLT ISZERO PUSH2 0x1737 JUMPI PUSH1 0x0 DUP1 REVERT JUMPDEST PUSH2 0x1741 PUSH1 0x40 PUSH2 0x184F JUMP JUMPDEST SWAP1 POP PUSH1 0x0 PUSH2 0x1751 DUP5 DUP3 DUP6 ADD PUSH2 0x16B2 JUMP JUMPDEST PUSH1 0x0 DUP4 ADD MSTORE POP PUSH1 0x40 PUSH2 0x1765 DUP5 DUP3 DUP6 ADD PUSH2 0x16B2 JUMP JUMPDEST PUSH1 0x20 DUP4 ADD MSTORE POP SWAP3 SWAP2 POP POP JUMP JUMPDEST PUSH1 0x0 PUSH2 0x100 DUP3 DUP5 SUB SLT ISZERO PUSH2 0x1784 JUMPI PUSH1 0x0 DUP1 REVERT JUMPDEST PUSH2 0x178E PUSH1 0x60 PUSH2 0x184F JUMP JUMPDEST SWAP1 POP PUSH1 0x0 PUSH2 0x179E DUP5 DUP3 DUP6 ADD PUSH2 0x16D9 JUMP JUMPDEST PUSH1 0x0 DUP4 ADD MSTORE POP PUSH1 0x40 PUSH2 0x17B2 DUP5 DUP3 DUP6 ADD PUSH2 0x1725 JUMP JUMPDEST PUSH1 0x20 DUP4 ADD MSTORE POP PUSH1 0xC0 PUSH2 0x17C6 DUP5 DUP3 DUP6 ADD PUSH2 0x16D9 JUMP JUMPDEST PUSH1 0x40 DUP4 ADD MSTORE POP SWAP3 SWAP2 POP POP JUMP JUMPDEST PUSH1 0x0 DUP2 CALLDATALOAD SWAP1 POP PUSH2 0x17E1 DUP2 PUSH2 0x1ACD JUMP JUMPDEST SWAP3 SWAP2 POP POP JUMP JUMPDEST PUSH1 0x0 DUP1 PUSH2 0x120 DUP4 DUP6 SUB SLT ISZERO PUSH2 0x17FB JUMPI PUSH1 0x0 DUP1 REVERT JUMPDEST PUSH1 0x0 PUSH2 0x1809 DUP6 DUP3 DUP7 ADD PUSH2 0x1771 JUMP JUMPDEST SWAP3 POP POP PUSH2 0x100 PUSH2 0x181B DUP6 DUP3 DUP7 ADD PUSH2 0x168B JUMP JUMPDEST SWAP2 POP POP SWAP3 POP SWAP3 SWAP1 POP JUMP JUMPDEST PUSH2 0x182E DUP2 PUSH2 0x19B0 JUMP JUMPDEST DUP3 MSTORE POP POP JUMP JUMPDEST PUSH1 0x0 PUSH1 0x20 DUP3 ADD SWAP1 POP PUSH2 0x1849 PUSH1 0x0 DUP4 ADD DUP5 PUSH2 0x1825 JUMP JUMPDEST SWAP3 SWAP2 POP POP JUMP JUMPDEST PUSH1 0x0 PUSH1 0x40 MLOAD SWAP1 POP DUP2 DUP2 ADD DUP2 DUP2 LT PUSH8 0xFFFFFFFFFFFFFFFF DUP3 GT OR ISZERO PUSH2 0x1876 JUMPI PUSH2 0x1875 PUSH2 0x1A9E JUMP JUMPDEST JUMPDEST DUP1 PUSH1 0x40 MSTORE POP SWAP2 SWAP1 POP JUMP JUMPDEST PUSH1 0x0 PUSH8 0xFFFFFFFFFFFFFFFF DUP3 GT ISZERO PUSH2 0x189B JUMPI PUSH2 0x189A PUSH2 0x1A9E JUMP JUMPDEST JUMPDEST PUSH1 0x20 DUP3 MUL SWAP1 POP SWAP2 SWAP1 POP JUMP JUMPDEST PUSH1 0x0 PUSH8 0xFFFFFFFFFFFFFFFF DUP3 GT ISZERO PUSH2 0x18C1 JUMPI PUSH2 0x18C0 PUSH2 0x1A9E JUMP JUMPDEST JUMPDEST PUSH1 0x20 DUP3 MUL SWAP1 POP SWAP2 SWAP1 POP JUMP JUMPDEST PUSH1 0x0 PUSH2 0x18D7 DUP3 PUSH2 0x19BC JUMP JUMPDEST SWAP2 POP PUSH2 0x18E2 DUP4 PUSH2 0x19BC JUMP JUMPDEST SWAP3 POP DUP3 PUSH32 0xFFFFFFFFFFFFFFFFFFFFFFFFFFFFFFFFFFFFFFFFFFFFFFFFFFFFFFFFFFFFFFFF SUB DUP3 GT ISZERO PUSH2 0x1917 JUMPI PUSH2 0x1916 PUSH2 0x1A40 JUMP JUMPDEST JUMPDEST DUP3 DUP3 ADD SWAP1 POP SWAP3 SWAP2 POP POP JUMP JUMPDEST PUSH1 0x0 PUSH2 0x192D DUP3 PUSH2 0x19BC JUMP JUMPDEST SWAP2 POP PUSH2 0x1938 DUP4 PUSH2 0x19BC JUMP JUMPDEST SWAP3 POP DUP2 PUSH32 0xFFFFFFFFFFFFFFFFFFFFFFFFFFFFFFFFFFFFFFFFFFFFFFFFFFFFFFFFFFFFFFFF DIV DUP4 GT DUP3 ISZERO ISZERO AND ISZERO PUSH2 0x1971 JUMPI PUSH2 0x1970 PUSH2 0x1A40 JUMP JUMPDEST JUMPDEST DUP3 DUP3 MUL SWAP1 POP SWAP3 SWAP2 POP POP JUMP JUMPDEST PUSH1 0x0 PUSH2 0x1987 DUP3 PUSH2 0x19BC JUMP JUMPDEST SWAP2 POP PUSH2 0x1992 DUP4 PUSH2 0x19BC JUMP JUMPDEST SWAP3 POP DUP3 DUP3 LT ISZERO PUSH2 0x19A5 JUMPI PUSH2 0x19A4 PUSH2 0x1A40 JUMP JUMPDEST JUMPDEST DUP3 DUP3 SUB SWAP1 POP SWAP3 SWAP2 POP POP JUMP JUMPDEST PUSH1 0x0 DUP2 ISZERO ISZERO SWAP1 POP SWAP2 SWAP1 POP JUMP JUMPDEST PUSH1 0x0 DUP2 SWAP1 POP SWAP2 SWAP1 POP JUMP JUMPDEST PUSH1 0x0 PUSH2 0x19D1 DUP3 PUSH2 0x19BC JUMP JUMPDEST SWAP2 POP PUSH32 0xFFFFFFFFFFFFFFFFFFFFFFFFFFFFFFFFFFFFFFFFFFFFFFFFFFFFFFFFFFFFFFFF DUP3 EQ ISZERO PUSH2 0x1A04 JUMPI PUSH2 0x1A03 PUSH2 0x1A40 JUMP JUMPDEST JUMPDEST PUSH1 0x1 DUP3 ADD SWAP1 POP SWAP2 SWAP1 POP JUMP JUMPDEST PUSH1 0x0 PUSH2 0x1A1A DUP3 PUSH2 0x19BC JUMP JUMPDEST SWAP2 POP PUSH2 0x1A25 DUP4 PUSH2 0x19BC JUMP JUMPDEST SWAP3 POP DUP3 PUSH2 0x1A35 JUMPI PUSH2 0x1A34 PUSH2 0x1A6F JUMP JUMPDEST JUMPDEST DUP3 DUP3 MOD SWAP1 POP SWAP3 SWAP2 POP POP JUMP JUMPDEST PUSH32 0x4E487B7100000000000000000000000000000000000000000000000000000000 PUSH1 0x0 MSTORE PUSH1 0x11 PUSH1 0x4 MSTORE PUSH1 0x24 PUSH1 0x0 REVERT JUMPDEST PUSH32 0x4E487B7100000000000000000000000000000000000000000000000000000000 PUSH1 0x0 MSTORE PUSH1 0x12 PUSH1 0x4 MSTORE PUSH1 0x24 PUSH1 0x0 REVERT JUMPDEST PUSH32 0x4E487B7100000000000000000000000000000000000000000000000000000000 PUSH1 0x0 MSTORE PUSH1 0x41 PUSH1 0x4 MSTORE PUSH1 0x24 PUSH1 0x0 REVERT JUMPDEST PUSH2 0x1AD6 DUP2 PUSH2 0x19BC JUMP JUMPDEST DUP2 EQ PUSH2 0x1AE1 JUMPI PUSH1 0x0 DUP1 REVERT JUMPDEST POP JUMP INVALID LOG2 PUSH5 0x6970667358 0x22 SLT KECCAK256 0xBC 0xD6 SWAP6 0xCD MSIZE 0x5D 0x4E ADDMOD 0x28 0xDA 0xA7 DUP12 PUSH22 0x2BA03512A9C74175F30E8A75A518CD95B5E0B964736F PUSH13 0x63430008000033000000000000 "
				},
				"gasEstimates": {
					"creation": {
						"codeDepositCost": "1387600",
						"executionCost": "1444",
						"totalCost": "1389044"
					},
					"external": {
						"verifyTx(((uint256,uint256),(uint256[2],uint256[2]),(uint256,uint256)),uint256[1])": "infinite"
					},
					"internal": {
						"verify(uint256[] memory,struct Verifier.Proof memory)": "infinite",
						"verifyingKey()": "infinite"
					}
				},
				"methodIdentifiers": {
					"verifyTx(((uint256,uint256),(uint256[2],uint256[2]),(uint256,uint256)),uint256[1])": "f48d7729"
				}
			},
			"storageLayout": {
				"storage": [],
				"types": null
			},
			"userdoc": {
				"kind": "user",
				"methods": {},
				"version": 1
			}
		}
	}
}